:020000040800F2
:1000000000A0002031210008792100087921000892
:1000100079210008792100087921000800000000FA
:10002000000000000000000000000000792100082E
:1000300079210008000000007921000879210008DA
:1000400000000000000000000000000000000000B0
:1000500000000000000000000000000000000000A0
:100060000000000000000000000000000000000090
:100070000000000000000000000000000000000080
:100080000000000000000000000000000000000070
:100090000000000000000000000000000000000060
:1000A0000000000000000000000000000000000050
:1000B0000000000000000000000000000000000040
:1000C0000000000000000000000000000000000030
:1000D0000000000000000000000000000000000020
:1000E0000000000000000000000000000000000010
:1000F0000000000000000000000000000000000000
:1001000000000000000000000000000000000000EF
:1001100000000000000000000000000000000000DF
:1001200000000000000000000000000000000000CF
:1001300000000000000000000000000000000000BF
:1001400000000000000000000000000000000000AF
:10015000000000000000000000000000000000009F
:10016000000000000000000000000000000000008F
:10017000000000000000000000000000000000007F
:08018000000000000000000077
:1001880080F0004002E000BF81F0004142001FBF44
:100198005FEA410392EA030F7FEA226C7FEA236C4D
:1001A8006AD04FEA1262D2EB1363C1BFD218414042
:1001B80048404140B8BF5B42192B88BF704710F0D8
:1001C800004F40F4000020F07F4018BF404211F07B
:1001D800004F41F4000121F07F4118BF494292EAE3
:1001E800030F3FD0A2F1010241FA03FC10EB0C000F
:1001F800C3F1200301FA03F100F0004302D549429C
:1002080060EB4000B0F5000F13D3B0F1807F06D348
:1002180040084FEA310102F10102FE2A51D2B1F140
:10022800004F40EBC25008BF20F0010040EA030035
:100238007047490040EB0000013A28BFB0F5000FB5
:10024800EDD2B0FA80FCACF1080CB2EB0C0200FA6B
:100258000CF0AABF00EBC25052421843BCBFD040BA
:100268001843704792F0000F81F4000106BF80F434
:1002780000000132013BB5E74FEA41037FEA226CF7
:1002880018BF7FEA236C21D092EA030F04D092F0C2
:10029800000F08BF0846704790EA010F1CBF0020F6
:1002A800704712F07F4F04D1400028BF40F0004053
:1002B800704712F100723CBF00F50000704700F073
:1002C800004343F0FE4040F4000070477FEA22629A
:1002D80016BF08467FEA23630146420206BF5FEA6B
:1002E800412390EA010F40F4800070474FF000036B
:1002F80004E000BF10F0004348BF40425FEA000C32
:1003080008BF704743F0964301464FF000001CE0D9
:1003180050EA010208BF70474FF000030AE000BF2F
:1003280050EA010208BF704711F0004302D540426D
:1003380061EB41015FEA010C02BF844601460020DF
:1003480043F0B64308BFA3F18053A3F50003BCFAFA
:100358008CF2083AA3EBC25310DB01FA02FC6344A7
:1003680000FA02FCC2F12002BCF1004F20FA02F2AE
:1003780043EB020008BF20F00100704702F12002A1
:1003880001FA02FCC2F1200250EA4C0021FA02F202
:1003980043EB020008BF20EADC7070474FF0FF0C07
:1003A8001CEAD0521EBF1CEAD15392EA0C0F93EA02
:1003B8000C0F6FD01A4480EA010C400218BF5FEAA4
:1003C80041211ED04FF0006343EA501043EA511117
:1003D800A0FB01310CF00040B1F5000F3EBF490011
:1003E80041EAD3715B0040EA010062F17F02FD2A15
:1003F8001DD8B3F1004F40EBC25008BF20F00100F8
:10040800704790F0000F0CF0004C08BF49024CEA0E
:10041800502040EA51207F3AC2BFD2F1FF0340EAA0
:10042800C250704740F400004FF00003013A5DDC11
:1004380012F1190FDCBF00F000407047C2F1000252
:10044800410021FA02F1C2F1200200FA02FC5FEA3F
:10045800310040F1000053EA4C0308BF20EADC7089
:10046800704792F0000F00F0004C02BF400010F4FB
:10047800000F013AF9D040EA0C0093F0000F01F0A8
:10048800004C02BF490011F4000F013BF9D041EACA
:100498000C018FE70CEAD15392EA0C0F18BF93EACC
:1004A8000C0F0AD030F0004C18BF31F0004CD8D1F6
:1004B80080EA010000F00040704790F0000F17BF7D
:1004C80090F0004F084691F0000F91F0004F14D0C3
:1004D80092EA0C0F01D142020FD193EA0C0F03D11B
:1004E8004B0218BF084608D180EA010000F000401E
:1004F80040F0FE4040F40000704740F0FE4040F4F9
:10050800400070474FF0FF0C1CEAD0521EBF1CEA97
:10051800D15392EA0C0F93EA0C0F69D0A2EB0302B5
:1005280080EA010C49024FEA402037D04FF080534F
:1005380043EA111143EA10130CF000408B4238BF14
:100548005B0042F17D024FF4000C8B4224BF5B1A22
:1005580040EA0C00B3EB510F24BFA3EB510340EA70
:100568005C00B3EB910F24BFA3EB910340EA9C001E
:10057800B3EBD10F24BFA3EBD10340EADC001B018E
:1005880018BF5FEA1C1CE0D1FD2A3FF650AF8B4232
:1005980040EBC25008BF20F0010070470CF0004C3F
:1005A8004CEA50207F32C2BFD2F1FF0340EAC2506A
:1005B800704740F400004FF00003013A37E792F02B
:1005C800000F00F0004C02BF400010F4000F013A89
:1005D800F9D040EA0C0093F0000F01F0004C02BF84
:1005E800490011F4000F013BF9D041EA0C0195E7ED
:1005F8000CEAD15392EA0C0F08D142027FF47DAF86
:1006080093EA0C0F7FF470AF084676E793EA0C0F75
:1006180004D14B023FF44CAF08466EE730F0004C73
:1006280018BF31F0004CCAD130F000427FF45CAF03
:1006380031F000437FF43CAF5FE700BF4FF0FF3C71
:1006480006E000BF4FF0010C02E000BF4FF0010CC4
:100658004DF804CD4FEA40024FEA41037FEA226C8D
:1006680018BF7FEA236C11D001B052EA530C18BFAF
:1006780090EA010F58BFB2EB030088BFC81738BF14
:100688006FEAE17018BF40F0010070477FEA226C02
:1006980002D15FEA402C05D17FEA236CE4D15FEAFE
:1006A800412CE1D05DF8040B704700BF8446084632
:1006B8006146FFE70FB5FFF7C9FF002848BF10F1F3
:1006C800000F0FBD4DF808EDFFF7F4FF0CBF012038
:1006D80000205DF808FB00BF4DF808EDFFF7EAFFC2
:1006E80034BF012000205DF808FB00BF4DF808ED7D
:1006F800FFF7E0FF94BF012000205DF808FB00BF72
:100708004DF808EDFFF7D2FF94BF012000205DF8F7
:1007180008FB00BF4DF808EDFFF7C8FF34BF012004
:1007280000205DF808FB00BF4FEA4002B2F1FE4F1F
:100738000FD34FF09E03B3EB12620DD94FEA00239B
:1007480043F0004310F0004F23FA02F018BF404274
:1007580070474FF00000704712F1610F01D142025B
:1007680005D110F0004008BF6FF0004070474FF00F
:10077800000070470348044B834202D0034B03B187
:100788001847704754000020540000200000000063
:100798000548064B1B1AD90F01EBA301491002D0DB
:1007A800034B03B118477047540000205400002041
:1007B8000000000010B5064C237843B9FFF7DAFFB4
:1007C800044B13B10448AFF300800123237010BD1C
:1007D800F00A0020000000000829000808B5054BB1
:1007E8001BB105490548AFF30080BDE80840FFF795
:1007F800CFBF00BF00000000F40A0020082900084D
:10080800074A13785178402B84BF4023137040293E
:1008180002D9402353707047994238BF117070470E
:10082800000000201FB51D4B1A788DF800201A799A
:100838008DF801205A798DF802209A798DF80320D5
:100848001A7B8DF804205A7B8DF805209A7B8DF849
:100858000620134A91788DF80710D1788DF8081082
:10086800198A8DF80910090A8DF80A10997CDB7C21
:100878008DF80C3013788DF80B108DF80D3000249E
:1008880053788DF80E306A46102172208DF80F408B
:1008980001F078FB204604B010BD00BF54000020D2
:1008A80000000020022A13B50E4C0F4809D91A7807
:1008B800022A98BFE2745A789B7802704370FFF757
:1008C8009FFFE37C8DF8043003788DF8053001AA8A
:1008D80043788DF806300321722001F053FB002085
:1008E80002B010BD5400002000000020062A07B501
:1008F8000B4A0AD91978062907D811715978517104
:100908009978D3F803309171936013798DF8043096
:1009180001AA0121722001F035FB002003B000BDBF
:100928005400002007B508491AB11B78032B98BF5B
:100938000B700B788DF8043001AA0121722001F0A8
:1009480021FB002003B000BD5400002007B5054B73
:10095800019301AA0421722001F014FB002003B0C6
:1009680000BD00BFDEADBEEFF0B51D4D2C7B6F7B2B
:10097800003C18BF01248DB044F00206002F18BFB8
:100988003446AF7B8DF8042044F004062A78129D83
:100998008DF80200002F18BF3446002B8DF8031085
:1009A8008DF805208DF806300FCD44F00806F6B214
:1009B80018BF34468DF8074002AC0FC40FCD0FC4E2
:1009C80045F6A526ADF8006095E803006A4684E878
:1009D80003003021722001F0D5FA0DB0F0BD00BF40
:1009E8005400002070B58CB002AC05460E46282293
:1009F8000021204601F044FF00943346FF220021E5
:100A08002846FFF7B1FF0CB070BD000010B5064CCA
:100A18004FF44472002104F1140001F031FF002367
:100A28002373238210BD00BF5400002010B5164C5C
:100A38002822002104F5497001F022FF2822002114
:100A480004F5537001F01CFF4FF48072002104F587
:100A58005D7001F015FF4FF48072002104F27440BC
:100A680001F00EFF4FF48072002104F2745001F07F
:100A780007FF064A0023FF216373A37384F87436C3
:100A88009170D170A37410BD5400002000000020A4
:100A980007B5FFF7BBFFFFF7C9FF45F2AA5301AA45
:100AA80002217220ADF8043001F06CFA002003B086
:100AB80000BD00B5A1B080220021684601F0E0FE2B
:100AC8006A468021722001F05DFA21B000BD000065
:100AD80008B5074A92F874361BB9FFF7EAFF0020F9
:100AE80008BD02F57D728021722001F04BFAF6E70D
:100AF8005400002008B5074A92F874361BB9FFF76E
:100B0800D8FF002008BD02F55D728021722001F037
:100B180039FAF6E75400002008B5074A937B1BB959
:100B2800FFF7C7FF002008BD02F2F44280217220BF
:100B380001F028FAF6E700BF5400002008B5074A7C
:100B4800937B1BB9FFF7B5FF002008BD02F2744282
:100B58008021722001F016FAF6E700BF5400002049
:100B680000B58BB028220021684601F089FE6A464C
:100B78002821722001F006FA0BB000BD08B5074A1B
:100B8800937B1BB9FFF7ECFF002008BD02F55372F9
:100B98002821722001F0F6F9F6E700BF5400002082
:100BA800F7B5184E312A378A09D0ADF8047001AA72
:100BB8000221722001F0E6F9002003B0F0BD1C7894
:100BC80004EB44042401B4F5447F17D2C4F54475FA
:100BD800ADB2302D28BF302506F1140020442C4436
:100BE800A4B2591C2A4601F07DFEBC4284BF2746A8
:100BF8003482B7F5447F24BF01233373338AADF8B9
:100C08000430D4E75400002070B5114E114B06F69D
:100C18007805D8700FCD06F553740FC40FCD0FC4E7
:100C280095E803004FF4807284E8030006F5EF614D
:100C380006F2744001F056FE4FF4807206F5CF615B
:100C480006F2745001F04EFE0123B37370BD00BF6D
:100C58005400002000000020F8B5084E084F051F7A
:100C680000F63C4416F8010BFFF740FB3946FFF746
:100C780049FC45F8040FA542F4D1F8BD68000020EE
:100C880000007F4300B5ADF6444D6846FFF7E4FF2A
:100C9800054968460A7801F5CF6100F085FAC0B2C7
:100CA8000DF6444D00BD00BF5400002030B5354C52
:100CB800E37C022BADF64C4D1FD100F02BFB02A8B4
:100CC800FFF7CAFF04F5CF6102A800F0A5F9224694
:100CD80004F5CF6012F8041B00F01BFA04F5CF608E
:100CE80000F020FA04F6780000F048FAC4B200F0E8
:100CF80018FB20460DF64C4D30BD02A8FFF7ACFF9F
:100D080004F5CF6102A800F087F9E37C012B2CD110
:100D18001D4DFFF775FD22462B7812F8041B009332
:100D280004F5CF60002300F0A3F900F0F3FA22469F
:100D38006B7812F8041B00932B7804F5CF6000F051
:100D480097F900F0EEFA2246402312F8041B0093AC
:100D58006B7804F5CF6000F08BF90C4800F0E2F9ED
:100D68000B4800F00BFAC4B2C3E700F0D3FA2246EE
:100D780004F5CF6012F8041B00F0CBF900F0D1FAAB
:100D8800EBE700BF5400002000000020CC06002044
:100D9800CC08002007B5FF238DF80430094B1B7BD6
:100DA8003BB901AA0121722001F0ECF8002003B040
:100DB80000BDFFF77BFFFFF727FF034BDB788DF8BC
:100DC8000430EEE7540000200000002013B50E4C5C
:100DD800237B33B921790120FFF704FE002002B0FC
:100DE80010BDFFF763FFFFF70FFFA17C074A013132
:100DF80004F55373C9B2A17400932379D278012002
:100E0800FFF7B2FDEAE700BF540000200000002011
:100E180070B50E4E0E4B06F6780598700FCD06F598
:100E280049740FC40FCD0FC495E803004FF48072C6
:100E380084E8030006F5EF6106F55D7001F052FDE8
:100E4800012386F87436737370BD00BF5400002008
:100E58000000002013B50D4C217B29B90846FFF787
:100E6800C1FD002002B010BDFFF70CFFFFF7D0FF57
:100E7800A17C074A0131C9B2A17404F549740094F0
:100E8800002392781846FFF76FFDEAE75400002028
:100E98000000002010B5094C237B1BB9FFF760FE4A
:100EA800002010BDFFF7EEFEFFF7B2FF04F5497210
:100EB8002821722001F066F8F2E700BF54000020F4
:100EC80008B500F087F900F0C3F900F0FFF9FFF763
:100ED8009DFDFFF7ABFDFFF793FC01F041F8294AB0
:100EE80000217A2001F022F8274A0021632001F02E
:100EF8001DF8264A0121612001F018F8244A07212B
:100F0800662001F013F8234A0321742001F00EF83B
:100F1800214A3121782001F009F8204A0021622075
:100F280001F004F81E4A00216E2000F0FFFF1D4A60
:100F38000021692000F0FAFF1B4A0021672000F019
:100F4800F5FF1A4A00216F2000F0F0FF184A00212F
:100F5800732000F0EBFF174A0021682000F0E6FF3D
:100F6800154A00216A2000F0E1FF144A002171208F
:100F780000F0DCFF124A0021752000F0D7FF01F0D5
:100F88005FF8FCE755090008990A00082D090008D0
:100F9800F5080008AD080008A90B00089D0E000818
:100FA8005D0E00089D0D0008D50D0008850B000892
:100FB8002D080008450B0008210B0008FD0A000851
:100FC800D90A0008022913B5044612D0032915D0FE
:100FD800012919D100F1004001F0CCF84FF07E5101
:100FE800FFF7D4F801464FF07E50FFF78BFA02B0B6
:100FF80010BD02B0BDE8104001F0E4B8C30F013BDA
:1010080018400190019BF2E70021FFF783FB08B12C
:101018002046ECE70020EAE72DE9F74FDFF8489093
:10102800124F82460E1F01F1FC0500F63C4359F8A9
:10103800044BAAF10408BB4658F8041F5BF8040BDC
:101048000193FFF7ABF901462046FFF79FF8019B94
:1010580098450446F0D146F8040FAE4207F54467B8
:10106800E5D103B0BDE8F08F5033000850340008D4
:101078002DE9F0411546069A402AA8BF402223EAE6
:10108800E374A2420E4690460BDD002BCBBF04F161
:101098003F03002450F82310002100EB8407444547
:1010A80001DBBDE8F0812A7857F8043B013A052AAC
:1010B80007D8DFE802F0030B101519216A78A2425D
:1010C80015D031461846FFF77DFF20E06A78A24226
:1010D800F7D100230BE06A78A242F2D10B4606E072
:1010E800AA78A242F5DDECE7AA78A242E9DCC7F8C3
:1010F800FC3001341946D2E718463146FFF762FF43
:101108006A78A2420346F2D16968FFF73FF80346BE
:10111800EDE707B5402300930023FFF7A9FF03B0CD
:1011280000BD00002DE9F74F00F5FE7ADFF8449086
:10113800114E074600F50973554659F8044B07F157
:10114800FC08B34658F8041F5BF8040B0193FFF73B
:1011580025F901462046FFF719F8D045019B0446BA
:10116800F0D145F8040F9D4206F58076E5D103B02D
:10117800BDE8F08F28290008502900082DE9F04122
:10118800066807460124002557F824803146404662
:10119800FFF7C0FA08B14646254601340A2CF3D1B8
:1011A8002846BDE8F081000038B50C461546FFF723
:1011B80033FF29462046064AFFF7ABFF2046FFF7D4
:1011C800B1FF04F50070BDE83840FFF7D7BF00BF96
:1011D8002029000870B596B0002403264FF4A023F8
:1011E8000CA80125CDE90C631094149400F0D0F8F4
:1011F8000F23214602A8CDE90235CDE9044406941F
:1012080000F00CFB104B11485A6942F400225A6155
:101218005B6903F400230193019B07A94FF4C043C2
:10122800CDE90735CDE9094600F098FB2A4607487D
:101238004FF4005100F04CFC04482A464FF480411A
:1012480000F046FC16B070BD0010024000080048CF
:1012580010B54FF4C06288B00223CDE90323012101
:101268000323CDE90513164C07230793636943F459
:1012780000336361636903F40033019303A94FF0FA
:101288009040019B00F06AFB0E4A0F4B13604FF42D
:1012980061300023C2E90103C2E9033393610C23DF
:1012A8005361A36943F48043A361A36903F48043B2
:1012B80002931046029B00F01EFD08B010BD00BF4F
:1012C80000100240F40800200038014030B5104BEF
:1012D8005A6942F4003287B05A615B6903F40033FB
:1012E8000093009B4FF480540123CDE9014300256E
:1012F800032301A94FF09040CDE9035300F02EFBE2
:101308002A4621464FF0904000F0E2FB07B030BD7E
:101318000010024001224FF480514FF0904000F03D
:10132800D7BB00224FF480514FF0904000F0D0BB63
:1013380013B5094C094841F2883301220DF1070120
:1013480000F058FD18B99DF8070002B010BD236AD7
:1013580043F008032362EDE700380140F408002059
:1013680007B541F288338DF8070001220DF1070116
:10137800024800F0EAFC03B000BD00BFF4080020FA
:10138800024B1868421C1A60704700BF64090020AD
:1013980003682DE9F743D907044610D423689A0750
:1013A8007ED423681E0700F1E78023685D0700F1FB
:1013B8002A81E269002A40F0AD8100201FE0AE4991
:1013C8004B6803F00C03042B07D04B6803F00C03A5
:1013D800082B17D14B68DB0314D54FF4003393FA6D
:1013E800A3F2096893FAA3F30122B3FA83F302FA8A
:1013F80003F30B42D2D06368002BCFD1012003B096
:10140800BDE8F0836268B2F5803F22D10B6843F4EF
:1014180080330B60CB6AA06823F00F030343CB62D1
:101428003AB3FFF7ADFF4FF400350646012795FAAA
:10143800A5F30A6895FAA5F3B3FA83F307FA03F359
:101448001342ABD1FFF79CFF801B6428EFD9032020
:10145800D5E70B6832B923F480330B600B6823F4AB
:101468008023D6E7B2F5A02FF5D143F480230B6093
:10147800CCE7FFF785FF4FF400350646012795FABC
:10148800A5F30A6895FAA5F3B3FA83F307FA03F309
:10149800134283D0FFF774FF801B6428EFD9D6E787
:1014A80075494B6813F00C0F07D04B6803F00C0319
:1014B800082B1FD14B68DF031CD4022393FAA3F235
:1014C800086893FAA3F30122B3FA83F302FA03F349
:1014D800034202D02369934290D10868F82292FA15
:1014E800A2F26369B2FA82F2934020F0F802134341
:1014F8000B6056E722690125F2B195FAA5F3B3FA14
:1015080083F303F1845303F584139B0002271D60C2
:10151800FFF736FF064697FAA7F30A6897FAA7F384
:10152800B3FA83F305FA03F31342D6D1FFF728FF82
:10153800801B0228EFD98AE795FAA5F3B3FA83F35B
:1015480003F1845303F584139B0002271A60FFF705
:1015580017FF064697FAA7F30A6897FAA7F3B3FAAC
:1015680083F305FA03F313423FF41BAFFFF708FFB9
:10157800801B0228EED96AE7A0693F4D3F4A012146
:1015880000B391FAA1F3B3FA83F313449B00022644
:101598001960FFF7F5FE074696FAA6F396FAA6F342
:1015A80096FAA6F36A6A96FAA6F3B3FA83F301FAEF
:1015B80003F313427FF4F9AEFFF7E2FEC01B0228E3
:1015C800EAD944E791FAA1F3B3FA83F313449B00F1
:1015D80002261860FFF7D4FE074696FAA6F396FA95
:1015E800A6F396FAA6F36A6A96FAA6F3B3FA83F311
:1015F80001FA03F313423FF4D8AEFFF7C1FEC01B54
:101608000228EAD923E71C49CB69D80031D4CB6931
:1016180043F08053CB61CB6903F080530193019B66
:101628000125174E3368DA052CD5E368012B39D12B
:101638000B6A43F001030B62FFF7A2FE022607467E
:101648004FF0010841F2883996FAA6F396FAA6F304
:101658000A6A96FAA6F3B3FA83F308FA03F3134275
:1016680052D0002D3FF4A5AECB6923F08053CB6157
:101678009FE60025D5E700BF0010024020819010AA
:1016880000700040336843F480733360FFF778FEDE
:1016980007463368DB05C8D4FFF772FEC01B642811
:1016A800F7D9D4E613BB0B6A23F001030B620B6A6C
:1016B80023F004030B62FFF763FE022607464FF090
:1016C800010841F2883996FAA6F396FAA6F30A6A4F
:1016D80096FAA6F3B3FA83F308FA03F31342C0D0D9
:1016E800FFF74EFEC01B4845EDD9B0E6052B0B6A47
:1016F80003D143F004030B629AE723F001030B6262
:101708000B6A23F0040396E7FFF73AFEC01B48452F
:101718009AD99CE63F494B6803F00C03082B3FF429
:101728006DAE022A4FF0807350D193FAA3F3B3FA47
:1017380083F303F1845303F584139B0000221A609A
:10174800FFF71EFEDFF8D08006464FF00077012530
:1017580097FAA7F30A6897FAA7F3B3FA83F305FA97
:1017680003F313422CD1D4E908034A68034322F453
:10177800741213434B604FF0807393FAA3F3B3FAD8
:1017880083F303F1845303F584139B00224F1D60F8
:10179800FFF7F6FD4FF000740546012694FAA4F30E
:1017A8000A6894FAA4F3B3FA83F306FA03F313422C
:1017B8007FF403AEFFF7E4FD401BB842EED946E6DE
:1017C800FFF7DEFD801B4045C2D940E693FAA3F33C
:1017D800B3FA83F303F1845303F584139B000022C7
:1017E8001A60FFF7CDFD0C4F05464FF00074012637
:1017F80094FAA4F30A6894FAA4F3B3FA83F306FA02
:1018080003F313423FF4D9ADFFF7BAFD401BB842CA
:10181800EED91CE600100240400D03004D4AF8B511
:10182800136803F007038B42054611D32A6894070F
:101838001AD4D00720D4474A136803F007038B4211
:101848006CD82A68510774D413077AD400200AE0A8
:10185800136823F007030B431360136803F00703AF
:101868008B42E3D00120F8BD3B48AC68436823F0C5
:10187800F00323434360DCE76A68374C012A25D12B
:101888004FF4003393FAA3F0206893FAA3F3B3FA62
:1018980083F302FA03F30342E4D0636823F00303FB
:1018A80013436360FFF76CFD6B68012B064641F23A
:1018B80088371CD1636803F00C03042BBBD0FFF7F7
:1018C8005FFD801BB842F5D90320CCE7022A0CBF84
:1018D8004FF00073022393FAA3F0266893FAA3F358
:1018E8000120B3FA83F300FA03F33342D4E7022B5F
:1018F8000FD1636803F00C03082B9CD0FFF740FD61
:10190800801BB842F5D9DFE7FFF73AFD801BB842E4
:10191800DAD8636813F00C0FF6D18CE7136823F05C
:1019280007030B431360136803F007038B4299D135
:1019380087E70949E8684B6823F4E06303434B6091
:1019480082E7054A2969536823F4605343EAC103CF
:1019580053607BE700200240001002402DE9F74F5A
:10196800DFF86081584C00224FF00F090B6833FAFA
:1019780002F502D103B0BDE8F08F012505FA02FA9D
:101988001AEA030300F094804D6825F0100EBEF1AA
:10199800020F11D1D70800EB870702F0070C3E6A47
:1019A8004FEA8C0C09FA0CFB26EA0B0B0E6906FAB7
:1019B8000CF646EA0B063E6207684FEA420C03261D
:1019C80006FA0CF627EA060B05F0030707FA0CF7E8
:1019D8000EF1FF3E47EA0B07BEF1010F076010D872
:1019E800876827EA060ECF6807FA0CF747EA0E075A
:1019F8008760476827EA0A0E2F09974047EA0E07CB
:101A08004760C76827EA06078E6806FA0CF63E4361
:101A1800C660EE004CD5D8F8186046F00106C8F844
:101A28001860D8F8186022F0030707F1804706F01D
:101A3800010607F58037019602F0030C019EBE6887
:101A48004FEA8C0C09FA0CFEB0F1904F26EA0E0E04
:101A580030D01E4EB0422FD006F58066B0422DD051
:101A680006F58066B0422BD006F58066B04214BFFA
:101A78000526042606FA0CF646EA0E06BE60266817
:101A8800EF0354BF9E431E4326606668AF0354BFEE
:101A98009E431E436660A668EF0254BF9E431E43E2
:101AA800A660E668AD0254BF26EA03033343E36049
:101AB80001325BE70026DDE70126DBE70226D9E7EE
:101AC8000326D7E700100240000401400004004844
:101AD8000AB18161704781627047000002688368BB
:101AE800C16930B5056914682B43456924F4164467
:101AF8002B4324F00C040B43234313605368C4683E
:101B0800056A23F44053234353609468836924F49B
:101B180030642B4323439360424B9A4211D103F51F
:101B280058431B6B03F00303022B5FD0032B65D0D4
:101B3800B1F5004F41684FEA510345D003F5E10381
:101B480048E0394B9A4212D103F5E6331B6B03F494
:101B58004033B3F5003F49D0EAD9B3F5403F4DD003
:101B6800B1F5004F4FF001005BD1002353E02F4B3C
:101B78009A420BD103F5E4331B6B03F44023B3F50E
:101B8800002F33D0D4D9B3F5402FE8E7284B9A4239
:101B98000BD103F5E2331B6B03F44013B3F5001FBD
:101BA80024D0C5D9B3F5401FD9E7224B9A42D7D1E3
:101BB80003F5E0331B6B03F44003B3F5000F15D0B6
:101BC800B6D9B3F5400FCAE703F561031FE04B0828
:101BD80003F50043B3FBF1F39BB2D360002020E090
:101BE8004B0803F5740303F51053F3E7B1F5004F01
:101BF8004168ECD14B0803F5803308E0B1F5004F9C
:101C08004168EDD14B0803F1F47303F59043B3FB3E
:101C1800F1F300209BB223F00F01C3F342030B43FF
:101C2800D36030BD00380140004400400048004007
:101C3800004C0040005000402DE9F041069E04464B
:101C4800174698462568E86931EA00000CBF012369
:101C58000023BB4201D0002013E0721CF3D096B9D8
:101C68002B6823F4D0732B60AB6823F00103AB60BF
:101C7800202384F8693084F86A30002384F86830B7
:101C88000320BDE8F081FFF77BFBA0EB0800B04222
:101C9800D8D9E5E773B504460021C166FFF770FBA4
:101CA800266833681A07054616D433685B070AD5D1
:101CB8006FF07E43009300222B464FF480012046AC
:101CC800FFF7BAFFA0B92023002084F8693084F810
:101CD800680084F86A300CE06FF07E4300930A468F
:101CE80003464FF400112046FFF7A6FF0028DCD07A
:101CF800032002B070BD38B5044620B390F86930AF
:101D080003F0FF020BB980F868202568242384F8C3
:101D180069302B6823F001032B602046FFF7DEFEB5
:101D2800012810D06B6823F490436B60AB6823F0F4
:101D38002A03AB602B6843F001032B602046BDE803
:101D48003840FFF7A7BF012038BDF7B51E4690F809
:101D58006930202B0D460446114649D1002D45D047
:101D6800002A43D090F86830012B41D0012380F835
:101D780068300023C366212380F86930FFF700FB31
:101D8800A4F850100746A4F85210B4F8522092B2A2
:101D980062B900963B4640212046FFF74DFF90B9B7
:101DA800202384F8693084F868000DE0B4F85230D4
:101DB800013BA4F85230002200963B468021204681
:101DC800FFF73AFF10B1032003B0F0BDA268236803
:101DD800B2F5805F07D122692AB935F8022BC2F320
:101DE80008021A85D1E715F8012BFAE70120EBE77D
:101DF8000220E9E72DE9F3411E4690F86A30202BCE
:101E08000D46044611465DD1002D59D0002A57D001
:101E180090F86830012B55D0012380F868300368AA
:101E28004FF0FF321A620023C366222380F86A301B
:101E3800FFF7A6FAA368A4F85810B3F5805F074621
:101E4800A4F85A1015D123698BB940F2FF13A4F8EE
:101E58005C30B4F85C80B4F85A0080B280B92023B2
:101E680084F86A3084F8680002B0BDE8F081FF2386
:101E7800EDE7002BEDD12369002BF8D07F23E6E7AF
:101E8800B4F85A30013BA4F85A30002200963B4679
:101E980020212046FFF7D0FEB0B9A2682368B2F52A
:101EA800805F07D122692AB99B8C08EA030325F8C9
:101EB800023BD0E79B8C08EA030305F8013BCAE71D
:101EC8000120D1E70220CFE70320CDE710B5064C6B
:101ED800034601440020994200D110BD13F8012B9C
:101EE8004240A05CF7E700BF5044030830B5002229
:101EF800044601238B4201D3002030BD14F8015F52
:101F080015B99D1A85541A460133DBB2F2E730B58C
:101F180002780025044605701046884200D202B9AE
:101F280030BD225C25548318D8B2F6E738B50B4D7E
:101F38002B681F2B04DD6120FFF712FA012038BD42
:101F4800F82901D96220F7E70C2404FB0354013374
:101F58002071C4E902122B600020F0E76C09002010
:101F680008B5064A00217620FFF7E0FFBDE80840E3
:101F7800034A00217720FFF7D9BF00BFF71F0008E9
:101F880011200008F0B50C46C1B04AB300238DF803
:101F980006108DF804308DF8050001AE0DF106012C
:101FA8009C421FDCA11CC9B20DF10500FFF78EFF92
:101FB80004F580736B44271D03F8F90C07F580734B
:101FC8006B44611D0025C9B2304603F8FC5CFFF77D
:101FD8008DFF16F8010B0135FFF7C2F9AF42F8DAA9
:101FE80041B0F0BDD05C01F8010F0133D8E707B567
:101FF80003230DF10702012172208DF80730FFF746
:10200800C1FF002003B000BD30B50C48017889B08D
:1020180000220C24D3B28B4206DB6A467220FFF7FB
:10202800B1FF002009B030BD03F1200504FB030314
:102038006D441B7905F8203C0132EBE76C09002060
:102048002DE9F043C1B001AD0024A846FFF770F9AF
:10205800287058B905208DF803000DF103020121FD
:102068006520FFF78FFF41B0BDE8F0830134042CF1
:1020780005F10105EAD121464046FFF748FF294D01
:102088009DF805102A68074600230C20DEB2964208
:1020980002DB08D10120DEE700FB065C01339CF877
:1020A80004C08C45F2D19DF807300533BB4208DAED
:1020B8000420D0E7FFF73CF908F804000028C9D04D
:1020C80001349DF807300433A342F3DAFFF730F9FF
:1020D80004F580730DEB030909F8FC0C0028E7D11F
:1020E800C7F101012144C9B208EB0700FFF70FFF50
:1020F800A11EC9B20DF10500FFF7E8FE19F8FD3C75
:1021080083420CD10C2303FB06559DF80720EC688D
:102118009DF806109DF8050002ABA0479BE702203A
:1021280099E700BF6C090020002103E00B4B5B58C6
:10213800435004310A480B4B42189A42F6D30A4AD4
:1021480002E0002313600432084B9A42F9D3AFF33C
:10215800008000F0A3FBFEF7B3FEFEE77C45030812
:10216800000000205400002054000020440C0020EF
:10217800FEE7000038B5054600F054FA0446284644
:1021880000F09AF848B10D492846FEF7C3FA30B96D
:102198000B492846FEF7A0FA48B9204638BD00F09A
:1021A80077FB4FF0FF4422230360204638BD00F040
:1021B8006FFB222300240360EFE700BF1772B142D0
:1021C800B5F1CFC230B520F00042B2F1FF4F83B075
:1021D80001460CD3344B002818681B681C4639DBB1
:1021E800FEF790F92146FDF7D1FF03B030BDDFF8C7
:1021F800BCC062450DD92C492D4A01900868116868
:10220800FDF7C2FF019B002BB8BF00F1004003B0EF
:1022180030BDB2F1105F24D3B2F17E5F019029D3B3
:1022280000F02AFB234A1168FEF7B8F800F04CF8D2
:10223800204A01461C48046815681068FDF7A6FF87
:1022480001462846FEF75EF901462046FDF79CFF49
:10225800019BD8E7FEF756F92146FDF795FF03B035
:1022680030BD114B01901868FDF790FF0199FEF7FA
:1022780095F8BAE70F4A13681C4600F0FDFA0146C4
:1022880004F10040FEF78AF800F01EF8094A0146FA
:10229800106801F10044FDF779FF01462046FEF77A
:1022A80031F9019BAFE700BF58450308FFFFAF4175
:1022B800504503085445030820F00040B0F1FF4F93
:1022C8002CBF0020012070472DE9F041AE4D20F0D1
:1022D8000042AA4282B0044600F0004636D9B2F164
:1022E800FF4F00F2BA8000F02781002E40F0BB803B
:1022F800A6498A4200F24281A549FEF74FF80146F5
:102308004FF07C50FDF742FFFEF70EFA0646FDF748
:10231800F1FFA0490746FEF741F801462046FDF7C0
:1023280033FF9D4905463846FEF738F803461946F7
:1023380028460093FDF728FF014604462846FDF786
:1023480023FF0099FDF720FF804607E093498A4262
:1023580076D8B2F14C5FC0F0BB8000264FF07C51BC
:102368002046FEF71BF8014600902046FEF716F8B7
:102378008B490546FEF712F88A49FDF707FF2946FB
:10238800FEF70CF88849FDF7FFFE2946FEF706F828
:102398008649FDF7FBFE2946FEF700F88449FDF75C
:1023A800F3FE2946FDF7FAFF4FF07E51FDF7EEFEEA
:1023B800014601900098FDF7F1FF01467D48FDF7C1
:1023C800E3FE014600900198FDF7DEFE00990746FE
:1023D8002046FDF7E3FF01467748FDF7D5FE0146A5
:1023E8003846FEF78FF82946FDF7D8FF002E61D052
:1023F8004146FDF7C9FE2146FDF7D0FF4146FDF7EE
:10240800C3FE2946FDF7C0FE731C054600F0878011
:10241800012E6AD0731C392B4FEAC6553CD8162EAC
:1024280000F38E804FF0807333412146C3F17E5410
:10243800FDF7AAFE01462046FDF7A6FE28440FE058
:102448005E498A421FD85349002E62D0FDF79EFE8E
:102458004FF0FF365A4B054669E70146FDF796FEF1
:1024680002B0BDE8F0815749FDF790FE0021FEF764
:1024780033F9002862D146492046FDF78FFF01460F
:102488004FF03F403EE74249FDF788FF0146002EE6
:1024980071D04FF03F4035E72146FDF775FE014604
:1024A8004FF07E50FDF770FE4FF07E512844FDF747
:1024B8006BFED5E701462046FDF770FF2946FDF77C
:1024C80063FE01462046FDF75FFE02B0BDE8F081DD
:1024D8003D49FDF75BFE0146FDF756FE01462046E5
:1024E800FDF752FE02B0BDE8F08138492046FEF7FC
:1024F800F3F8002833D04FF07C512046FDF746FE14
:1025080001462846FDF740FE4FF04041FDF746FFE3
:10251800A6E7FDF739FE01261F4B054607E70146EA
:102528002046FDF731FE4FF07C51FDF737FF4FF0A5
:102538007C51FDF729FE93E7002E91D024488FE7C0
:10254800C6F17F01C905FDF721FE01462046FDF7CA
:102558001BFE4FF07E51FDF719FE284480E72946FF
:102568002046FDF711FE0146FDF710FE4FF07E51A3
:10257800FDF70CFE74E74FF07C50C3E6304602B01E
:10258800BDE8F04100F04AB843B895411772B1422E
:102598003BAAB83F8071313FD1F717371872B13E67
:1025A800BBED57B4547E8636CD70A638010DD03AAF
:1025B8008988083D000040400000C0409115853FD3
:1025C800D1F717B76042A20DCAF24971000080BE68
:1025D800000080BF10B582B00446019100F058F9A0
:1025E800019903462046196002B010BD08B540B1F4
:1025F80001F10040FDF7D2FEBDE808402221FFF7B7
:10260800E9BF0846FDF7CAFEBDE808402221FFF7EA
:10261800E1BF00BF4FF08051FFF7E8BF4FF0E04146
:10262800FFF7E4BF2DE9F04320F00042B2F1FF4F7D
:1026380083B004466DD84FEAD07500F0CB807E4950
:10264800884200F3B7800028C0F2BA807B4B9A42D8
:1026580065D97B4B9A4200F2CC807A4B204653F8DE
:102668002510FDF791FD784A52F8252085F00103E1
:10267800904607465E1B41463846FDF785FD0146F4
:102688000446FDF78BFE71490546FDF787FE704944
:10269800FDF77AFD2946FDF781FE6E49FDF776FDC7
:1026A8002946FDF77BFE6C49FDF76EFD2946FDF7CF
:1026B80075FE6A49FDF76AFD2946FDF76FFE01467A
:1026C8002046FDF761FD014620460D460191FDF7C4
:1026D80065FE01998146002E53D04FF08040FDF7EA
:1026E80053FD01464846FDF70DFF01464046FDF7FC
:1026F8004BFD3946FDF748FD01464FF07E50FDF78A
:1027080043FD16F17D0F69DB00EBC65003B0BDE851
:10271800F0830146FDF73AFD03B0BDE8F083B2F15E
:10272800505F09D24E492046FDF730FD4FF07E51EB
:10273800FDF7F0FF002879D121462046FDF72EFE4F
:1027480042490546FDF72AFE4149FDF71DFD294688
:10275800FDF724FE3F49FDF719FD2946FDF71EFE4A
:102768003D49FDF711FD2946FDF718FE3B49FDF7E8
:102778000DFD2946FDF712FE01462046FDF704FD32
:10278800054629462046FDF709FE4FF080410646DA
:102798002846FDF7F9FC01463046FDF7B3FE214611
:1027A800FDF7F2FC01464FF07E50FDF7EDFC03B05B
:1027B800BDE8F083002003B0BDE8F043FFF72EBF6B
:1027C800284B9A427FF642AF002003B0BDE8F043A1
:1027D800FFF720BF002D9FD000209DE706F164037E
:1027E8004FF0586100EBC350FDF7D8FD03B0BDE8CA
:1027F800F0831D492046FDF7D1FD1C4B53F82510E9
:10280800FDF7C4FCFDF790FF0646FDF773FD184978
:102818000546FDF7C3FD01462046FDF7B5FC154901
:1028280007462846FDF7BAFD804624E74FF07E515B
:102838002046FDF7ABFC6FE71772B1421872B13E44
:102848009115853F644503085C4503084CBB31334B
:102858000EEADD3555B38A38610B363BABAA2A3E02
:10286800CAF24971B5F1CF423BAAB83F6C4503089B
:102878008071313FD1F7173720F00040704700BF13
:1028880002440346934200D1704703F8011BF9E75D
:10289800014B1868704700BF0400002070B50D4B4D
:1028A8000D4C00261D1BB6EBA50F09D100F028F82A
:1028B8000A4C0B4B00261D1BB6EBA50F05D170BDAE
:1028C80054F8043B98470136EDE754F8043B984721
:1028D8000136F1E774450308744503087445030895
:1028E800784503080A44914200F1FF3300D170474C
:1028F80010B511F8014B03F8014F9142F9D110BD01
:10290800F8B500BFF8BC08BC9E467047F8B500BFD4
:08291800F8BC08BC9E467047A4
:102920000000000000000000CDC14DBE9299C3BD63
:102930008303AC3D1CF56EBD5433B23C4C049E3D4C
:10294000EC0000BE8818A83D2DA5153EF3E74EBD4E
:10295000EECD73BE06CF8A3E8F0073BEDAE84EBE60
:10296000699CD43E1EAA39BF21A75B3E252500BF26
:102970008C5EBF3EED54013F98B0893EAA8A8DBE61
:1029800083BFF4BE23CA353EC8629D3E68BD8BBE80
:10299000EE294CBF53F2373E41AFA4BEA21DCDBEBF
:1029A00085B8F1BE6B8888BE8EAA113ED1C73BBFE9
:1029B00053A5DA3DC4B61DBE6F1C9E3E704408BFD1
:1029C000A4AE82BE2D5342BEAE0D9C3E6BF7873E39
:1029D000FDA062BF03A68ABE3B0F96BE1F2F5BBE43
:1029E000C9A1D23E35D4123E13F0793E44BED23C4A
:1029F0008D0680BFF11386BE7A37AD3CC44794BEC6
:102A0000720A873D10EF80BEC292AA3E627E8BBCE6
:102A1000D6382BBF0D77113E3B7277BFC053CF3DE9
:102A20007F17CA3DD69DCABEE014B13E609839BF3B
:102A3000CB3608BF0A17D13D62D6053FF6F5663E94
:102A4000FA74BF3E32A8CA3D2C55173EF1ED91BE37
:102A50001B4F803D6ECFEA3E48E446BEEC6DB43C71
:102A6000A61E7F3EE0019B3E6093843D4609EF3EFB
:102A7000A63E30BE0AA13D3E7D97113D6810E4BEE2
:102A8000A0B0763EEE5130BEDCB2D7BEF10665BDD9
:102A900002CF073E3D21033E529668BE15DA70BF55
:102AA0004500CDBE6AF695BE5313B2BD374CA23D6C
:102AB0009C9B13BE4D3B24BFAF97033EB52DCB3E31
:102AC000740329BF56B70F3F8174093FE894AE3EA7
:102AD00052430E3E8FE5293ECC2842BF2FADC4BEE7
:102AE0001A73C9BE4DD46CBF2E7135BF9154AFBEA1
:102AF0000883D8BE8759763F4515113F28AED93E89
:102B00001D63C1BE1969B2BE8E03D83E56C6B33D21
:102B10001CD7BE3E089908BD2C45E33EAB28703E4D
:102B2000FF09233F733F28BE111308BF985CCD3DBA
:102B3000B454A4BE3523BD3E3242EE3DE025633F92
:102B400017D78B3D96BCC4BE3D0366BEAD8A0D3F14
:102B50004E3C4EBF2D29E73E54621B3E909200BF73
:102B6000D96BCA3E4835D33B68E420BFB8EF5E3C22
:102B700017F025BDEA29B43C617D24BE226F0ABF4F
:102B8000B7093FBE9BAF9EBEA686EABEFDC7D73D36
:102B90009AF1ADBD423A27BE4D5DDE3CFFA4493EF1
:102BA000C262403F05B192BEF38754BEB34B043FAF
:102BB00036A03ABE191570BEC23743BEBC635E3E36
:102BC000C4668C3E137E1BBFE2001C3E3753C43DDF
:102BD000FA576E3E0AB00F3FBB99113E4D6F583EFB
:102BE0009521E53E073F55BF37CA803E9C71613E47
:102BF000459CE4BE52AB8A3DE0F973BD17D83A3F1D
:102C0000FED970BEA33E3C3ED8F24E3E2DBC9E3E49
:102C100093F527BCC84112BF9445DE3BCEE2EE3EA1
:102C2000B0E91E3FD45759BF016757BE1A08C8BF45
:102C30001D2E10BFCA1C81BD1F92163FD00B4ABF6C
:102C4000CD6F9B3E2F823CBC2B33F43ED0BC79BF72
:102C5000BD6961BFE8616BBEBADA523EBF1DF63E88
:102C600084DC043D2A43593E9B42043FED4531BF7D
:102C7000B603AB3E315E24BEC8ED003F44AE6A3EB3
:102C80009898D13EEFE5073F2A9A06BE6D81383EFF
:102C900022C432BE8D89233E8E93853EBF22283EBC
:102CA000039D6CBE0C7297BDA52537BFC5DE563F90
:102CB0004C5F4D3E51CBEC3D0CA01CBF22A849BF40
:102CC000E95793BC8AE34A3E1074C3BE9968A33D9A
:102CD0008063273EE29988BEC6B6083FACB8313E55
:102CE000C81A85BEA170B1BEA802B3BE55A98BBEDD
:102CF000E31D9B3ED46A99BD38FA66BF4FB43EBF10
:102D00006681AF3D80D388BD818126BFA6CCDA3CE9
:102D100080BE7B3F88E2F0BE10AA713E5FBD9A3E46
:102D2000827F13BF773B50BFF91250BEEBF0053FD7
:102D300074BC41BF2E3825BF61BDD63D4DC708BF0D
:102D400038A9DDBDFC7F813EFB292B3E382A5EBEC3
:102D5000A2FB433E5AF0183FA717E5BE3570D2BE1E
:102D6000ABCA613E21C7613E5BC788BF214D173F9B
:102D70005377C5BFCCA6C3BD9E0ED7BEC69FD8BDD8
:102D80009F3CF83E0C1BD9BDD7C60F3EE625D43D6F
:102D90005DEE5CBEA295BFBE350CBEBE6D47203E4B
:102DA000FAC0F23EF4D88D3ED088DC3E070D8FBFCE
:102DB0008EDF02BE80A6453ECC9038BCD4CA9C3E75
:102DC0009AE3D3BD184C6CBEC0E6253F788F4ABF4E
:102DD000750423BEE55232BF63FDE2BE8D5FD83D70
:102DE00023587FBF556E163F22EE77BC2A1D543EF6
:102DF000FA0C0A3F6C62A93E092C503FEE22763E47
:102E00003939273D047732BF075B2DBFBCD140BEA7
:102E10007185953EC9C8FB3D6E3A9D3D4EDAA0BF17
:102E20006E61A13E6760A53EA23A53BECF4935BE52
:102E30005C3939BF2EAC963E9EE7573E8CFEB43DC2
:102E4000B8F4AD3C274F913E2987CEBFB5D3003DA6
:102E5000BD5CE63E4547603E208837BFEAB0823F12
:102E6000340E88BF8E3807BFC4CAD83EDC1685BF73
:102E7000B6C59DBD504581BF4AFF21BF0E4FB73E2D
:102E80007E4D3DBF688C983E16C980BDC8BBC1BE93
:102E9000A250E63EB69298BDB38F51BE947AB13E31
:102EA0003CF3E53ED6F847BE16640CBC8951ABBE78
:102EB00075A0A13ECF6C083EC3C9A13DC16730BE1D
:102EC000B6C99C3EB134103F05539A3E51B5D43D2E
:102ED000D712023FCED6D43CDBDACC3E1679ACBE5C
:102EE000F3147D3E1898AE3E7B776A3EB322A3BDB5
:102EF000B7D5D83E6C8D203E386E4BBFAA0F78BF39
:102F000014C78DBE9870983ED61C18BFA83453BE07
:102F100060AD8DBEF223723EFE86CC3E9554B73E28
:102F2000E1CF2EBF8D4D513F1942A8BE725CC23E0B
:102F3000F987033F76FB4F3F6BBBCBBDC56F18BF17
:102F4000ECA3AFBED2F3653E50F3A43C8F0144BF67
:102F50005E21023FB3C6883EA986D4BD770FA3BECB
:102F60004A58D2BEF6BC08BFEFF0F43E69C1153F27
:102F7000AE81AB3D71DCFCBDB6F9C43C30E7543EDC
:102F80004D413BBF4C9A90BE64F1AC3C898E143EDF
:102F90007165D7BDF360263EBA0E653EA728223F75
:102FA000327D383EFAA72EBE87236A3D701246BF97
:102FB000FA5BA3BECAF1503EBD1AB33EC741C23D43
:102FC0009DFD54BF6DC50E3F2A8D22BEBE662E3EAE
:102FD000CCF58FBF6FB822BE4F928EBFC91404BF0D
:102FE000BA2280BC2B43173DE9AA8F3DEAB79B3E2E
:102FF00048B390BFC0DE403E150940BFF8BA64BF79
:103000002D2A1FBE9539D43EDEF14BBE121F473E1E
:1030100092F36DBDC8F81C3E75CF36BFAA4904BFF8
:10302000D0538A3DF272BB3E40C2A7BE4C9F40BE09
:103030000F1B0D3F101D21BF2B43A03EA7DEDA3E24
:1030400061878F3E584DCEBED981B33D189F60BE7B
:10305000ACD313BE4E3389BF6EDA14BE6AAB85BEE5
:10306000D9A6AF3EB11C4CBD752BB1BEA8F2543EE3
:1030700096F0093F5DEB673EED94243F16BDAB3EF5
:10308000151A63BEE1C28FBF7824FE3C8147C3BEE0
:10309000D8D45D3F5866953DB4EF7E3EADFFB73E58
:1030A000287610BE7690B1BE7FECB13E4971183FD4
:1030B0001D11183D219869BF104060BF8949A73C88
:1030C0006DD89B3EF8D06EBED26A2D3F2B912ABFA1
:1030D000C8A4E1BE5DD71B3F01398CBE372ED33E5D
:1030E000263C03BF457F083F6F5026BF445005BFB5
:1030F0002BA612BE7393D2BCC358373EB338B53E2D
:10310000F043713E59F90ABF4D79B4BE3117BFBEC5
:1031100034EB22BF448ED13EED205CBE5B46853E43
:10312000B21FE2392E383BBF1B73743DB99350BFB9
:103130004AE8063FD9A6BA3E9301773E57A3533ECD
:103140006A1817BF9FC84DBE6A19CA3E5A9788BEF3
:103150006B9219BB291F26BE99D86BBE7BD3FEBECE
:10316000EB2307BFF7B9F53EFAC5AC3EDDDEF73D10
:103170006ACA36BD7230DCBE927F3DBFDD16EF3DC0
:10318000D10CA13E5F31C2BD65278DBC1452723D8A
:10319000F14080BE260ADB3E8454373E648C20BE5C
:1031A0008854B5BEF7E95C3EF62EEC3E992208BF86
:1031B000020FAA3E3AA227BD45F00C3F426BDA3E11
:1031C0003040473EB6CDA5BEB6292DBFB706DA3D85
:1031D000E89524BD6391AB3E5DCA5ABF977E913D91
:1031E0002196353EA524783EC995BA3ED106CD3EFE
:1031F000E74057BE8C3E81BFE59AB4BE928EC7BEF3
:10320000F16758BCCA5E5C3E0429BD3E7C9DA43E6D
:103210001BB406BFA18C48BF9A0488BE1C7BDBBDD3
:10322000628B14BF799CC93D135C9F3D2C2651BE17
:103230004541A13E1B73D7BE1A5D7FBF5FD96CBFEE
:1032400006645CBF6717233E07E00CBE113083BEE7
:10325000BD8EB03E143C09BF23AB573EAE98CD3B6C
:1032600095D74C3EA6FD9F3DF460363E82A906BF31
:10327000B155E6BC7DC5763EFE0717BFE6E7003DCB
:1032800032F94C3EC2C2A33D274FB63EF88F993D5E
:10329000A85A8BBF508011BF4B432FBEEBFB87BF9B
:1032A00019A592BF43CA87BD53F467BF41DCD2BEA4
:1032B000EABE2C3EEB0613BEA9421ABE0AC6763EF3
:1032C000F007A33E68EFF4BE04B51EBF5200C7BEB0
:1032D0006336993EBBDB3EBF4520463FCE7CA13DD9
:1032E00024E4053FB2ECC4BE666BCF3D5DF499BEED
:1032F00001ED123E19EAA6BF6F3491BD1A3F913E0F
:1033000022615C3E94BFADBE1D3CB63E6453A83EF8
:1033100077BCD73E7841BA3E81C2283BA45FD1BE7C
:10332000C30684BDFA3388BEB838913E861FFB3E83
:10333000542B563EE6AF113D2B1C0FBF0C3987BEF8
:103340008AD11E3F77A4BDBDE85529BF17AA0D3FFE
:10335000CCCA083E8717E83CC3AD81BBD674363D66
:103360009D35BABC18AD4E3D6B05973DC4DE143E8D
:10337000A3FB16BBD643893CDB8417BE54CA693D08
:10338000948FC03C2C3738BDCFA9A2BBC8AEA3BC1C
:103390003701B8BDFAEE81BD8C1FDD3D0CC40B3E7C
:1033A00063F85F3E6301633DC83E603E545CE1BB31
:1033B000238DDB3DA114743DE319943DF00D133DC5
:1033C0001E9E843E50DED5BD2804673E88B12ABCCF
:1033D000013407BECC142F3E8713B7BD69C01A3E17
:1033E000BCD0E4BD29B0873D5522FC3DDF66053EDB
:1033F00061164C3E28F81D3C74F713BEC06A03BD2D
:1034000003AAED3C41E9A53DB487793D9FD25ABC62
:103410002E2882BD7CF688BCBEADA83DC412DE3A23
:10342000BD6F2B3E6091473D250E92BC50B492BDBE
:103430005B1EAE3CA1B2373E5D2D1ABE8929943D7C
:10344000DFDD4ABE83AAF23D41F2E13CA49A7E3D13
:10345000B27028BDD6C96CBD3AB89ABDAC0F8FBD4D
:1034600040E7B1BC846092BDAD97933D2934A33D44
:10347000D7E75EBDFA1423BDC60669BD989C08BC9B
:1034800064F7343DA85255BDC294C2BCAF9C99BDEF
:103490002BCEA03DE7201DBD22F6F7BC4C439C3C43
:1034A000F477F0BCAB9E843D20C8E33CBE58693D38
:1034B0008EBFE6BCF05ED83B2A4430BD65BC8E3D75
:1034C00030A49BBCA0FB17BBE01E36BC42DE0E3D09
:1034D00054F38D3DD5F64CBDEF56E4BC71E8BDB953
:1034E0000EAE6CBD2DD206BE744F0F3D360335BEF9
:1034F00006089A3DF3F45D3EAEB7123E9FFC7C3D5C
:1035000097D48CBE9B9D8ABEFA8E553E3747B43EFB
:10351000227FCC3ED4CB4A3EACE9403EB2B8EB3C35
:1035200092021F3DE77C4DBDF0D180BDB099BDBB7F
:10353000DA9D0FBDC89B68BD52D07CBC2E4EBDBE6F
:10354000115603BE3755D43D1D58AFBBF24249BD9D
:10355000B90F4EBE3D5F53BECF2A27BE15590EBDD3
:10356000C377B2BE3E1250BE1F9C06BE3357F3BD9A
:103570007FE73BBD56DE2ABECA8211BE8DDF3B3ED1
:10358000F92C923EEEA6943E8DD0D23E83E1BD3D15
:10359000E15992BD6602E9BB65BF9B3D5C05CB3C32
:1035A000726BA6BD70A683BDFC64E63D51C78BBEA1
:1035B000D9E06FBE3EF3BD3CC2B48A3D49398D3E71
:1035C000BD1246BEC6C686BEBFD8B4BE87BA99BEB7
:1035D000EB01A6BE72CC5ABE9B206DBD80F634BDF9
:1035E000C73A8FBE6717DABB29B7FD3D82E5A8BD94
:1035F0000D8205BEA2A12E3D67B42B3E0DF968BC1D
:10360000AD5028BE80D4EEBD3ED5393E13AB80BD53
:10361000F02544BC3EE40A3D6DEA58BE3D4DCC3D2C
:1036200053008FBD4BEF58BB3B6EF53D2F787EBEF0
:103630002D3C32BF3F37F1BE3BFD11BFBD66DFBE43
:10364000EF0D05BF11A671BE10252DBE3E4871BEFF
:10365000DC72A6BDFB0E303DAB9DEFBBD7EBC0BD12
:10366000D9564BBE1AA1133EAC1A593E85B4F83E4A
:103670005EC3B13EDD66023EA1BF5CBEDDAF053E6E
:103680009BDEA2BD6F5695BD5674C3BDBF4F9BBE9A
:103690005C1EB6BD2F68823E5616A5BE0227D6BE5A
:1036A0003DEF26BF4F6EF8BE00B001BF508A35BE59
:1036B000D1ABD1BD5493E53CF1B633BDFFCCCFBD0A
:1036C000DE9AE0BD2F5003BDDAEE79BCD6D049BCFE
:1036D0004DE51E3E2E6E73BD13CEA3BD158EEC3D83
:1036E0007AFD9D3EA2363FBECABD6C3ED7DD823E0E
:1036F000F065C9BB242F48BEA51C423E0E7A96BC7D
:10370000D645453E5D1F74BC495A1FBEBDDC87BE11
:10371000691EDABEE429D9BE8EE876BE2CB833BE67
:10372000CC4D883C155667BB0CBF533D5957313DB6
:103730005D9187BD56179FBC74DDE13D2566C23D96
:1037400014C25B3EBD5AD33DC8660A3EDFBEE73DAC
:10375000A38A513E265002BE1FEB0E3EB37E023EB0
:1037600030F9FA3C28ADCBBEA15ECBBDBB00443ED8
:10377000E7DE86BDA395313E7E8546BECD219ABE4D
:103780003F44FBBE3432ACBE3E1B59BEAA018F3C47
:1037900097E31D3E9261263EDFCB343E08540E3E39
:1037A00056488ABC3E42023D3516DF3D38FA243D7C
:1037B0001EB15F3E2826993C0C2A223EC9DD243EDC
:1037C00054E4813B7C01CFBD5EB2F63E79795F3E29
:1037D000404AEEBAF08864BE827767BE25F3D33DD7
:1037E000CB081C3E57C2423EF5C9513D68DCD7BDEF
:1037F00005652BBE3879B9BE6C92ACBE2E93C83D20
:10380000D89D593E406FDC3E32500F3E3C23813DF7
:1038100064B0B8BD3FB0B33CC540B43DA7A56D3D55
:10382000450840BD0635353E29197CBCB12BA53D68
:103830000AE8EB3E5BFBC53E97F90B3DAA280B3E21
:10384000C20C393D6127EFBD74429ABEB4EFA5BEEC
:1038500004A2143E05CC92BEAA5371BE411188BE8B
:10386000CF70C1BE810912BF1E67A3BEB7CEE43DB3
:1038700036DF9E3EFA5EC43EB192713EB54E2F3D9C
:10388000F73A38BD0273D3BDE17B593DF5A3963DB0
:103890006E492EBE231EF63CA13453BD698C72BD09
:1038A0003327C13E4DB8443EC1FCD8BC5B77E7BD71
:1038B0009E18413D45F224BDF99821BE9E1840BE98
:1038C00083949E3C958503BFA166E1BE96C1B3BEBD
:1038D0007EB38EBE6B658BBE5A3460BD9323033EB0
:1038E0000C06913E7BAB913EE7DB173E97E4323C02
:1038F000468B2ABE830E7BBEE28814BEF6D2A2BDE2
:1039000092938DBE7A0400BE9D3C02BEB1A941BE19
:1039100064CA963E33B3E03DEF7482BDD3273EBC0C
:10392000CEB7A4BD3B5E83BCF2E6A13ED18DD53DB2
:10393000D317023CD355ACBD66132DBEB20B22BECD
:10394000416994BE2B94A7BE0243E93A7D97443E59
:10395000A154B53E96A7873E258D273EB4E094BD81
:103960001892FD3C0B4811BEC2E182BEA3DC2BBE07
:10397000448474BE545F823D52525FBE6977AFBECD
:10398000815492BDDD0183BD8CAC113DCDBF46BDE0
:10399000C926893D3C806E3B5D21813E9550343E79
:1039A000D888CE3C1528B6BD038597BE53B2A4BEB9
:1039B000F17855BE958459BED299613D8139E83E72
:1039C00066C49A3E44E8463E011FFC3D4FBCE73DBD
:1039D000ADCDC6BB7B379ABD9D0C61BED4064ABE39
:1039E0009BE2FD3D6BA2193E9FF5BCBE8A558FBE82
:1039F000AE1C65BECB63C2BE1919BFBEA54CAEBE20
:103A0000261D1C3EE0AA253DEAF35FBE090ACA3A1C
:103A100035324A3D6D4897BE6E8C89BE588CCDBDFF
:103A20007D531DBE41B6393D305CBC3BBE0C883D6C
:103A3000E5AE883E9D316D3DE447193E9EF8973EC8
:103A40007F52C53C69A9CDBD86493DBE93553DBD5C
:103A500061FC333E0C17BFBD234C89BE937B7ABEFD
:103A60003E0388BE19FC8FBE541E37BEC316C5BCAC
:103A7000762B2B3DFBA8173D216870BCD514453D26
:103A800067CCC63DFF436ABE87E6D5BE6F0845BE1C
:103A90004E791EBE5B472EBDB485163EA109A73CDC
:103AA000754FA7BD66C2D5BCE1CFFD3D927D6C3D93
:103AB000CDA4073E134E44BE2C7F4BBD9FA889BDAD
:103AC0007719C13DFEA9B93CBB9B87BE534FA5BE2C
:103AD000DE4A95BEC1F706BEE3ABF3BE0CFE6EBD7B
:103AE000CBB4C83D68ED99BC836CB1BC71180F3D77
:103AF000374F163EC9B79FBD228D853DFE4B63BD36
:103B0000A7C71A3DB960DEBD46889F3D66B8FCBDBB
:103B100073F715BE8AF572BD85F93F3EEF872B3EE0
:103B200075EA323E0543A33C75D9753DA6696CBD67
:103B300084D11D3ED056333D6B6FBEBD67D3ADBD46
:103B4000CF9518BED7EA26BE3658DBBE6EE063BE00
:103B5000E64248BD1CFD0DBE6ED0AABD7E9CB13DA7
:103B60001659663D50BC8D3E807B003E5A0B43BECD
:103B70008F4E7DBD17D038BED6AC4FBDAA4910BD03
:103B8000E53561BD38EE99BCE1CEEB3DF6846F3D85
:103B90007555013E0607D33DAC76C0BC82C9B0BDA9
:103BA000896336BC332D83BD80DC763BB6BA3D3DA0
:103BB000B0CB9DBD8000CBBED767B6BE2CD073BE48
:103BC0007FAE973DD508F03CF4EC2E3D8CAFAEBCFB
:103BD000B7D0173C9049A23E6805C23CB32C3D3E8D
:103BE000CCFA823CB7FCB43D9A985B3E7AEE74BC4A
:103BF000768CCABC41DEEFBC5B16853E000D953E5F
:103C0000463FC23DD015823DB41FA23DC1EE72BCFD
:103C1000430CD83DC93601BE6171F7BC1EC7603E7A
:103C2000AAE359BC9EDEBDBEB133C0BE9BAEF9BE99
:103C30000C58FE3D83F8573D82C5923D377158BE02
:103C400091B860BE7275F0BD6EAE98BDD1E08A3E8F
:103C5000A3E0A33A7DB52A3EED385BBDC6C789BD5A
:103C60000C65223E9C2E6A3E7860443E2BAD0B3D97
:103C7000772D903ADFD69B3DD6CE66BD5DD28E3D88
:103C8000E5F7DD3D0E1C28BE290638BE84F9DBBDF4
:103C900092E525BD6F7790BD8CF9223E7EEB98BDF5
:103CA000DD34B63D7681613EB51913BE6C8EC3BE60
:103CB000E851A3BE4B8F19BE71DB1E3C79B5223C87
:103CC000111927BE69203ABE3EC65BBD38C09CBAFA
:103CD0001CE3453E95912FBCC218933C8B1ECC3CF7
:103CE0006805A63D2F1486BD1AEADEBDC9C698BD7B
:103CF0001AD7E5BD1D0D24BE677DBFBE425650BD1F
:103D0000ECD6BABCCECFAEBB079914BE5BE0483E42
:103D1000EE7423BD85D01F3EE2B7C2BD5B7219BFF2
:103D2000772BD4BE2A3EF7BDC3DDB8BD09F59EBDD5
:103D30006C45E5BDBB87FABD86EB7FBD93BBC7BBBA
:103D40001BE9043DC4E169BD2D4099BD5F0C84BCF5
:103D50008C315CBDEACA5E3D548F3DBE082BDA3D16
:103D6000BB3605BE5DEEC2BE1389ADBE4D44CDBCB3
:103D70004255BF3CB40FC13DECC2683DDD9F873D5D
:103D80008E16D83B119B5ABE730C90BE5E1CC4BEEF
:103D9000567FD4BEA40E0EBE29E853BE1414AFBD88
:103DA000341266BD46BB3E3AFA352FBE2361CD3C88
:103DB000AFEB9CB620DFC73C2C202DBD6A47BDBCB5
:103DC000445081BD378C8FBC8174ABBCA63F65BDB0
:103DD000E49B6F3D590186BEDF7A65BE4E3B90BDC8
:103DE0004C831F3DA233ABBDEC86C8BE13C6A0BD3D
:103DF000FC33EE3D49A4463D6E045CBEDC45313DDE
:103E0000CDE296BE8803A7BED97C00BEF20CCBBD26
:103E100088215FBDE33A97BD7BAEAA3D4FAB063C20
:103E2000DB0B4F3EFB19FF3D97C2143E432F88BD6D
:103E30007860953D1A8D0C3D74F3183D6BBD483E7E
:103E4000A2BA523D032515BE1D7384BD23D3953EF2
:103E5000F0D8063D1761F0BC76618CBE6257423DDA
:103E60002ADA60BDA03149BC757601BE953184BEA9
:103E700034E4BABD039CD9BC167588BEB93109BEFD
:103E8000DFFDE83D226F2E3DEEFA733D03444EBD4B
:103E900091F72C3E161E953A2017FF3D809A85BD5E
:103EA000A47A023D20D23ABDBF85B43C2CC8693EFD
:103EB000C1127DBE3D0E7ABEA53D91BE1B3C8DBE9E
:103EC000202984BEF82D07BED109893DEC3595BD6A
:103ED00028B9D8BC8082CB3B36E69ABD51E06FBE94
:103EE000D1E152BE16E8433EF0F0C3BE393CD8BD26
:103EF0003962433DE6CABBBD1B169DBD8F7C54BCD9
:103F0000D6F5863D1621803DE90E30BD2C3C5E3D48
:103F100059737E3CB6BA2FBEBCB8363D9DECBB3D56
:103F200078A140BEE339A2BEAC65FCBDFC124C3C9E
:103F3000E05827BE737D16BE48CCE1BD6E477B3D81
:103F400080C9513C8090473A02AE5C3DC652E73D85
:103F5000C7901DBE2113E1BCDEBE97BECEC949BECF
:103F6000E8B935BEB71E9BBE653DC3BDCDCFB83DDC
:103F700038EABEBC43985FBEEF9853BDE56B1EBEEA
:103F80008A78C0BD3C37F13B7981AABD3E199EBD00
:103F9000619D37BC3EA8DCBDF4C12D3D86C7AA3E5D
:103FA000E4F8BEBCC71DD2BC16D6F0BD7E3B7CBDBE
:103FB000938AA93D0DB79DBD2008A23CEBDF4F3E83
:103FC00040EF4C3EE663BD3E5E38993E333DC93E10
:103FD00032621F3E5A69703E85AF5A3E0A47DD3E47
:103FE000FA8AFC3E5D8C563E4EF5913ED923953EB5
:103FF000131BD13E4C5B8F3E9C6EC3BA3693ECBC18
:104000005D14883D379082BC8802A23D00A0EABDC5
:10401000EB0057BD6E6683BD60E49BBDFC87A23C90
:1040200020BED9BCFCE07EBDF587993D8E874C3D16
:1040300097CF80BD02001ABE1584DB3DA8F6FB3D7C
:10404000A8CF713DE69E613EA0E8633EE4CE383ED7
:10405000357C943E71FFD43DE748F53E056CCE3E7D
:10406000729F783E0F6F173E1CA5FF3D3F21053D17
:10407000134209BDB98AC4BDF23298BB1888743C9A
:104080007209563DA4F42DBD26FD433D2FB28ABDD5
:104090001407B73C894897BDC0C60ABC34C500BDEB
:1040A0007E563C3DACB5DF3CBCF401BDE20C95BD99
:1040B0002A1EB6BCE1BE8E3D147CD73CD0AA913CF2
:1040C000E2E4A6BBE3CFD53D18EAB1BC663CA83D0F
:1040D000A75F95BDFC5952BDDCFEA7BC9EB1303D2B
:1040E00039F1833DA4CB24BD6FDEAB3DA903843DF4
:1040F0000B03A23DE4CA82BC919F65BD823509BD18
:10410000EE35513DF737993DF7D48F3D9EA56D3D76
:10411000A9526FBD10C9CA3CA288173E3F25323E46
:10412000A83FD43D5FEA883D39060A3EE96B623E0E
:104130009A4CE83DDDE3053EC30E1C3ED557413E9B
:104140009D80C93D083B153E8E7C133E04AE023C6B
:10415000FD81E1BD5222173DE5DDF13C248F743D28
:10416000ACC37FBD4615173D0CB68CBD8078A8BC8E
:10417000C04ED73CD2C37CBD8EF0BE3C3FD96ABD99
:10418000B7F785BD4E95A03D485B1F3E7AE85F3E80
:10419000612DEC3DD8DF553ED8F38A3E6B04C83D17
:1041A00037F8253E9301943E839BAF3E96949D3E07
:1041B0007235993E097E0F3E886812BCA62E3F3E9E
:1041C0001D30833E56277D3ED226DA3DB024663D23
:1041D0009E265C3DF5913DBBC0F21C3C7C6098BDC9
:1041E0005AEAA7BDAB07923D2DF5643D48C0A6BD78
:1041F0002783123C72F682BD2D46CABDBFA82CBED5
:104200003B7924BE68CE7B3DC85B9A3AEB39903D42
:10421000D9F6393D2F3E0C3C22F564BD82C2853D66
:10422000547C633CA3DA2C3D94DA9BBD72C08B3D79
:10423000656657BD0CDE03BEB6EC3DBDB35699BEF8
:104240003843843EA3BD2EBC705C7C3EE628763DA0
:104250005A987E3D35E947BD4BB533BE1723A3BE03
:10426000427D8DBD322614BEDDEDF53D87C20B3D8E
:104270008F84E93B44F1783E3709463E390BB9BD9E
:10428000F48343BEBB1290BD7C442FBD911042BE4F
:10429000AE08E8BD632AAB3C211A553C5809A03D45
:1042A000801C513DDF6A31BEBBEC16BEDA4F683D63
:1042B000B84502BE7F7DA3BD3367B6BEF8DEF63DCE
:1042C0003107863DE0DB2D3C17F67F3DC886A03CDC
:1042D00085D6BF3D022572BE3F14B5BDD6954CBEF6
:1042E000E45800BE8B1C48BEE5CDEFBD41EB8FBD51
:1042F0007871943CACF6E03D74EBA43DA4634F3D73
:1043000092DF3ABDF6BA5FBDFCE8E43D7592B1BC00
:10431000D7A180BCE09B103D47B7293E92C4AB3E7D
:1043200026E0133E0D280EBEE04673BD3F203E3E04
:1043300050F9323C580303BD442BA43E06782D3E71
:104340002980323EB3AC31BEB26B0CBEB88C49BED4
:104350005CE8ECBD9727CBBE11B680BEBC10313DEA
:104360003241C83DF566873DD7AF263D3F12D3BBEE
:10437000014F91BDE4EA58BDDFCAA1BDE56F36BE6D
:10438000EA7D67BE13A0863C8D8E263EC7F893BBA0
:10439000D19D4DBC13CE04BE81B41D3E74D30DBD62
:1043A0003EF4593D7C1F71BE6F15953EFC0DF03DEE
:1043B00090CF213E64248ABE54DE96BD8ECE763BDD
:1043C0002C1921BEA49AC3BE797580BED1EC913D53
:1043D0008F63753ED730913D9070653E3B61F6BD71
:1043E00015D7993D6EBEB03D146165BD23BB6CBE53
:1043F000BB27B8BD182E12BD24F6B4BCE6E79FBD9E
:10440000CC558FBDAC89BCBC9679813EEDAB2F3EBF
:104410005B4795BD0C1422BEB49A853C080D0CBEBA
:10442000C30F36BEA89784BE0A992D3D403809BDFA
:104430003BC36ABE0FC183BE94FE6BBEB0CC0B3DC6
:104440003655453E2249723E9D01773E4963033D04
:10445000A9A618BE99AD63BCA97D13BEAB5DF4BD22
:10446000D8D7053D77C577BEFC961FBDFEFD4B3DF9
:104470000521A7BCB2C9043E23893ABE1A188CBDD7
:10448000A27E423DC314D3BDBD54AF3C4E85EFBDAB
:10449000D6153CBDB41901BC19528CBD66405A3EBC
:1044A00022FE59BEB7F88BBE37986EBBB5FB953D63
:1044B00073E4693EDA433F3E048E363DAA22F83C5F
:1044C000DFCA2BBD4F9A383CE0B3BFBD873EEBBD82
:1044D0006B121CBEE30339BEF652F7BD1FE007BEE8
:1044E0000368A13CAB1561BED2B872BE58FE9CBE3B
:1044F00008C1373CF6BF373EA6BC513C02A0643E23
:1045000036E1B13C7FCBD73D0DC3673EF0E7233E9C
:1045100037E5E3BDC76E6DBE360536BE330233BC2C
:10452000F4AB7C3E341B503E7CB5463E3E46003EDE
:104530003F3E833DF2E8303EE0941FBE3BCA0ABED8
:104540001CB9AF3D16178DBD6BD632BD90E674BD5C
:104550002D0F6E3DD4E45EBEDE7376BD9F7365BEE7
:1045600050E14FBCE5BBB23D775CBF3B64BB0C3D4B
:10457000177108BE4CA3AC3AC663103EB80F853D18
:104580007B2F4ABCFAC44BBE555B3F3B171628BD78
:10459000A91F523DDBCEFCBC1D30823C2D4FD6BD49
:1045A0002559F8BD0919883DD906A1BDC6EB133EB2
:1045B00091432CBDCEE71ABDA70BDDBBFF312FBD4C
:1045C0004DE875BE2FCA1CBE812459BE2F3410BEC3
:1045D0007EAD583D43D1E23DBE634C3EA9C4ADBE65
:1045E0002AAE19BDD3F704BCB8F80D3D013194BD16
:1045F00065CC40BBB2C74CBEEB4DF53C5453CEBC72
:104600001A4A933AEB7724BC2E80063A906C81BE0E
:104610003D168EBD1ADC9E3C664FA8BD3B00A5BA78
:10462000C1B7E6BDEB96EB3CB4ED383E5707FDBD98
:1046300039BAE6BC837422BE0F5AAEBCCAB90E3E6C
:10464000F902A33E4D6E313E8E693FBDC97C0EBE60
:10465000DBABEEBDEF07B3BDADE4A7BB414BBB3D4C
:10466000ADD5D13D08327D3B22DF80BD22C4F5BDF2
:10467000251AA53D9F86C43CE92490BD26C935BEB8
:10468000D29EB7BD08DB5BBD20A61BBE2D874CBEEE
:10469000557340BEF98432BDEE89C33DA14B12BBB8
:1046A000EB04363A8BA804BE8CC1693E988F853ED8
:1046B000D389153E4FD8BD3D91EFCBBCFB2A903E30
:1046C000F95A19BE5D9C013CCDF8703C918E833E39
:1046D00048EA5C3E9D07363EEAF51BBD4BFECFBD6A
:1046E000BAD0B63D7953C63DC48D18BDE530FBBD8B
:1046F0004E8A08BED29312BEA1F2CFBD54253BBE56
:104700005A0D09BDAF5CD2BD6BE9A53D2548523DB0
:10471000CDE78D3E23A37A3E5B87833E33AB4C3E91
:10472000C418723DE87127BE5507D83DC2215C3ED2
:104730002AA36FBDD751BE3CD72923BE3EB2533DFD
:1047400078C9EB3DBC263A3E36DDA73D3838643D9E
:10475000E669243E8681163E7BE654BE09502DBE96
:104760000D6804BB94FAEABDEAC4EABDADDA10BE36
:1047700083DF0DBEAC91013D46C3DD3CCD6D353CC4
:1047800059F0453EEB8FF43E822E6F3ED74E703D82
:104790000F16843D18D221BEB67FAD3C4899233E0A
:1047A00096C3303D766003BC8074F9BD2D49BCBC16
:1047B000C9EC023E2801793CB3B6923D3BB17F3E45
:1047C000D92C173EA7C442BDDF600CBD75E0F4BC18
:1047D0004D3CD73DB8E55D3DBF723ABD1A84F53D0D
:1047E000D77CFC3C69957E3E2A42E83D2688223EE5
:1047F000DF100D3E68532A3FE689EB3EA09A983EB3
:10480000291308BD64E19DBD0478A53C15DF4EBBAE
:104810003CE6E43D3AD75FBD966D91BD2521BDBD17
:10482000C25A02BB7F255E3B06D94C3EF22A423E6D
:104830005D67753D8AC0433DE67BB13C09E90A3EB0
:1048400083E9C23DC942643DE703EE3D2BB90E3E0C
:10485000B0B9CB3B10986B3E74D5493ED54C30BDBA
:1048600046BA1D3EDC41873E4F47CD3C4EC7FD3E1C
:10487000B90439BDD99C903C42C139BED0ED813BD1
:104880006C35153D6367103D6CDA97BD4DCAAEBD02
:10489000E86492BD7AF42C3E62E2A43DC6A1FD3DDF
:1048A000D564C93DE6EEFDBCD88FE13D244D0E3EFA
:1048B00086BFC43D6FD8943D55396D3EFAEE4C3DF0
:1048C000F86E27BDE7B0613D9AF0003E485E0B3EB2
:1048D000578FB53EEC54C03E8E74BDBE51FEC53EF2
:1048E0007A97413DCBC8D1BBCBBAEABD58F5293C3C
:1048F000C1341F3E2782EA3C24F7033CE7E1F73D41
:104900000C31BE3D78952D3ED658F63D8781983DB9
:104910006F350C3EDF7A613D35E8803E5551A23E51
:104920005D05313E87F8853D0D6CB63DBF7FC23DCC
:10493000612A9D3D22A2B93D74071A3E920C073EA2
:104940005A042FBD6EA7E53EF9ECC33E1E609B3EA8
:10495000C032AC3C53301EBE7B107F3EB515843E4A
:1049600057637A3E468D69BC36378C3DD703903B02
:10497000436A423EA85D513EB1C61A3E6EF8363ECD
:1049800061356F3E4B1B403D6EA46D3E3A50503E2C
:1049900057ED973EECAF663E04A0B73EEF15873E5D
:1049A0008D1C803DDEB1323E73C6363E97A3B03DCE
:1049B000EE6E713CF613C43EFAF6C73E7C79083DB4
:1049C0005A2DEF3D22CD893D9E7E0D3EBF8E253E68
:1049D000F3A12E3E3C69FD3C6A2FFFBCA917DC3CCD
:1049E000A8E5123E3580013E08F10C3EDA81EA3C32
:1049F000CC492C3E52BFD13D7D061B3EC291F13DBC
:104A0000DD29553EA5B5B53D1383C53D16AA7D3DAF
:104A1000BD9F793DE040913D692C433E7BB8153EFA
:104A20006A6B923DDF67DA3E18FDEA3E4FC7783D7C
:104A3000B335423D6C8422BD4EC6F1BC4A3B263E96
:104A4000119DF5BD792CE23CE375B43D29B6053ED8
:104A5000FAF0F33D80D8A43D11CEA7BCC1D5CA3D24
:104A6000CEBE2ABDC1C79FBD750B36BEF4F4CBBD0B
:104A7000099B9CBD39419ABC0A69413D1EF2163D15
:104A800039D7B5BDB18A4ABDB6C5ABBCF7DD133D5C
:104A9000A57228BEABE1033D9619D53E56EA7A3D94
:104AA000287532BDEC1C80BC4A3A0F3E8876893EA0
:104AB00090E0ACBDC5343FBD4121253EA7E486BC96
:104AC0002C62823E7343193DEA7D043E8A4C2E3CA3
:104AD000B46E90BD691547BE7EBD8EBE65B064BE26
:104AE0003DEA01BE8D0429BEF345F83C007684BD45
:104AF000A27288BEF60B85BEB7BA47BE8AEAC23C30
:104B00002707FDBDCB9C013E8FBE643ED835263DB8
:104B1000C08110BB00A281BCA2E1593C4DA6683DFA
:104B2000B1CF92BD4A07FFBD6E7925BEA7063CBD39
:104B30000F5421BED00ED03DF7B2C4BDF1AB30BE94
:104B4000927F6FBEF68BC2BEA701C1BE5A6F96BEE2
:104B5000AC0EE8BECAFE90BE096D01BE4958DCBC71
:104B60003FA779BEDEFDCDBE5F30E2BE00D289BE7A
:104B70009E6E733E32F82E3EE3833B3E484C8DBC26
:104B8000ABB0A33DC1BF83BDD4A4663D7BB530BEF1
:104B90003D9BAFBE036FF8BE9DEDDBBD5F9BAEBE20
:104BA000E4FC1ABFDBAE09BF474721BFA54302BFE4
:104BB000DC2E48BFBEB44FBF949F39BF109166BE74
:104BC0005BE3E6BE3A3A36BF4F12D1BE862252BEF2
:104BD00008D27ABE758BF5BEC787BDBEE85DED3CD9
:104BE00040E53F3E0E6F273DFF45D53DD45F9FBC5E
:104BF0002810903CD6ED493DEDB338BDBDCD683EA3
:104C00007AC94A3EF894843EAE30773D03C3C5BEB0
:104C10002214DFBE15E8E4BE4AD8B2BEAF0E443E51
:104C2000E77E353D8D838E3D9BC54E3E9D52C43EF5
:104C3000EFB9BF3CEC6BEABDBDC357BE0BF7BCBEC2
:104C40000212B7BE87C266BEB5DF1ABEAAAC39BEB5
:104C50002DE1A3BD50FF573C80EC4BBAB3B57ABDF4
:104C6000B497D63CA28901BD3165A63D963C703D06
:104C70008CFABFBB2BB695BD5BC6413D16C28D3CC1
:104C800074D453BC4D43BDBDEEC68ABE99E091BEFF
:104C900069DEB0BD3181603DE471193DD2618C3E69
:104CA00091812B3EF584C9BDE2D864BEB07A04BEC2
:104CB00091F26E3C236101BEF97316BD2F87BBBD17
:104CC000584EF43CA28E503DEBFA6FBDBD94A63D0C
:104CD00098D690BDA8F3133D647DA2BD9EBC263D31
:104CE000695350BD205B143CF1D0973DADA221BD6E
:104CF000A27C7EBDC1E95BBD93CC923DFFD502BDD8
:104D0000AB83A43B0940DB3BADF84FBD95FF29BD0C
:104D100088AB3FBCDC56CA3CEA9117BDF72993BD6E
:104D2000D80942BC5AD82F3DA67381BD9C7D863CD4
:104D3000F85AEF3CC93FAA3D1F5195BDA486833C5C
:104D40003CCCAF3C1C1DB0BCCD93873D2018183C1B
:104D5000533798BDC992803D0B9DFC3DFD91F93DB7
:104D6000457C66BD8BF9933C3265EDBD15F8F7BD0A
:104D70006DD343BE2E746BBD19E211BE59E16C3C7C
:104D8000E581473EFDFB003E30993DBE2BB186BE1E
:104D9000F9BB8ABEFE887ABED821E2BD8F8F2F3E36
:104DA000845E843C9A51323D309AAABDE7FB8FBDA8
:104DB000961C673D14ECD03CC3C0453DEC21C93D79
:104DC000077D2BBD543830BE461805BEB6380E3DA3
:104DD00017A5C23DB11F423E8F8E3D3E3C501A3E4C
:104DE000BC31683DECF76DBEA8A918BD98158CBD07
:104DF000A72947BE970A3CBE45C27DBECA5FA7BE73
:104E0000EA9024BEFFAFC0BCDF2F25BE71BFF43DCA
:104E1000A11C2B3E735BF33DE592953D4A1C22BDE0
:104E2000A0D088BB6EB9013DD16795BDA649963C1F
:104E3000F6D8EBBD6A23EB3C9F4BB6BD9F5BE13DD3
:104E40007F6C9A3EC323B73D0063CABC20C7933D25
:104E50004F09EB3D7F4C613DFCCFA8BC1A630D3D73
:104E60002B2C233CA45DB5BD9BBB14BE0EBF9FBEC7
:104E7000C5DA1ABEB4C1D4BD635921BE3AD52CBE21
:104E800098EEA5BC450B4B3DE27B1B3C42526EBDF0
:104E90009EE55E3D74D92ABDB39E3EBD4D44893D1D
:104EA0005E4651BEC1F5F43DC7B3A5BD4B80D0BC35
:104EB0002D687D3E5D53443EC736DF3D2F57F93D9B
:104EC0006A3850BD3E9DC6BD07ADF4BD33A90BBECB
:104ED0001B2418BE999BD9BD039EDCBD648F6ABE9E
:104EE0005224A9BEAE2911BF36E3ECBEB0CB91BEB1
:104EF00067B841BE984B2DBCD39DBD3D831579BB92
:104F0000EA32693DE02345BB5370FB3DE04232BDD0
:104F1000D994443D2A4CD1BD507206BEA449C9BDA6
:104F2000862160BE0E358CBE9C6848BEBED52A3C2C
:104F30005A5B75BD94BC533C1F7E8EBDBD23933C14
:104F4000A33DB83B61032ABD2DF4BABDF82ACBBD01
:104F5000C8745FBED63AC6BEFA369ABECB387ABEA1
:104F60000128C5BC40CC1E3EA63D033E44945CBD1A
:104F7000557F18BD1F8AD63DCA19CFBDB279103EE4
:104F80006FEFB73D1B6B7BBE558845BD2B0F43BEF6
:104F9000E945BDBECE9FD8BCD3E1253D3A3BC4BD5B
:104FA0003AFC9CBDF768813D79641E3E6B3F983B9F
:104FB0008EB22F3E95D1413EC855AD3DDE845ABEDE
:104FC000C386FBBD8C3983BDDD6B22BEC75000BFDD
:104FD000137ECABEB3A029BD46062EBD8DB9213DA4
:104FE000B0499ABD0FE2B23E2ABE68BDFFCE383C42
:104FF0003E05193E227686BD6BAF983DA0ABD5BD70
:10500000C0F0B2BD519C523D4613AB3DA4972D3E1E
:1050100036FA353D583E5B3DD1D8203EAC795F3EF7
:105020004590523E852717BB06D3A1BCD630953C90
:10503000E9DFDABDBF1C2EBE45C11EBE865B0ABFBE
:10504000C94906BF92D904BD732324BE71820ABD2B
:105050001153AEBDD6B8B9BDAF553D3D48AC87BDC7
:10506000CEF0003E54C3DCBDAE7F9CBDC1A448BEA3
:1050700007F1E6BC18A7BE3D61FC893E27A24F3E62
:10508000F1F079BDBDA5A8BDC958AF3CABCC6D3D15
:10509000EF70A63D43F0B63D575E8E3DBF34113CE8
:1050A00012321BBEF1C439BE9F42F63DF12612BE3C
:1050B0008A3633BF014F9FBED3BE22BD2B6922BDAE
:1050C000646F0D3D25CC3F3BCD1F0B3E9B2B8F3D91
:1050D0008C8D96BC73DCE53D41C6AE3D9E4FC23D16
:1050E00020991A3E56CE803E1027653EB128273CB7
:1050F0006F5BE53D61868DBDDCA4263E2887683E5A
:105100009740153D0CEEB83DD09B1E3D4F2035BD60
:10511000CFDD43BD98AB7ABE9CF7393DF664E53CE4
:10512000229120BE4CE225BDD2B09D3DF943803E88
:10513000C39638BD8AB992BDA02540BEAE889F3EB9
:105140006171ADBD61A70B3E703B2B3EF6F4363E60
:10515000A7FE993D24A4093DC8F005BD24FE9EBDCF
:10516000580FC4BCA9C3AF3CB6DC343DDC1F5EBCE9
:10517000F331D33ACC4053BD7C1B12BD0E5017BC4B
:10518000307A1CBC2BAE5BBE621146BE9C853D3D99
:10519000FE755FBEC59A053E2A19383E067C9C3DC9
:1051A000DDC2ADBDA5CBB5BD31B88C3C2A03E73D12
:1051B000F21AB2BD814B563DC60D8BBD2A63ADBC04
:1051C00046CCF0BC2A0EB8BC95CDDFBD1AD0563DFA
:1051D00045F5FFBD45EADCBD8D8C85BD25408D3D87
:1051E0004B3F523CAAD3A9BC25CCAE3DC59EAF3D9A
:1051F0008C07543E193426BEEBB5E13CFE1B093E3C
:105200009A7244BE32730B3E8F9D68BEF6AAB0BC44
:10521000877E743D7BD133BEB1AFC93D49C97BBEEA
:105220009AE89F3CF52E143D96D244BED0CF8BBE5B
:105230009E5B9FBEA2F222BE8B1E34BEEBBE57BE4B
:1052400033298BBEC4418FBEA9C5DEBCF099C139DC
:10525000FAB45A3D2812CF3D5CAECF3D2003243E28
:105260002F67823D3FA4263D79A516BCA2E4313DBF
:105270008BD628BE98B4DF3D4BB6573E8497703E20
:10528000BB6D37BDB5E7DEBD6E1F3EBC0EC0AEBD0B
:10529000D95E0DBDE4B0D5BDC64595BE1DA870BE96
:1052A0001E1102BEB58553BE6F62E4BDEC8AA9BD76
:1052B000A1D190BDEB1A023EE5C7123E009DE73D2D
:1052C0008F14923DC58E2D3DF81774BD238BC23CC3
:1052D000D05A603DF987873D9D00143B5A5430BE3B
:1052E000ED2692BCB38C713EC879413E97374D3E56
:1052F000E9C9A0BD1AECD3BD45F8F7BDA745B63D39
:105300000C468F3D1F8A60BE2DB93BBE0C2B64BC82
:10531000CC873ABE175220BE66B5F2B9806020BC79
:105320005AE924BD46FEC23D8957C13DCDF7703EC6
:10533000C573B33D2BDD3D3D1F64913D056AD83CEF
:10534000DF8F6A3E2B52653D61A2F9BBACBDF0BD5B
:105350004864B7BD2790EC3D3414163F6A25333EB0
:105360003421B0BD0360DCBD0D2DFDBD7F4D753D0D
:105370008530A43D4D64903C8DAB0D3D2C3A48BE2C
:105380009A65413BBC2EF4BB6E124ABD2340E63DFC
:10539000035DA93D3AD0D43DD98E893D3DE59C3D84
:1053A0009D31373EA1EC5A3D8E494F3D6F1D143E55
:1053B000D8031A3E85C5603E31AF123E8766613D17
:1053C0009927903D2E064D3B60A22D3EEC42A23D1A
:1053D0000501A63D4555123EFEDD75BC95763BBDEB
:1053E000A3532E3EDD21C43D093FD93C7BD914BDDA
:1053F00056190BBD7434CE3C5430143E3D69243EE6
:10540000A521273E49F44A3B28C0643D18961D3D1E
:105410002634203DB658153D5D763ABD3083F3BD48
:105420002BD584BC1020C43D69F3F43D0FD2123E4D
:10543000C2D3403DE3B5E33DCE6E9D3EB824663E0B
:1054400026DD9CBD3F60413D1B57A8BD89C7143E6A
:105450003B5AFA3D1A3714BD2FDB7D3C49FBC1BCDA
:1054600010FBF83D11C89A3DCD21743DE3BB893D49
:10547000B44C073E7C46203EFD38D03CF231003C27
:10548000307B99BD763E01BD926018BD28B871BCD5
:10549000878AB2BD5B2E1B3D49E519BE81967FBD53
:1054A0008353C7BCB52EB33DFC41073DC581CF3EFC
:1054B00064F8873EB1D704BDC5C9F2BD3DEA553E8B
:1054C000A41B243E7CAF1B3D2418553D3F39B73DFE
:1054D00012D098BD656FFCBDDE7D043E0182AFBC7D
:1054E000BC99053E4CC6973DAF6FAABD8E4A583D4C
:1054F0007960093D9E7FF33DD8F0293D6ACC4EBDD1
:105500003A45DEBDE885C4BDBCEFE73C5503093E26
:1055100082A5CD3CB978DD3D106705BE3E4A943E7C
:10552000B7ADE5BD0E567FBE7FAB85BD0B63063EB6
:10553000C728463E03CE3E3D5229CBBDC705AB3DF5
:10554000852D0CBEFC892ABEEAC04A3CC9D3D2BD17
:1055500044D24F3D57BE483DD8E6B83D625A753DEE
:105560006305003D1269FB3C8AAC323C3DABFE3D1D
:105570007B51FFBDF880053DA5BB403EFD6E8F3ED3
:1055800012E6AABBF5F0F03CE2CD933ECAF7E13D4E
:10559000809A9D3BBFFD87BE036B1E3DEC077D3EA1
:1055A000B3919F3D94C5CC3D8FD810BD4803943C2A
:1055B0008FA542BEF04CDFBC98D6ABBD045B9DBD51
:1055C000113C403CF6F5513C8C86CB3C4E2184BDD1
:1055D000EFB40ABEEFC812BEB46B0BBE037A48BD6F
:1055E000C7E5C43DF60E1A3E58C9423E89C5AB3EDA
:1055F000CCD8963E820C063EBFF5CC3DE4D5CC3CE3
:105600008594B6BD50B4693E4EBC963E4F688B3E05
:1056100092D1183EDADF46BEB1F536BD75F01D3CBD
:105620008AED93BDAED2563B57B2DF3D70138EBCB0
:10563000C319AFBD5BB740BD5F39453DAB7621BEF9
:10564000795AC9BD46432FBEA5918CBD8874533D80
:105650000EE96C3D15F8863D28A75A3DA708AC3DDC
:10566000D354533EDABA2EBEDD0F84BEAB474ABDDB
:105670003DF6013D3124C93D07A27D3EF2BEF4BD99
:105680003B65073D71F15C3DB8B76DBDDE5F76BD32
:10569000CD6110BDE5CC17BE9892BC3D45B57C3CB4
:1056A0002A9499BDB302743DFDCD59BD301ADBBCBF
:1056B000BE8D2CBE422E55BEBAA50ABEDD2C76BDCF
:1056C0001FE5753D7424E03DB7D4B5BBB3FD4CBCBC
:1056D0006A4E0B3EC3CF87BBDA4241BE30DCAEBD63
:1056E000CE4C593DBD1996BD04CB593D0A99C9BD53
:1056F000C34486BEED670EBE83147BBE574E5CBDB1
:10570000FBA3DEBD89F308BE4AEC6BBDEC5E1B3E1D
:105710000D10723B92605B3DB72DF5BD45E32ABD90
:10572000964A35BECE7FFFBD1B3D553CBC1D663D38
:1057300093C0F93B26482DBD7D2E1F3EA6C0C3BC9D
:1057400095217E3E3C4344BED509ECBDB4BB80BC34
:105750007ED5293D74D6BBBC28B521BEDB48F73DBC
:105760007CD4A33E0CF860BEA3295EBEFB7735BE99
:10577000E0F0403D4456823CDEEAC4BC3AA6F03B31
:105780002EB394BC6AF3823DFF1DAA3D0AA788BDD3
:105790001DE4E4BC8529153C0012D4BD39602EBD42
:1057A00080C7C43D5A1D363EACF11C3EC470513E0C
:1057B000A4679F3DD79C533E0D20103E80B3FB3A1B
:1057C00000F03B39E730993D64953C3E6EF695BE5E
:1057D000C42E05BE25ECDF3DD0D8893CF1F0953DC7
:1057E000F3B836BD33A125BD9D1085BBFDB6073E80
:1057F00097D1413EF265013E9564A53D890118BEF1
:10580000D65A1DB9E5F9DB3D776E9FBD7BD3143EBB
:10581000005FA03E7131DA3D000D39BEA2A733BE54
:10582000A19040BE1230343E579A58BC1E588DBDD0
:10583000AA1F2A3D927BC9BC007F473C53980B3E70
:105840004F023D3D845CB73EBFA15E3E2F318D3E91
:10585000B95F7D3D8239163B1B1F2A3EBFD91D3ED5
:10586000625CAC3D29076BBC3374243E8E20D53D71
:10587000DBF4353C8C7A013E912590BCBAE1113EB7
:10588000D61DBE3E5E749E3E642F693D32F0753E6D
:10589000799D9B3E64DD5FBD6294413D963950BD6C
:1058A000DCFFF2BCD2CB63BD2A87333DC80489BD7F
:1058B000A677E7BD0F6E45BEAD5BAD3DE9324B3E11
:1058C00039C6CB3D1F8C5D3EB4C41B3EDFBF713D6E
:1058D0006D780C3E0837803D1794953EDB5109BE2C
:1058E000E2B70FBD2350F83D230DA53EA24C4A3E22
:1058F0003ED9923C1D1A0C3E7D14053E2C3049BE0B
:10590000E2E94B3DE0FDE1BB1ACC68BD4872CA3C00
:105910008AA65D3D6FA52EBD4E7BC0BCC94D983D8E
:1059200084787CBD0696C2BC109A7CBDEE76413D63
:10593000ABBD863D76B8F4BC5DC487BDEFAEA2BDFD
:10594000DF3AEC3B7D630DBDBAD9C3BDCF450DBD7C
:1059500099DA83BD0077B73ADBFDAA3D701792BB99
:10596000E8BF6EBC80D6D13ACC5D7DBD85D4963D76
:105970003C0A973C9A6170BDB79F8BBD80FC7C3B15
:10598000F50566BD7EC9303DE7EDA5BD40AC79BCEF
:10599000E4CB913D8210713DE220003DD012933C5A
:1059A0006F33A6BDC570C23C8FA616BEE64913BEB6
:1059B000DE6A5FBDA3089BBBA1546B3E98B26C3EF0
:1059C000285F5DBDBCF7303CDC426ABEF85508BEBE
:1059D000FA0E0A3EC318383EC41FD63CDC651FBD14
:1059E000876C973D6E132C3D55198DBD493A873D07
:1059F000DB29ACBD10B9DABBA2B15CBD41CDD23E52
:105A0000E1FA3E3E91CFE1BD376786BEA8DE2ABEF1
:105A10006FF975BEC81FB3BE6F1CCCBE21E8B2BE05
:105A20002D765BBEBB7086BE169A0BBF0D9B6C3D80
:105A300060BD983E0A85913DF65EFABDE5E5D63D2E
:105A40008DC11BBE60DE83BEA7D9D7BD93ABA93C79
:105A5000E177B2BE48AF25BE554F40BDA2DD4D3DFA
:105A60002E586CBD443725BD1C5B443D7740C43E79
:105A700029EE493EBA65D73CF3DAFBBD3662463EB5
:105A80007AFB303EC27B6DBD801E603EF6AF383E75
:105A900011F95F3E60175ABDB6727ABDB05B123E17
:105AA00062CEB53CCCB5D9BDEF1CD0BDFFA12F3B1C
:105AB0002494D53DBC289A3DB70D373EB541F3BC83
:105AC0005A7F37BDCFE9913ECA5FAE3D13251EBD5B
