:020000040800F2
:1000000000A0002041260008892600088926000853
:1000100089260008892600088926000800000000BB
:100020000000000000000000000000008926000819
:10003000892600080000000089260008892600089B
:1000400000000000000000000000000000000000B0
:1000500000000000000000000000000000000000A0
:100060000000000000000000000000000000000090
:100070000000000000000000000000000000000080
:100080000000000000000000000000000000000070
:100090000000000000000000000000000000000060
:1000A0000000000000000000000000000000000050
:1000B0000000000000000000000000000000000040
:1000C0000000000000000000000000000000000030
:1000D0000000000000000000000000000000000020
:1000E0000000000000000000000000000000000010
:1000F0000000000000000000000000000000000000
:1001000000000000000000000000000000000000EF
:1001100000000000000000000000000000000000DF
:1001200000000000000000000000000000000000CF
:1001300000000000000000000000000000000000BF
:1001400000000000000000000000000000000000AF
:10015000000000000000000000000000000000009F
:10016000000000000000000000000000000000008F
:10017000000000000000000000000000000000007F
:08018000000000000000000077
:1001880080F0004002E000BF81F0004142001FBF44
:100198005FEA410392EA030F7FEA226C7FEA236C4D
:1001A8006AD04FEA1262D2EB1363C1BFD218414042
:1001B80048404140B8BF5B42192B88BF704710F0D8
:1001C800004F40F4000020F07F4018BF404211F07B
:1001D800004F41F4000121F07F4118BF494292EAE3
:1001E800030F3FD0A2F1010241FA03FC10EB0C000F
:1001F800C3F1200301FA03F100F0004302D549429C
:1002080060EB4000B0F5000F13D3B0F1807F06D348
:1002180040084FEA310102F10102FE2A51D2B1F140
:10022800004F40EBC25008BF20F0010040EA030035
:100238007047490040EB0000013A28BFB0F5000FB5
:10024800EDD2B0FA80FCACF1080CB2EB0C0200FA6B
:100258000CF0AABF00EBC25052421843BCBFD040BA
:100268001843704792F0000F81F4000106BF80F434
:1002780000000132013BB5E74FEA41037FEA226CF7
:1002880018BF7FEA236C21D092EA030F04D092F0C2
:10029800000F08BF0846704790EA010F1CBF0020F6
:1002A800704712F07F4F04D1400028BF40F0004053
:1002B800704712F100723CBF00F50000704700F073
:1002C800004343F0FE4040F4000070477FEA22629A
:1002D80016BF08467FEA23630146420206BF5FEA6B
:1002E800412390EA010F40F4800070474FF000036B
:1002F80004E000BF10F0004348BF40425FEA000C32
:1003080008BF704743F0964301464FF000001CE0D9
:1003180050EA010208BF70474FF000030AE000BF2F
:1003280050EA010208BF704711F0004302D540426D
:1003380061EB41015FEA010C02BF844601460020DF
:1003480043F0B64308BFA3F18053A3F50003BCFAFA
:100358008CF2083AA3EBC25310DB01FA02FC6344A7
:1003680000FA02FCC2F12002BCF1004F20FA02F2AE
:1003780043EB020008BF20F00100704702F12002A1
:1003880001FA02FCC2F1200250EA4C0021FA02F202
:1003980043EB020008BF20EADC7070474FF0FF0C07
:1003A8001CEAD0521EBF1CEAD15392EA0C0F93EA02
:1003B8000C0F6FD01A4480EA010C400218BF5FEAA4
:1003C80041211ED04FF0006343EA501043EA511117
:1003D800A0FB01310CF00040B1F5000F3EBF490011
:1003E80041EAD3715B0040EA010062F17F02FD2A15
:1003F8001DD8B3F1004F40EBC25008BF20F00100F8
:10040800704790F0000F0CF0004C08BF49024CEA0E
:10041800502040EA51207F3AC2BFD2F1FF0340EAA0
:10042800C250704740F400004FF00003013A5DDC11
:1004380012F1190FDCBF00F000407047C2F1000252
:10044800410021FA02F1C2F1200200FA02FC5FEA3F
:10045800310040F1000053EA4C0308BF20EADC7089
:10046800704792F0000F00F0004C02BF400010F4FB
:10047800000F013AF9D040EA0C0093F0000F01F0A8
:10048800004C02BF490011F4000F013BF9D041EACA
:100498000C018FE70CEAD15392EA0C0F18BF93EACC
:1004A8000C0F0AD030F0004C18BF31F0004CD8D1F6
:1004B80080EA010000F00040704790F0000F17BF7D
:1004C80090F0004F084691F0000F91F0004F14D0C3
:1004D80092EA0C0F01D142020FD193EA0C0F03D11B
:1004E8004B0218BF084608D180EA010000F000401E
:1004F80040F0FE4040F40000704740F0FE4040F4F9
:10050800400070474FF0FF0C1CEAD0521EBF1CEA97
:10051800D15392EA0C0F93EA0C0F69D0A2EB0302B5
:1005280080EA010C49024FEA402037D04FF080534F
:1005380043EA111143EA10130CF000408B4238BF14
:100548005B0042F17D024FF4000C8B4224BF5B1A22
:1005580040EA0C00B3EB510F24BFA3EB510340EA70
:100568005C00B3EB910F24BFA3EB910340EA9C001E
:10057800B3EBD10F24BFA3EBD10340EADC001B018E
:1005880018BF5FEA1C1CE0D1FD2A3FF650AF8B4232
:1005980040EBC25008BF20F0010070470CF0004C3F
:1005A8004CEA50207F32C2BFD2F1FF0340EAC2506A
:1005B800704740F400004FF00003013A37E792F02B
:1005C800000F00F0004C02BF400010F4000F013A89
:1005D800F9D040EA0C0093F0000F01F0004C02BF84
:1005E800490011F4000F013BF9D041EA0C0195E7ED
:1005F8000CEAD15392EA0C0F08D142027FF47DAF86
:1006080093EA0C0F7FF470AF084676E793EA0C0F75
:1006180004D14B023FF44CAF08466EE730F0004C73
:1006280018BF31F0004CCAD130F000427FF45CAF03
:1006380031F000437FF43CAF5FE700BF4FF0FF3C71
:1006480006E000BF4FF0010C02E000BF4FF0010CC4
:100658004DF804CD4FEA40024FEA41037FEA226C8D
:1006680018BF7FEA236C11D001B052EA530C18BFAF
:1006780090EA010F58BFB2EB030088BFC81738BF14
:100688006FEAE17018BF40F0010070477FEA226C02
:1006980002D15FEA402C05D17FEA236CE4D15FEAFE
:1006A800412CE1D05DF8040B704700BF8446084632
:1006B8006146FFE70FB5FFF7C9FF002848BF10F1F3
:1006C800000F0FBD4DF808EDFFF7F4FF0CBF012038
:1006D80000205DF808FB00BF4DF808EDFFF7EAFFC2
:1006E80034BF012000205DF808FB00BF4DF808ED7D
:1006F800FFF7E0FF94BF012000205DF808FB00BF72
:100708004DF808EDFFF7D2FF94BF012000205DF8F7
:1007180008FB00BF4DF808EDFFF7C8FF34BF012004
:1007280000205DF808FB00BF4FEA4002B2F1FE4F1F
:100738000FD34FF09E03B3EB12620DD94FEA00239B
:1007480043F0004310F0004F23FA02F018BF404274
:1007580070474FF00000704712F1610F01D142025B
:1007680005D110F0004008BF6FF0004070474FF00F
:10077800000070470348044B834202D0034B03B187
:100788001847704754000020540000200000000063
:100798000548064B1B1AD90F01EBA301491002D0DB
:1007A800034B03B118477047540000205400002041
:1007B8000000000010B5064C237843B9FFF7DAFFB4
:1007C800044B13B10448AFF300800123237010BD1C
:1007D800F00B002000000000182E000808B5054B9B
:1007E8001BB105490548AFF30080BDE80840FFF795
:1007F800CFBF00BF00000000F40B0020182E000837
:10080800074A13785178402B84BF4023137040293E
:1008180002D9402353707047994238BF117070470E
:100828000000002008B54FF444720548002102F08A
:10083800AFFA034A002382F81233A2F8103308BD36
:100848005400002010B51E4C2822002104F54570E4
:1008580002F09EFA2822002104F54F7002F098FA5F
:100868004FF48072002104F5597002F091FA4FF4A8
:100878008072002104F2644002F08AFA4FF4807218
:10088800002104F2645002F083FA4FF480720021D0
:1008980004F2646002F07CFA0A4A0023FF2184F81B
:1008A800643784F8653784F8663784F8673784F8DE
:1008B800683784F869379170D17084F86A3710BD49
:1008C80054000020000000202DE9F04F9DB02022A8
:1008D800002114A802F05CFA954B93F8692712B12D
:1008E80093F8682742B914AA2021722001F0D2FD9A
:1008F80000201DB0BDE8F08F93F8672708928D4A55
:10090800117852780A92002603F264521092CDE9C7
:10091800036603F264424FF000080E9203F2646328
:10092800FF220991CDF83480CDF83080CDF82C80A5
:10093800CDF81480029606920196B3461193109B47
:1009480053F804AB10930E9B002153F8049B0E93AD
:100958005046FFF7DFFE68B3CDF81CA0079948465C
:10096800FFF712FC00210446FFF7B6FE08B104F1B8
:10097800004471495046FFF7AFFE00B300214846D6
:10098800FFF7AAFEC8B109F100406C49FFF7C2FEA3
:1009980000282CD16A492046FFF7BCFE002840F009
:1009A800C280089B002B00F08A8007460F90024601
:1009B800034623E000230793D0E74846E5E75F496D
:1009C8005046FFF7A7FE0028E4D000214846FFF76D
:1009D80083FE50B109F100405849FFF77DFE002819
:1009E800D8D0002301221F4604E04846F4E700223D
:1009F80001231746089901B301210F91CDE912325D
:100A0800119B504653F82610FFF7BEFB0021054600
:100A1800FFF762FEDDE9123208B105F100454146F3
:100A28002846CDE91232FFF775FEDDE9123200B92A
:100A380045460F99A846002941D00BF10101C9B2DA
:100A4800BBF1FF0F18BF8B460999F5B2A9420AD826
:100A58000A99A94207D9019901980131C9B2FF2819
:100A680008BF014601913BB1029B02990133DBB2F9
:100A7800FF2908BF0B4602933AB1039B039A01333F
:100A8800DBB2FF2A08BF134603933FB1049B049AC5
:100A98000133DBB2FF2A08BF1346049305992046A9
:100AA800FFF738FE00B9059C069B0594FF2B06D17D
:100AB800079B0D93CDF83090CDF82CA00695013604
:100AC800402E7FF43CAF01238DF85030019B8DF808
:100AD8005230069B8DF85330059B15930B9B16934C
:100AE8000C9B17930D9B8DF851B0CDE91838029BDC
:100AF8008DF86830039B8DF86930049B8DF86A3057
:100B0800099B8DF86B300A9B8DF86C30094BDA78AD
:100B18009B788DF86E30064B8DF86D2093F86A3708
:100B28008DF86F30DFE600231A46012762E700BF21
:100B38005400002000000020BD3786B5BD3786353B
:100B4800ACC5273730B589B0154600212022684644
:100B58001C4602F01DF9012D00D93CB96A46202136
:100B6800722001F097FC002009B030BD6278072A96
:100B7800F4D82378032BF1D8DFE803F0020C12181D
:100B88000D4B93F8691703F264530029E6D003EB81
:100B98004212E4E7084B93F8681703F26443F4E75A
:100BA800054B93F8671703F26463EEE7024B93F87B
:100BB800661703F55973E8E7540000201FB5304B5A
:100BC80093F86B278DF8002093F86C278DF8012097
:100BD80093F86D278DF8022093F86E278DF803207F
:100BE80093F812238DF8042093F864278DF80520D4
:100BF80093F865278DF80620224A91788DF807101A
:100C0800D1788DF80810B3F810138DF80910090A77
:100C18008DF80A1093F86A178DF80B1093F874176B
:100C28008DF80C10117852788DF80E2093F86627FD
:100C38008DF80D10003A18BF01228DF80F2093F897
:100C4800671719B142F002028DF80F2093F8682750
:100C58002AB19DF80F2042F004028DF80F2093F876
:100C680069372BB19DF80F3043F008038DF80F302A
:100C78006A461021722001F00DFC002005B000BD6D
:100C88005400002000000020022A13B50F4C104821
:100C98000AD91A78022A98BF84F874275A789B7858
:100CA80002704370FFF7ACFD94F874378DF8043088
:100CB80003788DF8053001AA43788DF806300321B2
:100CC800722001F0E7FB002002B010BD54000020A4
:100CD80000000020062A07B50E4A0ED91978062901
:100CE8000BD882F86C17597882F86D179978D3F871
:100CF800033082F86E17C2F8703792F86C378DF8A7
:100D0800043001AA0121722001F0C4FB002003B0C5
:100D180000BD00BF5400002007B5094922B11B7867
:100D2800032B98BF81F86B3791F86B378DF8043037
:100D380001AA0121722001F0ADFB002003B000BD23
:100D48005400002007B5FFF76DFDFFF77BFD45F266
:100D5800AA5301AA02217220ADF8043001F09AFBCF
:100D6800002003B000BD000007B5054B019301AAA0
:100D78000421722001F08EFB002003B000BD00BFEB
:100D8800DEADBEEFF0B51F4D95F8124395F86477C8
:100D9800003C18BF01248DB044F00206002F18BF94
:100DA800344695F865778DF8042044F0040695F8E4
:100DB8006B27129D8DF80200002F18BF3446002BB8
:100DC8008DF803108DF805208DF806300FCD44F00E
:100DD8000806F6B218BF34468DF8074002AC0FC4B7
:100DE8000FCD0FC445F6A526ADF8006095E80300C1
:100DF8006A4684E803003021722001F04BFB0DB0F5
:100E0800F0BD00BF5400002070B58CB002AC0546A0
:100E18000E4628220021204601F0BAFF00943346EE
:100E2800FF2200212846FFF7ADFF0CB070BD00B5CA
:100E38008BB028220021684601F0AAFF6A462821C3
:100E4800722001F027FB0BB000BD000008B5074A6F
:100E580092F864371BB9FFF7EAFF002008BD02F5D6
:100E680045722821722001F015FBF6E75400002096
:100E780000B5A1B080220021684601F089FF6A46CA
:100E88008021722001F006FB21B000BD08B5074A99
:100E980092F867371BB9FFF7EBFF002008BD02F295
:100EA800E4628021722001F0F5FAF6E75400002090
:100EB80008B5074A92F867371BB9FFF7D9FF002032
:100EC80008BD02F264628021722001F0E3FAF6E7BD
:100ED8005400002008B5074A92F865371BB9FFF798
:100EE800C7FF002008BD02F2E4528021722001F001
:100EF800D1FAF6E75400002008B5074A92F865379A
:100F08001BB9FFF7B5FF002008BD02F2645280212B
:100F1800722001F0BFFAF6E75400002008B5074A2E
:100F280092F866371BB9FFF7A3FF002008BD02F54A
:100F380079728021722001F0ADFAF6E754000020A2
:100F480008B5074A92F866371BB9FFF791FF0020EA
:100F580008BD02F559728021722001F09BFAF6E76C
:100F68005400002008B5074A92F865371BB9FFF707
:100F78007FFF002008BD02F2E4428021722001F0C8
:100F880089FAF6E75400002008B5074A92F8653751
:100F98001BB9FFF76DFF002008BD02F264428021F3
:100FA800722001F077FAF6E75400002008B5074AE6
:100FB80092F865371BB9FFF73AFF002008BD02F524
:100FC8004F722821722001F065FAF6E754000020DC
:100FD800F7B5194E312AB6F8107309D0ADF8047078
:100FE80001AA0221722001F055FA002003B0F0BDD9
:100FF8001C7804EB44042401B4F5447F17D2C4F5EB
:101008004475ADB2302D28BF302530192C44A4B218
:10101800591C2A4601F0EEFEBC4284BF2746A6F8BA
:101028001043B7F5447F24BF012386F81233B6F87E
:101038001033ADF80430D3E75400002070B5134ED8
:10104800134B06F67815D8700FCD06F54F740FC4FC
:101058000FCD0FC495E803004FF4807284E80300B5
:1010680006F6780106F2644001F0C4FE4FF480727F
:1010780006F5EF6106F2645001F0BCFE012386F824
:10108800653786F8683786F8693770BD54000020E0
:1010980000000020F8B5084E084F051F00F63C4434
:1010A80016F8010BFFF722F93946FFF72BFA45F836
:1010B800040FA542F4D1F8BD5400002000007F437E
:1010C80000B5ADF6444D6846FFF7E4FF05496846AC
:1010D80091F86B2701F5EF6100F0EEFAC0B20DF65A
:1010E800444D00BD5400002030B5384C94F8743796
:1010F800022BADF64C4D20D100F094FB02A8FFF76F
:10110800C9FF04F5EF6102A800F00EFA94F86B1716
:1011180004F26C7204F5EF6000F083FA04F5EF60F6
:1011280000F088FA04F6781000F0B0FAC4B200F0C3
:1011380080FB20460DF64C4D30BD02A8FFF7AAFFF4
:1011480004F5EF6102A800F0EFF994F87437012B69
:101158002FD11F4DFFF754FB2B78009394F86B1792
:10116800002304F26C7204F5EF6000F009FA00F055
:1011780059FB6B7800932B7894F86B1704F26C7218
:1011880004F5EF6000F0FCF900F053FB40230093F6
:101198006B7894F86B1704F26C7204F5EF6000F04A
:1011A800EFF90C4800F046FA0B4800F06FFAC4B2A9
:1011B800BFE700F037FB94F86B1704F26C7204F584
:1011C800EF6000F02EFA00F034FBEAE7540000204C
:1011D80000000020CC070020CC09002007B5FF2321
:1011E8008DF804300A4B93F812333BB901AA012158
:1011F800722001F04FF9002003B000BDFFF774FF23
:10120800FFF71CFF034BDB788DF80430EEE700BFD7
:10121800540000200000002013B5104C94F812333D
:101228003BB994F86C170120FFF7EEFD002002B0DF
:1012380010BDFFF759FFFFF701FF94F86A17084A36
:10124800013104F54F73C9B284F86A17009394F812
:101258006C37D2780120FFF795FDE7E754000020AE
:101268000000002070B5134E134B06F678159870E1
:101278000FCD06F545740FC40FCD0FC495E80300D4
:101288004FF4807284E8030006F6780106F5597079
:1012980001F0B0FD4FF4807206F5EF6106F264606C
:1012A80001F0A8FD012386F8663786F8673786F8C7
:1012B800643770BD540000200000002013B50F4CA7
:1012C80094F8121329B90846FFF79EFD002002B0D2
:1012D80010BDFFF7F5FEFFF7C5FF94F86A17084A37
:1012E8000131C9B284F86A1704F5457400940023E3
:1012F80092781846FFF746FDE8E700BF5400002043
:101308000000002010B5094C94F812331BB9FFF700
:101318008EFD002010BDFFF7D3FEFFF7A3FF04F5F5
:1013280045722821722001F0B5F8F2E75400002038
:1013380008B500F0D7F900F013FA00F04FFAFFF7FC
:1013480071FAFFF77FFAFFF75BFA01F091F83B4A71
:1013580000217A2001F072F8394A0021632001F057
:101368006DF8384A0121612001F068F8364A0721F2
:10137800662001F063F8354A0321742001F05EF815
:10138800334A3121782001F059F8324A002162208D
:1013980001F054F8304A00216E2001F04FF82F4A2E
:1013A8000021692001F04AF82D4A0021672001F048
:1013B80045F82C4A00216F2001F040F82A4A002104
:1013C800732001F03BF8294A0021682001F036F823
:1013D800274A00216A2001F031F8264A00217120AD
:1013E80001F02CF8244A0021752001F027F8234A3F
:1013F80000216B2001F022F8214A00216C2001F025
:101408001DF8204A00216D2001F018F81E4A00211D
:10141800592001F013F81D4A0021642001F00EF84C
:101428001B4A0221572001F009F81A4A00215620C8
:1014380001F004F801F08CF8FCE700BF710D00081A
:101448004D0D0008210D0008DD0C0008910C000866
:10145800D90F00080D130008C5120008E51100088F
:1014680021120008B50F0008C50B0008910F0008ED
:101478006D0F0008490F0008250F0008010F00082C
:10148800DD0E0008B90E0008950E0008550E00087C
:101498004D0B0008D108000802291FB5034612D0D9
:1014A800032915D0012929D100F1004001F0EAF8FB
:1014B8004FF07E51FEF76AFE01464FF07E50FFF76F
:1014C80021F805B000BD05B05DF804EB01F002B9E4
:1014D800C00F01381840134A009000230193019B64
:1014E8001F2B01DD009BECE7019B009953434B4008
:1014F800009300BF019B01330193F0E702900023A2
:101508000393039B1F2B06DD02980021FFF702F9C6
:1015180028B10298D5E700BF039B0133F0E700200C
:10152800CFE700BF67458B6B2DE9F74FDFF8489091
:10153800124F82460E1F01F1FC0500F63C4359F894
:10154800044BAAF10408BB4658F8041F5BF8040BC7
:101558000193FEF723FF01462046FEF717FE019B85
:1015680098450446F0D146F8040FAE4207F54467A3
:10157800E5D103B0BDE8F08F603800086039000895
:101588002DE9F0411546069A402AA8BF402223EAD1
:10159800E374A2420E4690460BDD002BCBBF04F14C
:1015A8003F03002450F82310002100EB8407444532
:1015B80001DBBDE8F0812A7857F8043B013A052A97
:1015C80007D8DFE802F0030B101519216A78A24248
:1015D80015D031461846FFF75FFF20E06A78A2422F
:1015E800F7D100230BE06A78A242F2D10B4606E05D
:1015F800AA78A242F5DDECE7AA78A242E9DCC7F8AE
:10160800FC3001341946D2E718463146FFF744FF4B
:101618006A78A2420346F2D16968FEF7B7FD03462D
:10162800EDE707B5402300930023FFF7A9FF03B0B8
:1016380000BD00002DE9F74F00F5FE7ADFF8449071
:10164800114E074600F50973554659F8044B07F142
:10165800FC08B34658F8041F5BF8040B0193FEF727
:101668009DFE01462046FEF791FDD045019B0446AC
:10167800F0D145F8040F9D4206F58076E5D103B018
:10168800BDE8F08F382E0008602E00082DE9F041E3
:10169800066807460124002557F82480314640464D
:1016A800FFF738F808B14646254601340A2CF3D12D
:1016B8002846BDE8F081000038B50C461546FFF70E
:1016C80033FF29462046064AFFF7ABFF2046FFF7BF
:1016D800B1FF04F50070BDE83840FFF7D7BF00BF81
:1016E800302E000870B596B0002403264FF4A023CE
:1016F8000CA80125CDE90C631094149400F0D0F8DF
:101708000F23214602A8CDE90235CDE90444069409
:1017180000F00CFB104B11485A6942F400225A6140
:101728005B6903F400230193019B07A94FF4C043AD
:10173800CDE90735CDE9094600F098FB2A46074868
:101748004FF4005100F04CFC04482A464FF4804105
:1017580000F046FC16B070BD0010024000080048BA
:1017680010B54FF4C06288B00223CDE903230121EC
:101778000323CDE90513164C07230793636943F444
:1017880000336361636903F40033019303A94FF0E5
:101798009040019B00F06AFB0E4A0F4B13604FF418
:1017A80061300023C2E90103C2E9033393610C23CA
:1017B8005361A36943F48043A361A36903F480439D
:1017C80002931046029B00F01EFD08B010BD00BF3A
:1017D80000100240F40900200038014030B5104BD9
:1017E8005A6942F4003287B05A615B6903F40033E6
:1017F8000093009B4FF480540123CDE90143002559
:10180800032301A94FF09040CDE9035300F02EFBCC
:101818002A4621464FF0904000F0E2FB07B030BD69
:101828000010024001224FF480514FF0904000F028
:10183800D7BB00224FF480514FF0904000F0D0BB4E
:1018480013B5094C094841F2883301220DF107010B
:1018580000F058FD18B99DF8070002B010BD236AC2
:1018680043F008032362EDE700380140F409002043
:1018780007B541F288338DF8070001220DF1070101
:10188800024800F0EAFC03B000BD00BFF4090020E4
:10189800024B1868421C1A60704700BF640A002097
:1018A80003682DE9F743D907044610D423689A073B
:1018B8007ED423681E0700F1E78023685D0700F1E6
:1018C8002A81E269002A40F0AD8100201FE0AE497C
:1018D8004B6803F00C03042B07D04B6803F00C0390
:1018E800082B17D14B68DB0314D54FF4003393FA58
:1018F800A3F2096893FAA3F30122B3FA83F302FA75
:1019080003F30B42D2D06368002BCFD1012003B080
:10191800BDE8F0836268B2F5803F22D10B6843F4DA
:1019280080330B60CB6AA06823F00F030343CB62BC
:101938003AB3FFF7ADFF4FF400350646012795FA95
:10194800A5F30A6895FAA5F3B3FA83F307FA03F344
:101958001342ABD1FFF79CFF801B6428EFD903200B
:10196800D5E70B6832B923F480330B600B6823F496
:101978008023D6E7B2F5A02FF5D143F480230B607E
:10198800CCE7FFF785FF4FF400350646012795FAA7
:10199800A5F30A6895FAA5F3B3FA83F307FA03F3F4
:1019A800134283D0FFF774FF801B6428EFD9D6E772
:1019B80075494B6813F00C0F07D04B6803F00C0304
:1019C800082B1FD14B68DF031CD4022393FAA3F220
:1019D800086893FAA3F30122B3FA83F302FA03F334
:1019E800034202D02369934290D10868F82292FA00
:1019F800A2F26369B2FA82F2934020F0F80213432C
:101A08000B6056E722690125F2B195FAA5F3B3FAFE
:101A180083F303F1845303F584139B0002271D60AD
:101A2800FFF736FF064697FAA7F30A6897FAA7F36F
:101A3800B3FA83F305FA03F31342D6D1FFF728FF6D
:101A4800801B0228EFD98AE795FAA5F3B3FA83F346
:101A580003F1845303F584139B0002271A60FFF7F0
:101A680017FF064697FAA7F30A6897FAA7F3B3FA97
:101A780083F305FA03F313423FF41BAFFFF708FFA4
:101A8800801B0228EED96AE7A0693F4D3F4A012131
:101A980000B391FAA1F3B3FA83F313449B0002262F
:101AA8001960FFF7F5FE074696FAA6F396FAA6F32D
:101AB80096FAA6F36A6A96FAA6F3B3FA83F301FADA
:101AC80003F313427FF4F9AEFFF7E2FEC01B0228CE
:101AD800EAD944E791FAA1F3B3FA83F313449B00DC
:101AE80002261860FFF7D4FE074696FAA6F396FA80
:101AF800A6F396FAA6F36A6A96FAA6F3B3FA83F3FC
:101B080001FA03F313423FF4D8AEFFF7C1FEC01B3E
:101B18000228EAD923E71C49CB69D80031D4CB691C
:101B280043F08053CB61CB6903F080530193019B51
:101B38000125174E3368DA052CD5E368012B39D116
:101B48000B6A43F001030B62FFF7A2FE0226074669
:101B58004FF0010841F2883996FAA6F396FAA6F3EF
:101B68000A6A96FAA6F3B3FA83F308FA03F3134260
:101B780052D0002D3FF4A5AECB6923F08053CB6142
:101B88009FE60025D5E700BF001002402081901095
:101B980000700040336843F480733360FFF778FEC9
:101BA80007463368DB05C8D4FFF772FEC01B6428FC
:101BB800F7D9D4E613BB0B6A23F001030B620B6A57
:101BC80023F004030B62FFF763FE022607464FF07B
:101BD800010841F2883996FAA6F396FAA6F30A6A3A
:101BE80096FAA6F3B3FA83F308FA03F31342C0D0C4
:101BF800FFF74EFEC01B4845EDD9B0E6052B0B6A32
:101C080003D143F004030B629AE723F001030B624C
:101C18000B6A23F0040396E7FFF73AFEC01B48451A
:101C28009AD99CE63F494B6803F00C03082B3FF414
:101C38006DAE022A4FF0807350D193FAA3F3B3FA32
:101C480083F303F1845303F584139B0000221A6085
:101C5800FFF71EFEDFF8D08006464FF0007701251B
:101C680097FAA7F30A6897FAA7F3B3FA83F305FA82
:101C780003F313422CD1D4E908034A68034322F43E
:101C8800741213434B604FF0807393FAA3F3B3FAC3
:101C980083F303F1845303F584139B00224F1D60E3
:101CA800FFF7F6FD4FF000740546012694FAA4F3F9
:101CB8000A6894FAA4F3B3FA83F306FA03F3134217
:101CC8007FF403AEFFF7E4FD401BB842EED946E6C9
:101CD800FFF7DEFD801B4045C2D940E693FAA3F327
:101CE800B3FA83F303F1845303F584139B000022B2
:101CF8001A60FFF7CDFD0C4F05464FF00074012622
:101D080094FAA4F30A6894FAA4F3B3FA83F306FAEC
:101D180003F313423FF4D9ADFFF7BAFD401BB842B5
:101D2800EED91CE600100240400D03004D4AF8B5FC
:101D3800136803F007038B42054611D32A689407FA
:101D48001AD4D00720D4474A136803F007038B42FC
:101D58006CD82A68510774D413077AD400200AE093
:101D6800136823F007030B431360136803F007039A
:101D78008B42E3D00120F8BD3B48AC68436823F0B0
:101D8800F00323434360DCE76A68374C012A25D116
:101D98004FF4003393FAA3F0206893FAA3F3B3FA4D
:101DA80083F302FA03F30342E4D0636823F00303E6
:101DB80013436360FFF76CFD6B68012B064641F225
:101DC80088371CD1636803F00C03042BBBD0FFF7E2
:101DD8005FFD801BB842F5D90320CCE7022A0CBF6F
:101DE8004FF00073022393FAA3F0266893FAA3F343
:101DF8000120B3FA83F300FA03F33342D4E7022B4A
:101E08000FD1636803F00C03082B9CD0FFF740FD4B
:101E1800801BB842F5D9DFE7FFF73AFD801BB842CF
:101E2800DAD8636813F00C0FF6D18CE7136823F047
:101E380007030B431360136803F007038B4299D120
:101E480087E70949E8684B6823F4E06303434B607C
:101E580082E7054A2969536823F4605343EAC103BA
:101E680053607BE700200240001002402DE9F74F45
:101E7800DFF86081584C00224FF00F090B6833FAE5
:101E880002F502D103B0BDE8F08F012505FA02FA88
:101E98001AEA030300F094804D6825F0100EBEF195
:101EA800020F11D1D70800EB870702F0070C3E6A32
:101EB8004FEA8C0C09FA0CFB26EA0B0B0E6906FAA2
:101EC8000CF646EA0B063E6207684FEA420C032608
:101ED80006FA0CF627EA060B05F0030707FA0CF7D3
:101EE8000EF1FF3E47EA0B07BEF1010F076010D85D
:101EF800876827EA060ECF6807FA0CF747EA0E0745
:101F08008760476827EA0A0E2F09974047EA0E07B5
:101F18004760C76827EA06078E6806FA0CF63E434C
:101F2800C660EE004CD5D8F8186046F00106C8F82F
:101F38001860D8F8186022F0030707F1804706F008
:101F4800010607F58037019602F0030C019EBE6872
:101F58004FEA8C0C09FA0CFEB0F1904F26EA0E0EEF
:101F680030D01E4EB0422FD006F58066B0422DD03C
:101F780006F58066B0422BD006F58066B04214BFE5
:101F88000526042606FA0CF646EA0E06BE60266802
:101F9800EF0354BF9E431E4326606668AF0354BFD9
:101FA8009E431E436660A668EF0254BF9E431E43CD
:101FB800A660E668AD0254BF26EA03033343E36034
:101FC80001325BE70026DDE70126DBE70226D9E7D9
:101FD8000326D7E70010024000040140000400482F
:101FE8000AB18161704781627047000002688368A6
:101FF800C16930B5056914682B43456924F4164452
:102008002B4324F00C040B43234313605368C46828
:10201800056A23F44053234353609468836924F486
:1020280030642B4323439360424B9A4211D103F50A
:1020380058431B6B03F00303022B5FD0032B65D0BF
:10204800B1F5004F41684FEA510345D003F5E1036C
:1020580048E0394B9A4212D103F5E6331B6B03F47F
:102068004033B3F5003F49D0EAD9B3F5403F4DD0EE
:10207800B1F5004F4FF001005BD1002353E02F4B27
:102088009A420BD103F5E4331B6B03F44023B3F5F9
:10209800002F33D0D4D9B3F5402FE8E7284B9A4224
:1020A8000BD103F5E2331B6B03F44013B3F5001FA8
:1020B80024D0C5D9B3F5401FD9E7224B9A42D7D1CE
:1020C80003F5E0331B6B03F44003B3F5000F15D0A1
:1020D800B6D9B3F5400FCAE703F561031FE04B0813
:1020E80003F50043B3FBF1F39BB2D360002020E07B
:1020F8004B0803F5740303F51053F3E7B1F5004FEC
:102108004168ECD14B0803F5803308E0B1F5004F86
:102118004168EDD14B0803F1F47303F59043B3FB29
:10212800F1F300209BB223F00F01C3F342030B43EA
:10213800D36030BD003801400044004000480040F2
:10214800004C0040005000402DE9F041069E044636
:10215800174698462568E86931EA00000CBF012354
:102168000023BB4201D0002013E0721CF3D096B9C3
:102178002B6823F4D0732B60AB6823F00103AB60AA
:10218800202384F8693084F86A30002384F86830A2
:102198000320BDE8F081FFF77BFBA0EB0800B0420D
:1021A800D8D9E5E773B504460021C166FFF770FB8F
:1021B800266833681A07054616D433685B070AD5BC
:1021C8006FF07E43009300222B464FF48001204697
:1021D800FFF7BAFFA0B92023002084F8693084F8FB
:1021E800680084F86A300CE06FF07E4300930A467A
:1021F80003464FF400112046FFF7A6FF0028DCD065
:10220800032002B070BD38B5044620B390F8693099
:1022180003F0FF020BB980F868202568242384F8AE
:1022280069302B6823F001032B602046FFF7DEFEA0
:10223800012810D06B6823F490436B60AB6823F0DF
:102248002A03AB602B6843F001032B602046BDE8EE
:102258003840FFF7A7BF012038BDF7B51E4690F8F4
:102268006930202B0D460446114649D1002D45D032
:10227800002A43D090F86830012B41D0012380F820
:1022880068300023C366212380F86930FFF700FB1C
:10229800A4F850100746A4F85210B4F8522092B28D
:1022A80062B900963B4640212046FFF74DFF90B9A2
:1022B800202384F8693084F868000DE0B4F85230BF
:1022C800013BA4F85230002200963B46802120466C
:1022D800FFF73AFF10B1032003B0F0BDA2682368EE
:1022E800B2F5805F07D122692AB935F8022BC2F30B
:1022F80008021A85D1E715F8012BFAE70120EBE768
:102308000220E9E72DE9F3411E4690F86A30202BB8
:102318000D46044611465DD1002D59D0002A57D0EC
:1023280090F86830012B55D0012380F86830036895
:102338004FF0FF321A620023C366222380F86A3006
:10234800FFF7A6FAA368A4F85810B3F5805F07460C
:10235800A4F85A1015D123698BB940F2FF13A4F8D9
:102368005C30B4F85C80B4F85A0080B280B920239D
:1023780084F86A3084F8680002B0BDE8F081FF2371
:10238800EDE7002BEDD12369002BF8D07F23E6E79A
:10239800B4F85A30013BA4F85A30002200963B4664
:1023A80020212046FFF7D0FEB0B9A2682368B2F515
:1023B800805F07D122692AB99B8C08EA030325F8B4
:1023C800023BD0E79B8C08EA030305F8013BCAE708
:1023D8000120D1E70220CFE70320CDE710B5064C56
:1023E800034601440020994200D110BD13F8012B87
:1023F8004240A05CF7E700BF6049030830B50022FF
:10240800044601238B4201D3002030BD14F8015F3C
:1024180015B99D1A85541A460133DBB2F2E730B577
:1024280002780025044605701046884200D202B999
:1024380030BD225C25548318D8B2F6E738B50B4D69
:102448002B681F2B04DD6120FFF712FA012038BD2D
:10245800F82901D96220F7E70C2404FB035401335F
:102468002071C4E902122B600020F0E76C0A0020FA
:1024780008B5064A00217620FFF7E0FFBDE80840CE
:10248800034A00217720FFF7D9BF00BF07250008BE
:1024980021250008F0B50C46C1B04AB300238DF8D9
:1024A80006108DF804308DF8050001AE0DF1060117
:1024B8009C421FDCA11CC9B20DF10500FFF78EFF7D
:1024C80004F580736B44271D03F8F90C07F5807336
:1024D8006B44611D0025C9B2304603F8FC5CFFF768
:1024E8008DFF16F8010B0135FFF7C2F9AF42F8DA94
:1024F80041B0F0BDD05C01F8010F0133D8E707B552
:1025080003230DF10702012172208DF80730FFF730
:10251800C1FF002003B000BD30B50C48017889B078
:1025280000220C24D3B28B4206DB6A467220FFF7E6
:10253800B1FF002009B030BD03F1200504FB0303FF
:102548006D441B7905F8203C0132EBE76C0A00204A
:102558002DE9F043C1B001AD0024A846FFF770F99A
:10256800287058B905208DF803000DF103020121E8
:102578006520FFF78FFF41B0BDE8F0830134042CDC
:1025880005F10105EAD121464046FFF748FF294DEC
:102598009DF805102A68074600230C20DEB29642F3
:1025A80002DB08D10120DEE700FB065C01339CF862
:1025B80004C08C45F2D19DF807300533BB4208DAD8
:1025C8000420D0E7FFF73CF908F804000028C9D038
:1025D80001349DF807300433A342F3DAFFF730F9EA
:1025E80004F580730DEB030909F8FC0C0028E7D10A
:1025F800C7F101012144C9B208EB0700FFF70FFF3B
:10260800A11EC9B20DF10500FFF7E8FE19F8FD3C5F
:1026180083420CD10C2303FB06559DF80720EC6878
:102628009DF806109DF8050002ABA0479BE7022025
:1026380099E700BF6C0A0020002103E00B4B5B58B0
:10264800435004310A480B4B42189A42F6D30A4ABF
:1026580002E0002313600432084B9A42F9D3AFF327
:10266800008000F0A3FBFEF763FEFEE78C4A030838
:10267800000000205400002054000020440D0020D9
:10268800FEE7000038B5054600F054FA044628462F
:1026980000F09AF848B10D492846FEF73BF830B9E2
:1026A8000B492846FEF718F848B9204638BD00F00F
:1026B80077FB4FF0FF4422230360204638BD00F02B
:1026C8006FFB222300240360EFE700BF1772B142BB
:1026D800B5F1CFC230B520F00042B2F1FF4F83B060
:1026E80001460CD3344B002818681B681C4639DB9C
:1026F800FDF708FF2146FDF749FD03B030BDDFF8BF
:10270800BCC062450DD92C492D4A01900868116852
:10271800FDF73AFD019B002BB8BF00F1004003B064
:1027280030BDB2F1105F24D3B2F17E5F019029D39E
:1027380000F02AFB234A1168FDF730FE00F04CF840
:10274800204A01461C48046815681068FDF71EFDFC
:1027580001462846FDF7D6FE01462046FDF714FD42
:10276800019BD8E7FDF7CEFE2146FDF70DFD03B02E
:1027780030BD114B01901868FDF708FD0199FDF770
:102788000DFEBAE70F4A13681C4600F0FDFA014631
:1027980004F10040FDF702FE00F01EF8094A014668
:1027A800106801F10044FDF7F1FC01462046FDF7F1
:1027B800A9FE019BAFE700BF684A0308FFFFAF41CE
:1027C800604A0308644A030820F00040B0F1FF4F54
:1027D8002CBF0020012070472DE9F041AE4D20F0BC
:1027E8000042AA4282B0044600F0004636D9B2F14F
:1027F800FF4F00F2BA8000F02781002E40F0BB8026
:10280800A6498A4200F24281A549FDF7C7FD014663
:102818004FF07C50FDF7BAFCFDF786FF0646FDF742
:1028280069FDA0490746FDF7B9FD01462046FDF7B9
:10283800ABFC9D4905463846FDF7B0FD03461946F1
:1028480028460093FDF7A0FC014604462846FDF7FC
:102858009BFC0099FDF798FC804607E093498A4263
:1028680076D8B2F14C5FC0F0BB8000264FF07C51A7
:102878002046FDF793FD014600902046FDF78EFDAA
:102888008B490546FDF78AFD8A49FDF77FFC2946F5
:10289800FDF784FD8849FDF777FC2946FDF77EFDA5
:1028A8008649FDF773FC2946FDF778FD8449FDF755
:1028B8006BFC2946FDF772FD4FF07E51FDF766FC73
:1028C800014601900098FDF769FD01467D48FDF736
:1028D8005BFC014600900198FDF756FC00990746FD
:1028E8002046FDF75BFD01467748FDF74DFC0146A4
:1028F8003846FDF707FE2946FDF750FD002E61D04A
:102908004146FDF741FC2146FDF748FD4146FDF7EC
:102918003BFC2946FDF738FC731C054600F0878010
:10292800012E6AD0731C392B4FEAC6553CD8162E97
:1029380000F38E804FF0807333412146C3F17E54FB
:10294800FDF722FC01462046FDF71EFC28440FE057
:102958005E498A421FD85349002E62D0FDF716FC03
:102968004FF0FF365A4B054669E70146FDF70EFC66
:1029780002B0BDE8F0815749FDF708FC0021FDF7DA
:10298800ABFE002862D146492046FDF707FD014607
:102998004FF03F403EE74249FDF700FD0146002E5B
:1029A80071D04FF03F4035E72146FDF7EDFB01467A
:1029B8004FF07E50FDF7E8FB4FF07E512844FDF7BD
:1029C800E3FBD5E701462046FDF7E8FC2946FDF77D
:1029D800DBFB01462046FDF7D7FB02B0BDE8F081DE
:1029E8003D49FDF7D3FB0146FDF7CEFB01462046E6
:1029F800FDF7CAFB02B0BDE8F08138492046FDF773
:102A08006BFE002833D04FF07C512046FDF7BEFB0B
:102A180001462846FDF7B8FB4FF04041FDF7BEFCE4
:102A2800A6E7FDF7B1FB01261F4B054607E7014660
:102A38002046FDF7A9FB4FF07C51FDF7AFFC4FF0A6
:102A48007C51FDF7A1FB93E7002E91D024488FE736
:102A5800C6F17F01C905FDF799FB01462046FDF740
:102A680093FB4FF07E51FDF791FB284480E7294600
:102A78002046FDF789FB0146FDF788FB4FF07E51A4
:102A8800FDF784FB74E74FF07C50C3E6304602B094
:102A9800BDE8F04100F04AB843B895411772B14219
:102AA8003BAAB83F8071313FD1F717371872B13E52
:102AB800BBED57B4547E8636CD70A638010DD03A9A
:102AC8008988083D000040400000C0409115853FBE
:102AD800D1F717B76042A20DCAF24971000080BE53
:102AE800000080BF10B582B00446019100F058F98B
:102AF800019903462046196002B010BD08B540B1DF
:102B080001F10040FDF74AFCBDE808402221FFF72B
:102B1800E9BF0846FDF742FCBDE808402221FFF75F
:102B2800E1BF00BF4FF08051FFF7E8BF4FF0E04131
:102B3800FFF7E4BF2DE9F04320F00042B2F1FF4F68
:102B480083B004466DD84FEAD07500F0CB807E493B
:102B5800884200F3B7800028C0F2BA807B4B9A42C3
:102B680065D97B4B9A4200F2CC807A4B204653F8C9
:102B78002510FDF709FB784A52F8252085F0010356
:102B8800904607465E1B41463846FDF7FDFA01466A
:102B98000446FDF703FC71490546FDF7FFFB704944
:102BA800FDF7F2FA2946FDF7F9FB6E49FDF7EEFA53
:102BB8002946FDF7F3FB6C49FDF7E6FA2946FDF7D0
:102BC800EDFB6A49FDF7E2FA2946FDF7E7FB014606
:102BD8002046FDF7D9FA014620460D460191FDF73A
:102BE800DDFB01998146002E53D04FF08040FDF760
:102BF800CBFA01464846FDF785FC01464046FDF7FD
:102C0800C3FA3946FDF7C0FA01464FF07E50FDF78A
:102C1800BBFA16F17D0F69DB00EBC65003B0BDE8C7
:102C2800F0830146FDF7B2FA03B0BDE8F083B2F1D4
:102C3800505F09D24E492046FDF7A8FA4FF07E5161
:102C4800FDF768FD002879D121462046FDF7A6FB4F
:102C580042490546FDF7A2FB4149FDF795FA294689
:102C6800FDF79CFB3F49FDF791FA2946FDF796FBD6
:102C78003D49FDF789FA2946FDF790FB3B49FDF7E9
:102C880085FA2946FDF78AFB01462046FDF77CFABE
:102C9800054629462046FDF781FB4FF08041064650
:102CA8002846FDF771FA01463046FDF72BFC214610
:102CB800FDF76AFA01464FF07E50FDF765FA03B05A
:102CC800BDE8F083002003B0BDE8F043FFF72EBF56
:102CD800284B9A427FF642AF002003B0BDE8F0438C
:102CE800FFF720BF002D9FD000209DE706F1640369
:102CF8004FF0586100EBC350FDF750FB03B0BDE83F
:102D0800F0831D492046FDF749FB1C4B53F825105D
:102D1800FDF73CFAFDF708FD0646FDF7EBFA184902
:102D28000546FDF73BFB01462046FDF72DFA154900
:102D380007462846FDF732FB804624E74FF07E51D0
:102D48002046FDF723FA6FE71772B1421872B13EB9
:102D58009115853F744A03086C4A03084CBB31330C
:102D68000EEADD3555B38A38610B363BABAA2A3EED
:102D7800CAF24971B5F1CF423BAAB83F7C4A030871
:102D88008071313FD1F7173720F00040704700BFFE
:102D980002440346934200D1704703F8011BF9E748
:102DA800014B1868704700BF0400002070B50D4B38
:102DB8000D4C00261D1BB6EBA50F09D100F028F815
:102DC8000A4C0B4B00261D1BB6EBA50F05D170BD99
:102DD80054F8043B98470136EDE754F8043B98470C
:102DE8000136F1E7844A0308844A0308844A030841
:102DF800884A03080A44914200F1FF3300D1704722
:102E080010B511F8014B03F8014F9142F9D110BDEB
:102E1800F8B500BFF8BC08BC9E467047F8B500BFBF
:082E2800F8BC08BC9E4670478F
:102E3000000000000000000093D1F5BD9CB6793D74
:102E4000887FAB3CB82ABEBD6E8C113E2535B53DA2
:102E5000D80204BDF756F8BDA03A0C3D0A3120BD9A
:102E60008C8C823EC9BB3B3E3362583E2F6E0BBEFC
:102E70003C3A1A3EBEF89EBEDFAEA63E18630FBFB8
:102E8000E9A8D9BEFAD4AC3EC123C83CD26495BEF1
:102E900052F92FBE01A69A3E7AB8003E9EAB973DEE
:102EA000447AD7BD521708BFE4FEB63E5FAA88BD7C
:102EB000A4D894BE31416D3E23DA47BFA460C13E21
:102EC0000CF1233E1DF52DBFD334A53EEB931A3FE5
:102ED00013EB50BEAC1021BE959016BFC5CD03BFFD
:102EE000C5F1C33E0D76E0BE0B57563EB9B6C13EA6
:102EF0007084B93EB86EE5BDF852F63E096A2E3DC3
:102F0000B1A96EBE3CE72A3E55615ABF3F8E81BDD6
:102F10005238BDBF988EE63DE1EEE33B2D53273C92
:102F200064E8CDBD9ADBF3BE093262BFB04D12BF7B
:102F3000F53D503E09160F3EC160383EF463263E13
:102F4000A4B871BF129576BF82EBD1BE6FB3383E85
:102F5000EB0B8B3E6CF407BF1B479BBC07A3AEBEBD
:102F6000E9098D3E7699BB3D6DE819BF73005EBFE0
:102F7000664FB0BE58319ABE05F7C1BE9B0DD73D16
:102F800052CF9B3ECF7C6CBF10EB14BF904761BE0D
:102F900033D67DBF5B0CBCBC2B1135BF29F22ABFD9
:102FA000E37B0F3E11B3E6BB24597E3E4F88173EAC
:102FB000337D613E53AB8BBECE75F23E966F313E94
:102FC0001F5E7B3E866A2E3EB3265CBF24D503BFC0
:102FD000EA31F2BC3660323F47690EBD7B682CBFD8
:102FE00033BBB63E1986813E140612BF1616433F08
:102FF000DFF8DABDF29C75BD2A6BE83D6767EEBE6F
:10300000B78521BE1745AD3DF0ECF63DA5A74D3E79
:103010003736B13E634D823E2838ECBD0254833EC4
:10302000AC168BBEB9E9BDBDB4D81EBF0112763F48
:10303000EBAB5C3EB7ACA23E567FC63D6E1648BFBA
:1030400013DD463EFAB4DA3EF189683F486FAFBD02
:10305000258F933E2B42CB3E6F25BEBC303AC9BD77
:10306000C8DE8D3ED4184E3ED99D303EF19B6BBEDE
:103070006B7955BE7CF4B3BE16CB94BE9DE82C3E56
:103080002D7D063F69531A3E8D8D093F2B55E33E3A
:1030900090F4FC3E3F4974BD6BEBE8BD70B090BE50
:1030A000DFD7573E6A7D7CBF2C36A73E1DCCAC3E99
:1030B0004CE22BBE015381BEC08DB53E68B0A83E28
:1030C0000FECA9BD7F9E7FBF19DEADBCD5FD113EC3
:1030D000B0EF59BF40F6143F7478663E12F8E6BE72
:1030E000B983E3BD1B0C963E5209EBBE2B750EBD9A
:1030F0009E17993E367E0DBD9260C4BE70AF643E91
:103100005F3EEA3C9CAED53E77CF123F4F57F2BEB2
:10311000FF53B7BE550AD2BE05F8A53E35F00A3FAB
:103120007E44013FABF928BE0AF6ECBEA4CC573D65
:103130001ED4B2BFF484FCBDA75EAABDC5E9883E1B
:10314000826200BE98E0393E3C960DBFF1C6E73E74
:103150006EB9CABDE477A83EAAE33D3F88A82BBF5D
:103160007F33023FA71CE7BE632A12BE033C02BFA7
:103170002E3AD53ECA887B3E9A82A0BBF991163F73
:1031800072FFABBE0A716D3E4C7DE13EF953B53E18
:1031900004450ABF1425F93DB7DFA13E6BAED8BD8B
:1031A0003970773ECF0243BF94C26B3EE16C3CBEA8
:1031B000DC2BD43E33CFABBD927CAD3E71A9DDBEDE
:1031C000846085BD610301BE69ACB43DDC97EF3E10
:1031D000053C823E737C7DBE299E8EBE8248233F85
:1031E0000C308F3E13CD84BF9602543E6273CBBE2B
:1031F000DBA36ABD51119D3E82AE143E300A0DBF65
:103200004013983E01A085BF23D49A3E031D0D3F75
:10321000E6EDF63EA762F1BEF68F58BEB341E2BEC0
:103220002FC9173D048A63BD95823D3E91105C3DD8
:10323000096E723E52F0D4BE1D7F033FE6B2C6BE99
:103240005B5FB93E33B40ABFEDB204BF5568A13E1F
:1032500046514DBF7F7D44BF1A59EABC2227E0BECC
:10326000D40F09BD8EF9303F59B772BF6E8F843CC1
:103270003A45903B1E82703DF9D3713E4DC971BEF7
:103280002513F2BEB6B756BEBE162FBF6E4D26BE74
:10329000294787BE963894BFC4DC233E6521E13DB3
:1032A000364E803D9382A7BF0C1BE9BFB47B4E3ED8
:1032B000E7C07C3EA4D7B43E2EA3B5BDD6F7D1BEA1
:1032C000DA72CE3D31C558BF4BCDB73DF2801BBF42
:1032D0002C69D3BE189F593E6828DF3EA8B7C43E6C
:1032E00031D005BF2ED9393FE9B2DFBE54AE0E3F13
:1032F000529CEB3C1E76973E79DE68BF8C43BCBD8A
:10330000E35FC8BE6194D83EB91161BE191926BFEA
:103310003C17523E36DC36BE4223893EB65E00BEC6
:10332000994680BFBE73993E03C59B3E25C2553E5C
:1033300064C0C23E201092BED36EC03EC473923EA3
:103340004F2978BEE00865BFCE7DC73EFC4B33BE3B
:10335000459504BE431F1C3F4D52AE3E4D0B003FF2
:1033600058AAA5BE0E0F16BFE4CAABBB37D8A53E00
:10337000D6258B3E975FDFBD39E5CA3C740274BF2A
:10338000432D193E14C641BEE48C5A3EDA0EA03ECF
:10339000FEEC6E3E9967F2BE719CB6BE40475EBDC4
:1033A0006DE589BFEE53883FA02E533D5153C3BDF9
:1033B0009F1844BF1A2674BE6D1FC0BDC73E96BF7E
:1033C000871C97BFDB52223F4613843E049DB43EC8
:1033D00053F6D03ECC481ABE0EA16C3E7935F7BDEF
:1033E000FB6176BD644008BF5A50C83E3A30B43DD8
:1033F0003BB5683E5616B23D37D436BE55CD9BBE62
:1034000094F8183E5C79893EB8D56E3EE3A57E3EC1
:10341000CC4EF93EB5E2E33E82EE5ABEA0D0AB3DC3
:103420005F62643E8DFCB43DE484F73EB4BA1CBFD9
:10343000F013D63EDE3053BE77F595BED132C9BE0D
:10344000AADC013E10F0433F2017A9BB14C734BECD
:1034500082FC7E3EAFFAACBD4AB20C3E52A2233F84
:10346000511E963EC3DEFD3EBF0385BEBC960CBF1B
:10347000A7A0F4BEB8F3403E4F0693BE9F20023F84
:103480005DE707BD19A1A2BCC97287BFE3AB95BFB9
:103490006456093F7EC074BEF85E6C3E1C0D1DBEB6
:1034A000814ECFBEDDAC183FEDBD4CBE19166F3E50
:1034B00035088A3E91FDA63E957722BF3D84073FA1
:1034C00009618FBD5CF0FD3ED277613E5FD1C7BD23
:1034D0001AACA9BE8EB3783E8E039EBE874102BF52
:1034E000B0C4193E5CA818BF20D9D0BEF44A0BBEA8
:1034F00058AB923EA373A23E8F5EE93E4CDB6F3E1B
:10350000A179083EF08BE2BEF709AABF5F6D983E35
:103510004A29C3BFA53CC1BEA81E97BE88C8AD3D01
:103520005B603F3EEE438A3DB92BA9BF410F14BFFC
:103530007E7D963C9D2983BEA980893E77F0633EBF
:10354000D41FDCBE2A76803E32F94F3E873897BDC5
:103550006C6DC33E469C9D3D296D98BEADE7023F14
:103560004BCF6A3F0FCEC73E5BA00C3D9AD074BED6
:10357000E0B7833E8EE743BF1D4AC63E032B813E24
:10358000FAC9EEBEFC1EE83D19F60E3F0931D43EE5
:103590002F5B81BC71C48CBEE9491FBFCB01493E82
:1035A000D067A13D9293B73D3140903EFC8D3D3EAA
:1035B00086D8C03D73C7563D8938EF3E7291913D24
:1035C0003E8F2B3F43DDB93E163279BE2CD22FBF42
:1035D0004049183EB7E0143FE5573BBE2B01163E6D
:1035E000BFCB2BBFC879E23D94E062BF4A1FD53DF7
:1035F000DF2BA0BF152E10BF9AA06E3E9EDD823E2F
:103600002C598CBCC70F9B3EB442943E4A2A473E7D
:10361000A95667BFB440A13E94FF96BE71AD18BFD6
:10362000EEDF083E0B8B5BBE0900B63D2BC0403F72
:1036300063B9DBBC8DB59CBD29063C3E3A97C3BD42
:103640001A06EEBDAB40663E33F8843EB92426BF71
:103650009B0767BEEFB9E13E1C1940BE9FE3A5BEC4
:10366000A123EFBEBA46143FEF9F08BE409B8E3E9B
:10367000E2C41F3EAA289A3E437D4A3B62482E3E42
:10368000FA80553E40531C3E02829DBE1091BDBE45
:10369000FB4A7A3E18071EBC128CBBBEAEBD8A3DEB
:1036A0008B53BABD79999DBDC6C119BCC5CBAE3E81
:1036B0008D5092BD4D3D323E7BD6403E35E9EA3ECF
:1036C0001ED2F9BE51E1F6BED685833E607220BFA0
:1036D000B846733E0F5335BF588F153D3ADDC4BD14
:1036E00084231EBDC1DA003E6B6F703E7E0186BF33
:1036F00065918CBD1A40BA3E7DF374BEF367A83E57
:10370000C8A75B3EB00C2FBF6965D0BED65CC6BEF5
:10371000774D63BF09601D3E9055C03E6A49573ED4
:103720008CD910BCAECA4E3EB104CBBED0C73B3E16
:10373000E2D642BED11DB53EEF3378BF4B03A33E68
:10374000D2FE1B3F27AA153ED0E510BF35C1393D3B
:10375000AAC3D63DB9397E3E8B51AABFC97F463D2B
:103760005D9B7CBFC5358BBF381B8C3ED5092E3E7B
:103770002B49D13EA39BC93C37C66B3E05987C3E86
:103780009BEBDB3E7891863E1F208CBE52F9A8BE93
:1037900095AF59BF86E9BC3E426B003FE61FB63E7F
:1037A0000E1C623E33F51A3C4A35DABE1144483EDF
:1037B00020581BBD3E7682BE2E6770BFF42892BE95
:1037C000891631BE74482D3E46D22BBEE76661BED7
:1037D00059B30D3E409A31BF285A9DBDAB30603D74
:1037E000427B5FBD0B39C83E22F5003C999AC73D2C
:1037F0009E1612BFDB742DBE6F2B863E24F909BFC7
:10380000546987BC1DBDF13E4B5B8BBEA23A6ABFBB
:1038100066B71D3FC3EB0C3F9605023E3D83923ECB
:10382000B04B79BF3875843E30F6AB3EF5DE8FBFC6
:103830000AD9083F16B95CBE7BCA71BF88BD06BDF8
:1038400056AB18BE8C6474BE02EF583ED2C62BBE77
:103850000C0550BF660F45BF16B23B3E7587E8BEEC
:1038600015110C3ECB04C5BCCFD8C7BDCD19C13D89
:10387000572C3BBD26D4D83B24A6D53CC1448DBD96
:1038800053DAE13DE3F81EBE460FBABD4D80A0BD40
:10389000E7255D3E5358C9BD61E146BE5BA83A3C91
:1038A0003ED13B3D13F0FC3DC6EBECBD0AC5F93DF6
:1038B000FD51B33BF882683C2CEE0CBDB18E8F3DC0
:1038C000E0ED3F3DE368F9BD780A0F3DDD7D5F3DEA
:1038D000AA61F63DAA54D5BCA82C3D3E6B0403BC9E
:1038E000AF9A02BD309F0A3DB6C841BB5C21303E55
:1038F00030FF7F3EA984E83D1D20CFBD5DA4123E70
:103900008825BABD0E791C3C3157EDBDB31380BD7F
:103910002581E23D20C7943E2B34DD3DA66D583E07
:1039200072371B3DC365E53D3BACFC3DABC4053E7A
:103930003FBC2A3E8414C63DE5B477BE77A5043E5D
:1039400018A392BDA170E93C3E0B7E3D167F0ABDD7
:10395000B3016E3EEBE3E83DD550E83D82A4603E06
:10396000604FE43C86055D3DCFA5A73D8887CC3CF4
:10397000B2B091BDDD75873D5B3C9D3D818486BDC8
:10398000FD309DBDC09804BB8DA486BDA0DF55BB96
:103990004FDB48BD4722A9BDB62B82BD316693BD22
:1039A0002E3D743D20826A3B66BF3E3D4493AB3C56
:1039B0001BDBA53D80A2A03A14079DBCF8E0E23CC9
:1039C00050FD5EBDFC9589BC503E9ABD96F54C3DC0
:1039D000708F763C809C6B3C9FAA88BD1874D83C45
:1039E00016C3753DDC911CBCC50B95BBAEC0CB3D71
:1039F000FECE603C38B3EB3CFC6E7FBCCE10D3BC3B
:103A0000541AD33D6751103D8C78613D4BEA833E9B
:103A1000204B523EEEE0F33D82819A3D5DA7793E18
:103A200038C6663EEAD2BA3D9ABDCD3BC2C7DABCC3
:103A30002A59113DD83D733CC5B07FBD9EA091BDB4
:103A4000E3759E3D0014873B7B3DB7BCB8900F3CAF
:103A50001D370E3DCFE31F3EC260023E02317B3D6B
:103A60003B1284BDD52B2C3EB3418D3EFCBEC33EE4
:103A7000E65FD63D7FAC19BDC92001BE0B88B6BC40
:103A800007C7F6BD5B5471BE5C45F1BD4619A9BDC3
:103A9000193C2ABDEA66E8BD2D29B9BD432901BEFE
:103AA00037BF4E3ECFCC06BD58FD073C542D873C5A
:103AB00031139DBD485167BC34F90F3E7BC9DB3BD8
:103AC0005E916E3E5A71A83EA780F83D8048C8BC02
:103AD000FCBA26BEFB4328BEA19665BCBC33CA3DDA
:103AE0000C7E7C3ED82F763EDA7AE33CF0AE3C3D4D
:103AF0008B128C3DEF64113C58B10FBE049F503DBA
:103B0000EE37373D60C914BDFE4A38BD9B6F9ABD84
:103B1000DFFC22BC36CA8C3D260963BD00A4233BD2
:103B20007E05623D8089B93B5470DA3D88BCA53E74
:103B3000FDA99E3E07384A3E6E5D9D3D637683BD7E
:103B4000AFC96D3E2512A03DD7D2763E76BC1C3E55
:103B5000606AA13E9FFF633ECED5753DD9424FBC02
:103B600012E4B03DEB489CBD6EFC06BD9CF6C7BBA5
:103B700061A620BDB99DAABDC7E825BE22D22ABD37
:103B8000485BB6BE1F69FDBE98FB91BE54A5E53CDF
:103B90009285433D80A0DE3BEE272E3EF8FEB13EEF
:103BA000C604DC3E3B65623EDDD4003E10CA8D3D5E
:103BB000BB65603E3FB69A3D6281083EE84050BC1E
:103BC00010C9963D568A0A3E53F7BA3DE1A872BD28
:103BD000B33E2A3DDD64A5BC0FEB17BD5FB8943C36
:103BE000A3B7C8BD995203BEE95A833D42161B3E96
:103BF0006F87E53C470521BEE193D5BE470B52BE1A
:103C00008933973D2DC8A4BD9D9AF03D02B3373E40
:103C100036A5EE3DB26C313BC296B23D376433BE41
:103C2000D5494EBD08BD973DE50F09BC845AC13D3D
:103C3000E804813E43ED173EA8EA153EA9F001BA1B
:103C400036743BBD89A7F9BDA9FBDFBCD5308ABE60
:103C50006ED83ABE5CEFB73DCA3C93BD6BEB80BDFE
:103C6000B6B9953EC61020BEDE6DA4BE0F226CBE56
:103C70004DE082BDFFFC7A3E6774B63B93EF903D0A
:103C8000DFEEDB3DCC0309BDE2A3233EA4FC803D77
:103C9000088ACEBDE4088F3C7E0FAA3CB7B0343E04
:103CA0000629183E4D99CA3DA324D03DAEFFE9BB7D
:103CB0005A257A3CBBF82E3C167B06BDAA832DBE46
:103CC000BB13C6BE0A778DBECCEECCBD7A1DCBBB76
:103CD0002EEBAC3ECF90223EA66A27BEBFF2F2BECC
:103CE00018F483BDF32A643EA473D9BD2B545ABD86
:103CF000ECD4933D6E151CBE08C117BE2684A1BD31
:103D00009F6AC3BD847D883DAC2A013D6B0046BEE1
:103D100012B3EB3D0626CD3D6BF7403D10B0583E4B
:103D2000269032BD6EB3A2BD862B29BEB9098CBECA
:103D30001BEA6EBE758D49BE02DC69BDD860993C38
:103D4000D6F5D63CEEC2263D6BF715BEB3833DBE1D
:103D50009DA740BD2D7A353EF5F8C3BB6DB1BBBD07
:103D6000AE77E5BDC9E666BD8DABC2BE431F2DBEB5
:103D7000D6C0FCBD25FCD2BD10304FBDE48679BE57
:103D80006F5003BD21B1053EE887B03D0B99C8BC1B
:103D9000C0BC2CBDD2A568BED62D82BCFACCD5BD88
:103DA0003C14203D44F4133DE327063EF22A853EB1
:103DB0002688323ED7282C3EB88B2CBF6586FDBEA8
:103DC000BD0423BDC462593DC737EB3EDB7F90BBCA
:103DD0009C2719BEEC3450BE110A6ABEBD3EA0BE7F
:103DE00040A57ABE064F14BEAAA308BE2F91643D1B
:103DF00013F13D3E752E9A3EA2159FBCF406A4BC5D
:103E0000659A24BE44F847BE09204DBE5436A5BD70
:103E1000E326A8BC33F1283C2641833E5CD2303EE9
:103E2000E4C2903D6BA900BE1F4008BF59F37ABDA4
:103E30006D5EB83DEADB5A3D8A89E63D8DD2B23DE2
:103E40006C0786BDD38D1CBE9EADF5BDD68507BE65
:103E500032D79FBEA9FC873DA808343E479A8E3EC4
:103E60000059AD3E45A6C23D8EDF8FBE2A3E28BE1C
:103E7000B5AF3BBEADF301BE2BAAB5BDF18F6BBC98
:103E8000FA9A0B3DABD3CDBD5E0AFD3D3853C43D20
:103E9000DB8901BCD90937BEC20B7CBE1931A53CF8
:103EA00078B5003DF90E14BDB1370EBDE7B17E3DCA
:103EB000AED8BEBDFBF493BC10CE243E1F71513E64
:103EC0006F42743E6CF4973EF126EE3E4D3C053F4A
:103ED00032EEA53E1C4B4DBD4FDF6DBED62394BECA
:103EE0009811D6BCD725303D6FA4703D8F0E84BD90
:103EF0009B6593BD21E377BD28B9FB3D824A74BB26
:103F0000927F613E0D8B9BBD760296BEBB9632BD05
:103F1000A0FB95BD09AF3CBD12C7643ECB78CE3C3B
:103F200003A7943DA2A6FF3D0B24B93E0B55963E38
:103F30003F00FF3EE24DDA3E9E43FC3E08197C3EC8
:103F400027FFCFBDE45937BE15AB3EBE24C615BE14
:103F5000948D093C2D978CBD1910EABCB05B26BB33
:103F6000E4E4723C769B7DBB1E03043E2C44123D70
:103F70003F59783D3024E43DB3382ABEC7ABBE3C40
:103F8000E2C58BBD66CA9B3C972B733EDF4D913ECD
:103F90008F1925BE7A34933EFC3DC13ED27FCF3E81
:103FA00057D4063F9EA7D33E2116AE3EF6317A3D4A
:103FB0005D379EBED16BCEBE73E81BBE17B36A3CA5
:103FC0005CB415BEC984FBBD90C566BECB5C9E3D8E
:103FD000C4B0823C877EC4BDE6F4CCBD9E11893D51
:103FE000A7DCDC3D07591DBE0E67103ED46FFDBC3B
:103FF000F77494BC3D8E923DA9E0783E1DF7C63E15
:10400000A42772BE09A8593E4C3B653EA82B903EA2
:10401000D04C3B3ECFF92A3E3651983DE8018BBE4D
:10402000F51BF3BEBBBCDFBE790CBF3D1E67E03D98
:10403000FC7F85BD7B46993DC2CEF8BDD72E873C1F
:1040400070EE45BD655AF3BDA61667BD2A873B3D98
:10405000F211F73DD41905BE3C6CDB3D462510BE80
:1040600035397A3EF319223ED84A04BD134A8F3EB1
:1040700007A8063EA710733EA1621B3ED53DAC3E8D
:104080008C4E533C5DD6513E6B43E1BD753902BF4A
:104090009A2714BFCFB276BE8224233E83D13A3E04
:1040A000729A8ABC6821DCBC4F7555BD571E593DBC
:1040B0004D39AE3D37EED53DC251DE3C864F24BA78
:1040C0005E98413DE8C410BEB787203E26433BBC06
:1040D0002A8278BD677DAB3C14B01DBD2F105CBB40
:1040E0007FC92E3E7C6F343D79114A3DB7E4373DA0
:1040F000A0B8CBBDBD2510BDC30EA5BEB290EBBE12
:10410000A0799FBE2D8D00BE42E44A3D83E4D3BC1E
:104110005BCCDA3BC921C73D9C00373D808C31BD6B
:10412000137E1CBCBF65513EFA34463E4050063DEE
:10413000480142BE056688BEA7301EBD8846763E51
:10414000F8B694BEB562C43DB0C8F53D1DFC76BE60
:10415000228B853D0C07943D7570273C6D61F1BD48
:1041600094F71CBECDA5FA3BEDA622BE1B2782BE4E
:10417000EC069EBEC24FF5BDEF6941BEC39141BD85
:10418000C9A4863DC2D2813D668CC13D3C6D163EC0
:10419000FADDDA3DCE3F283E8174133E333C5D3D6F
:1041A000F9DA40BE204933BDC9D6DD3BEC20A3BDC2
:1041B00000ABE7BC703BE33D8887473EAF9A40BE0B
:1041C0006C81EDBD165EF5BCA098FCBDE410603CB2
:1041D000FCF4FE3CD438153D0325B73D83F233BED5
:1041E000EC2D58BE65DD51BEBE6CDFBD9C696FBE57
:1041F0009CA93CBD971DC13D179494BDBE24823C33
:104200009660843D02A3B03D7435EFBCA3A610BEFA
:10421000C86528BEB76582BE2CBDBCBDDA099EBC90
:10422000303C9DBD0634C03D9071D6BDBA8620BEDF
:104230008F8761BED4D534BED380A6BD2284C43D51
:10424000D89E20BCCC45A13DB31BCA3D8AA8FBBC6F
:10425000AAFD3CBC52F6F9BC53A5C73CF2A8F1BD7F
:10426000201B92BD2B87F2BD3A30453D6D2DABBD75
:104270004A6C203D4FC961BD42FBFD3C619529BEA2
:104280004D94D8BDADD68ABE80A9963C9A2B55BD1B
:10429000F5EC803D022B2B3DE5FC9DBB4CC29EBD49
:1042A0000C7646BD1FFCD1BD53A68EBE23BF71BE8A
:1042B0000867F0BD859B1BBD30E42BB9380D1E3D52
:1042C000F200693C9CDF803C51E6BEBD374969BDC8
:1042D000B030B5BCB6808ABDE7D09D3D7495AA3D8F
:1042E000369234BE1EAEEABCBE4B093EE6FE17B99E
:1042F000643D00BE4E2278BE93B0E33ED41680BD2E
:10430000FCEA08BD8963D43C6C98D23D37725ABD33
:10431000F4AB5A3D786710BE1DB2D1BDEF62BDBD92
:10432000EBCEBABBD384253D84623EBDEF82763DA1
:10433000115D2C3E574C173D65DF3E3C2DA7343DAB
:10434000E90FD63BC868103CAA242A3DECAB253DBA
:104350002A21D13D96D2913DBCDE013E1925C3BB39
:104360006F349CBE50B8CBBDA817753E0D50AE3D06
:10437000C12105BDDEA8A4BD4F3C89BE4AA89E3E12
:1043800088FC6EBEDEC11ABE3CE4803D942BE83D45
:10439000A66EF0BD7AF5873B02A4823D4FD2713EF6
:1043A00055F86C3DE2F4113C3AE3CC3D32337C3CB1
:1043B0002F3D2DBE38B0F63C2B4E643D12F1F03D42
:1043C0009A3DE63D6700B73D21AD85BD4CFB2CBE57
:1043D000F4E484BE83BF44BD5B5D4CBE0011BF3BB3
:1043E000BC7BE83CB8A36CBC6C53D03D6741B3BD0B
:1043F000AA7C52BE0B3EC03DB63E6F3E6EC0873EAD
:1044000093684F3D74BF4E3E928C253DF9C4F33DF9
:104410003738BA3D5C44DC3D5B09ECBC008E09BE1C
:10442000075798BD90C01B3D9DED4D3D9D065D3EDF
:10443000A0B80DBE86D3E03D0517D63DB6345BBDB2
:104440001B089B3E8A819B3E02E24C3D83509F3D70
:104450003247373D17920BBD183ED73C9A5846BE9F
:104460001EB3E3BC1F37E53DAF2D4C3E4F59473ED1
:104470002C764B3EF675DB3DED56C43D32FC523D8D
:10448000570EA93DF610153EEA78F53DDB8C15BDBB
:10449000CAE5A0BC2A72073E2038ED3D1B5CF93D01
:1044A000BB1DECBDB4F4E1BD07C3B73E92B2C13D44
:1044B00071EA383E40356FBC605D083BE24C213DFF
:1044C0000A3C693DF88865BC38EA95BC46E90CBEF3
:1044D000319240BED284353D20FD813E718FA6BD14
:1044E000C499B9BE7830DB3CDC69EF3D3A30DE3C44
:1044F0004CC5B53D69782B3E324D853D47817E3DAB
:10450000C11E093EF39C70BD025C73BC23EDD03E1E
:10451000B88C783DD4F7F1BDDCE99A3EF310B23E99
:1045200075277ABDF480053DACB1853C8D9286BD82
:10453000706AFFBB32183C3DAA5D7D3DFEC784BD5D
:104540002445C83D328DA03D258862BE49FE86BE09
:104550000E2431BEAB7B34BE87BE62BE73637CBEAD
:1045600071D808BE381A81BE842F133EF0BFA2BD99
:104570008764E1BD3B56B6BD2131ABBE74D4FD3C72
:10458000A641A83ECF950C3F7219C43E36D26F3E6D
:10459000BBA5AB3D6D489DBDE012F3BB745E86BC10
:1045A0007E7E62BD345FAABDC084B1BB6C70E13C4D
:1045B0007172A53DCF1D50BDE4B3203DBE49633DA2
:1045C000420C8FBDCCC19FBDE09ED13C66D8363D2C
:1045D0007D1DEE3DF565F2BC4A2CB6BC098D393B1C
:1045E000AC6280BD28BE0A3C92DF4A3D1844413C83
:1045F000A416963CCABB45BD72EF53BD5D6B6ABD48
:10460000926A5A3D79B731BD67BB833D1256A6BD4C
:1046100074AF8BBC3021F73CA4E4C33C3A06333D75
:104620006886613DC8FA12BD49825CBC5554953D0F
:10463000F644F83D692F163DB27D073EAAD4833D6E
:10464000A2C40B3E7F44D03CA5A0D7BD23D9B6BDA4
:10465000B429C3BD9C4CB53CF1212E3E6F28693E68
:104660009560A23E2340513EF6B1803C5AE7FA3CA9
:10467000607F61BB023B8BBD22785B3D1ACEFEBCE6
:10468000D44CF43C5A627C3DAE82913C3A17E1BD79
:10469000167E713C1ACD653E385D543E5DD26E3E4D
:1046A000F97A823EE9FD803E0793133E3CBA953E7F
:1046B0002A9C383EFB86B93E08DD8D3E6CF9003EF3
:1046C000E6BD49BE2EC1E4BD6CC986BE4EC3C4BDA5
:1046D000174A6C3CC9A9403D4455E63D731D89BD50
:1046E000F9BF4CBD10DBB2BDD145A93D081E083D48
:1046F000C96D64BDA286353D8DD864BBB27B52BD09
:104700003F4D493E0A7F903E3F8BB83E0E2E593EAC
:10471000F2F1AFBDE4A105BE7B74BCBD97F1FEBD57
:10472000E35F8ABE13B513BED3AECBBA7B7C0DBE9E
:10473000312E43BE1DE88BBE5FE49ABE5EA19BBDD9
:10474000B3275B3D7F0114BE16EF3F3D679C703E73
:10475000977B3E3E22130D3D246BBD3D179DA03D32
:104760005CD9B5BC9BDDAC3D9A1AB3395BEF2ABE70
:10477000954B493E9CD3D23E0CF5DB3D26125DBBEA
:10478000E689CBBC867B00398EEB04BD051B80BD62
:104790005D2C083E19B7473E831BEB3D53E4BD3DFE
:1047A000F697383D67B35BBE8BB754BE48A9173D3B
:1047B000711955BBEFAB8E3D91861B3E84B8523EBE
:1047C000DA301A3E59C1CF3E562933BE2C88333DCC
:1047D0001CDC2EBDC423A43CF4A220BB050CEE3C83
:1047E00052254A3E81365B3E0EF7E63D79B86B3E78
:1047F0003DF8BC3E76EF283EFF7A54BE716536BE6A
:10480000C509E13C059F58BE468D32BC4E3ADFBD1E
:104810003306393E6E5A513E1513B2BDB616BEBDB3
:1048200017B9D2BDD721423D3601EFBDBDFB863D54
:10483000FADE023E30E0413E11463EBE02C01DBDE2
:10484000E20B81BDCD97973D2F6B103E9C55E7BC89
:10485000894620BD3D52AF3E04CC043E017CD1BD13
:104860008367263D0DDE393E2A5D4DBEB5C733BE9A
:1048700055CB09BDC0F166BEDE12C9BEE5DD27BE5F
:1048800076BCF43D0278833DE603313C2604BCBB94
:10489000E8DEA7BD30C7C0BC154C13BEDB550A3DD2
:1048A000E92262BE5DEE28BE503118BE08BBA3BC33
:1048B000ECEB903D82B29E3E4E4D733EF9507B3CF8
:1048C0009DF2D13D4C6E933D2794D93CF613673D44
:1048D00075B764BB44D90D3DE5F5413CA0323DBC04
:1048E00054BDA5BD5E1899BE61F98BBE17BC1EBE36
:1048F000E6C0E93DD883983EF775E03D5EB2293EBB
:1049000011EB08BC512011BDACD52A3DB554D5BB27
:10491000DE253EBE269FC1BDB5B559BD1247143D2B
:10492000548245BD2750193E8ECC483E40944A3EA5
:10493000C0AA1E3E6CD4363DBCCC1F3D1E6C4E3E04
:10494000D900363D32F1543E364B083BD33D50BD85
:1049500093AA21BD3E237FBE46C96ABE9C7E4EBD42
:1049600067B33E3E59BBAC3D4C58063D8EFC26BD60
:104970002D6F4EBE5B4A7BBEA2A9EEBDAA2DE83CC0
:10498000715F92BD1D00B5BDCC6F4CBD44515FBB86
:104990004303593C900AD23DE68D7E3B424D0A3D91
:1049A000BC64F53D314D99BDB2F637BD5F45CE3D96
:1049B00077F2FB3D2B5E493D2F57B43DB104B33D2B
:1049C0002490CCBDADEF45BE2D9064BE338B12BCA0
:1049D000A60D833ED092C63D6CAD61BEC07E17BEB3
:1049E00050151D3CB945A8BD2B0960BDE5EC453E01
:1049F0005C32B93DD00F20BE45F0B3BDE5AFFEBD82
:104A00008620FA3CC04E5E3D1DF3A53EDC712BBEF8
:104A10006CCE613E4B4AD7BD216B2DBEA413ECBDBD
:104A2000064A8C3DA241A73C401DB43DE5D44CBB99
:104A300072D413BC348592BE698A56BEC227F53C37
:104A40005F996E3E0CC99B3DF584513CC28F9BBD66
:104A50000DF30ABE9C5920BEDAA8B23D970B77BD74
:104A6000B78EFA3C20B4FABDEB4F78BE284F233EF8
:104A700077074B3C72A01F3EDE6F3CBD30EB283EFB
:104A80009655313E86FC56BD650118BE8802C6BDEE
:104A9000C831BABC49FC8A3CE331C83D3375353D69
:104AA000FCB7FABDD5D785BDF68B893D30E6953D7F
:104AB000FE693A3EF19031BD269AC7BCE1587DBDF2
:104AC0005E8901BE108A0DBEA2037F3DBBAE88BDCC
:104AD000434FCFBD6A028FBD55CA3CBD40BCFA3DB5
:104AE00006E3B13D7481B33D57CEE7BBB650173EE8
:104AF000212F3DBDA0AE683BC3DE5BBE49C9B1BD41
:104B000041641BBD672A80BDFA3323BCD75BA73D38
:104B10009D3289BC5A09C3BC0BEA1A3D3AD1E8BCA4
:104B20000B455B3D230F95BCB14756BDE853D3BD44
:104B3000A0259DBC0B9CE03C5634433E991AE1BD38
:104B4000C8C7C13E577CBC3D9AB7C2BEA7D941BEBB
:104B50006B814EBD8C2E053EEB76E53C6DFC2C3E0C
:104B6000FC01B3BDE2277B3E6083F5BC23782A3D80
:104B7000967D8DBD4FA09F3C330341BD118489BDFF
:104B8000EAC8D9BC84E44FBE3C7CEDBD15CBA6B9C8
:104B90004CF8353D961B5DBD60955E3A120B1A3E92
:104BA000C1728E3D17A9463E6A6B313EDFC4413D5E
:104BB00048311ABCB514DB3D2C00A8BE08B9C83C6E
:104BC000141F97BD7D6AD43DB8A503BEA757DEBCB0
:104BD0000353C7BD64E1383EBE976DBD82F5653DA8
:104BE000704E8D3D5F11383DD830F5BD8E3EA4BD71
:104BF000ADEBDABBB3BC173D362FAC3DBED6C1BD65
:104C0000603EAABDD6A5F43CFFAB4D3E894E963E14
:104C1000305D853D2CED073E1A07063D584DD73CCB
:104C200038F8F9BB07A38C3DD0BC84BE800788BD93
:104C30005F069E3D5494BFBDB13B553D07535A3E60
:104C4000DD722ABE00A8B7BD3B17AABDA3EA4C3E41
:104C50001F74D73BBC641BBEDAC547BE041E6D3C47
:104C6000082C82BCA0F5033ED990623EBA64B7BC62
:104C7000B08F1DBDB37B413CEF40023D439BFB3DEC
:104C8000384E163EB607DDBC443A2D3E6496F7BC5E
:104C9000215849BEEAF4A33D9835853EA468D7BAA9
:104CA00038CA313EB62A7C3BFE970FBEFBB90C3E9C
:104CB0001BE50ABEE354823D43CE523E6781A53ECA
:104CC000868F713E2E6C923D1AFCD7BD63CF1ABE03
:104CD0003AC0403CD26C053E5D81453E38C10F3E36
:104CE0001246CB3DD004C6BAD9D9FB3D84B78A3E23
:104CF000EA058E3D2F7B2C3EA02D673D31B1AABD2C
:104D0000D5E31BBD49863B3EEEC41B3D430894BD25
:104D10003E0E2CBD72959ABCB5086B3E348A563D4A
:104D20009CCF443EDB01B7BB929C773E29D8A63D81
:104D3000158923BDADC4EDBD8EFF4CBE55148CBD91
:104D4000E16200BED59D7F3E723C9E3D9A06823D4B
:104D5000C47B003EAB8269BC89308E3D0ECCAB3D3E
:104D6000E401FA3D12B57C3E0F697A3E6E68B9BC2B
:104D70001AAA993EF1702A3E8D0591BDDA4A72BE9B
:104D80004F2AFBBCAD0B2E3D7F5F2F3EF8982A3E8D
:104D9000AC206D3E8743943D50D0E43A915C91BD88
:104DA000728DFDBD85A59FBEF106F2BE0F5CAFBE44
:104DB00050C34E3EE520A83EE680943D6AE201BD28
:104DC000F494A23D672BC23DB5874B3E7E1A01BDD0
:104DD000554D743B3451123CB3CFE63B17CD8DBEDD
:104DE000ECDE9E3ED293293E641CB7BC477273BE74
:104DF00025D398BDE19BEF3CD3B5853CEE90303E8A
:104E00004062A93EBA8D35BD58C6C93DB0BD74BE1D
:104E10008BC2E2BE4FEBCEBEF17AC6BEB2D31DBE90
:104E2000BDF84D3E17E2A03E0B337D3CE5F6793CE4
:104E30009A78E4BD6FFD563E77B9C13B2E0CF2BDAA
:104E4000D264DC3D93EC3FBEB8BF89BE7A3892BED7
:104E500053005F3EBD3B91BCD1F0713CBA8D87BE23
:104E6000E61E6DBDB02F2C3E39C11B3E6F02583E71
:104E7000F7DAB23EDE15D7BC069B11BD2A9AEFBC0D
:104E8000502ABCBD51448DBE2930E2BE9E4E78BD35
:104E9000125ABF3ED088963E21960E3E95A2473DBF
:104EA00047B2A4BD9D775E3EF6FCDF3D88219FBBE7
:104EB00068C4D53B2F30E8BD70C68FBE91AE4FBEE3
:104EC0005DA3CF3A28436DBE25B6913D25E29E3DB8
:104ED000CFD908BEB2B9DC3DDF21793E0A25CE3EEE
:104EE000A633D63E4655533EA1460CBE95693BBE01
:104EF0000D1AEEBD5CDA61BEFC7381BE122C5ABD88
:104F0000BE6F7C3EEA0C4A3E276B2F3EFB84113E6F
:104F10006707CC3DDED2213D01FF593D6BDB6E3D85
:104F2000328DC4BD4BE0E4BDFC6BD7BCA18ACC3D47
:104F300059FCF7BC62617CBDC2E8933D0D7F253C06
:104F4000EF8983BD9D0796BD3326233EC1CB363CFA
:104F5000D786913E8897CA3EF7B38CBD01CE6BBE13
:104F6000D4A785BE120F5CBEDB9CBEBEBC0035BEA6
:104F700084BB5FBBEB8C523C289CFB3B90FDD03D3F
:104F80003DE24F3CFE9FFA3CEFEDB53CBBD022BD6D
:104F9000F05A42BDE880AA3D51BCA73EA4EA623D5A
:104FA000B0D285BCC25DF1BB0498AE3E929DCDBC33
:104FB0008006433BF6B0D2BC0ADB30BD1E96EEBD88
:104FC0007D2D213ED445943D6CA4F53DFE6021BD70
:104FD000257465BEB9C96DBE742DB3BE4FBEE6BEA5
:104FE000120F44BDA0658B3DE31E613C1528893D31
:104FF0004F8D413E527AA33D6E1F43BDC164A4BD97
:1050000040D5B63CDFCBD93D6C678FBCBC2D59BEBB
:10501000FC1CADBEB81B33BC281EB93E0E51363D3C
:10502000F33681BDB6FB143DDA62443EC55D853E74
:10503000F268AB3E6A071F3ED014E73C11D75EBE54
:105040001D1E5CBED78E0E3C0E6B21BE6FF686BE5B
:10505000A3393EBEFDA4E9BC9D5D2E3E25678C3D77
:105060008656C63D00E8523D78E3BABD2F328ABE6F
:105070009A94D5BDCCCB75BEBC1A2BBE67A395BE8A
:105080009CC7B8BEFDD688BDCE9DBCBC67439ABD4B
:1050900090658DBC5035F63B67D882BDEEC3CCBB66
:1050A0005537C13C479148BEA221ACBCDC6A53BE17
:1050B000FE03EABD91FB2CBE235A25BECBF405BEF0
:1050C000959706BE3BEF63BE1FCEB2BD6D0EEDBD24
:1050D000D22181BDBD26F3BD80A311BE3E398CBE59
:1050E000A75D86BE3CA26FBEF242E8BEA88659BE4E
:1050F000FE9504BE4AA647BEFCB7023DE49E24BD11
:1051000008C1223DCBA9A7BD20E3C3BCD0C68E3CBD
:10511000B127403D5AFCC5BD40B1D6BC0567153E20
:10512000C24210BDF4AE82BD359310BDE6ABBDBD2D
:105130000DE6A6BDC292C1BBB7D43DBE22C854BEC7
:1051400001BC75BE114722BE9AAC19BE7E62A8BED4
:105150003FE60CBF2DE4B4BE1DC850BE02FD213E8B
:10516000488A2E3D4E4B723D50B2FABCE4840CBDD1
:10517000C061E3BCA49F193D080033BDE00D8FBDA5
:10518000FB9B4B3DA5256FBD1A4317BE433A07BE97
:10519000D4678EBD036BD73DC2F80F3E6C3A81BD1C
:1051A000F0FD933A25A6EC3D66F7A8BD7A054DBE05
:1051B00059BC27BE37BF453E96471D3E4BB49EBDEA
:1051C000CF2F80BC03FE9F3B8F2192BD98FBB33D48
:1051D000C6A2793D221D3A3D36E0343D73D16FBD04
:1051E000157E03BD3D343FBD9C4ADC3C4EC184BDB1
:1051F000B16541BDEA28FABC8A5091BDD60B61BDAC
:10520000DCDBEC3C724F81BD6B818F3D00F70B3BCB
:10521000BF6A9C3DD64565BC8B0FA43DB804743D68
:10522000C2C5E2BC4B189A3D78F903BCC0E39CBDF3
:105230000BE4803DD028B03CAC84F33C528B08BDDD
:10524000353E42BD70E2CCBB1330A63DB6A5BCBC1A
:10525000A46D243DD5AA853D48D8FF3C0C3091BCB7
:10526000AD0E513DBB157EBD5065943CC49E9F3D27
:10527000D7D2EC3CD103913D7F3C6ABDCB05A33D29
:105280008F3F803DB8EBC2BBCF5AAFBD23429E3C9F
:10529000DAC4743AA9D10F3CB53CEBBDEE181EBE82
:1052A000831932BD9058393D9EF8EB3A7039033E70
:1052B0003448163DD8E3D13CF892D1BC009AFF3A6D
:1052C000BEF2DFBCD801103DEF53A63C0A8E063C6F
:1052D0001AD3A0BC7A16F1BC38B7C73D5D671EBDB6
:1052E000D494713DC63D5E3EAD102A3D6CA7AE3DE7
:1052F0004BFF5B3EF72D98BE657FABBEF798E5BED2
:10530000CD8B01BF2A618EBEE9D5C5BEC34F8DBE10
:105310002246A4BEFA4434BC2F3950BE8F648E3D61
:105320008BC2953D2A62053EEC9A98BDEED84EBDE3
:1053300043D0863DEA8DF7BCCA921DBB85FF6C3D0C
:10534000137F9F3C543D313DC5AA603CD4BFE1BDB5
:10535000D9D9DABDAB65A53E4535343EB37DC43DF4
:105360004050043EEC61213E159A9B3DF1E0E2BDC8
:105370004455F2BD24D305BDF603143D252F2ABDA7
:105380009F3263BCA0BCDF3C6B2632BEFED20CBD9C
:1053900071C04D3ED709B43EFC8F573E48A2F23C47
:1053A0002C85913C4D7398BDAA0390BE7DD79BBEC2
:1053B000E4CB4CBE496E2DBCEA65A43E0E6F723E36
:1053C000C9A89CBD6459A13D01E0BCBDBDD5803DCF
:1053D00046C4403D29DEDC3D45CDFA3D836045BCF9
:1053E000D120AABDA01A833DC7B6263E02AFC03D5C
:1053F0006EEB89BC2BB683BCA1D36B3D428D05BE41
:10540000D5F4723DD24A1ABE47C6B63E4E89EABDB1
:10541000BCE9EC3CA485AABD1D4098BE61706EBE7F
:10542000CC9735BEF4D96BBE57C95E3DEDE7B53DAF
:10543000430EF93D1BB8263E9D822D3E4264893EB7
:1054400074BC3E3E13D5993EDAEC2C3ED807273E7D
:1054500050BF183EDEAEA03DB9ED7C3E492B393D34
:105460002103393E715C023DAA434E3DD24C9E3C25
:105470000D9561BDA38AFA3E66B29E3EEB1F0A3BC4
:10548000E04D45BB467079BDA137593E0F3184BE12
:105490002B21B9BDA40856BD83EE023E2C0E093E59
:1054A0007F05633EB502753E9893583EE3ABA13E3F
:1054B000FE74A93EBCFFA83E3872F43E63A7CC3E02
:1054C000818E963E3A2B2E3E8CBAA83D37B1D23D06
:1054D0004BBA3A3D9F50693D269EAB3DECB3973C9D
:1054E0007ABA3ABBE67F813E23D3843DDB32AA3DC4
:1054F000CB4088BDAD1B5ABEA23F483ED10D9B3D5F
:10550000EC8803BE372209BEA4E7533EDE4F113EAE
:10551000E625743EA966653EC6F7883E44019A3E7C
:10552000F09C9F3E3F1AC03EA388823E1F3A8B3EAE
:105530007E2A993E4E39993D7F24AF3DC3C74FBD6A
:1055400072BBA6BD28B3413DBC0AF4BDA01193BEF9
:10555000B1D912BE2AC50DBD6D3B16BE4055563E93
:105560000CC186BD24E22F3DF67FE83D10AFC6BEDC
:1055700048522FBEC45F28BE4B8B103E14B6693C08
:10558000D2DFBE3EC3FE143E79EF113E9BB75C3EB8
:10559000647C013E1872B63D56A9643E88FCE33C2B
:1055A00021D5DF3BE7B4ADBD9315143E81C3353E35
:1055B000BD9D983C3AFEE8BC59EF0E3D80CD07BE3C
:1055C000020BB2BD0925693EE8B310BEE9C035BC87
:1055D000A4B6E7BC176A653D0729A0BDFD2070BED3
:1055E00005A03DBE2875623CB37259BDFAAE293E96
:1055F00030FAEA3CE5924C3D9561223C8EC067BC96
:10560000D72836BE186F2CBECD7344BE7AC5C5BD33
:105610009B771FBE3610E33D172EE73D61E3033E47
:105620007626B8BC808A78BDDF2763BD4889903B69
:10563000685EBD3DF080973E7EE44CBEDCF15CBB15
:105640000DB444BD7235C83C37E366BD959915BEAF
:10565000007ED3BDAAA62E3E53A5733E6D7D923D1E
:10566000A7FA56BD4B84D5BD0C9AAABDF6F432BE3E
:105670003BD7B8BE19229BBE3B4016BE0FB208BE38
:1056800025DBCABC3EE4B13D2BE7203E5C4E34BD79
:10569000AFF63EBD28B1163E6E2AB23DF3228C3CD9
:1056A000C45601BB43E1543EFB2FA43D14960FBDED
:1056B000F6F80F3DD1C2B9BD3DEE573C5F31E63C37
:1056C0005BC9CB3B84D324BED14EAB3DB97CE6BD98
:1056D000C8E457BE1F3118BED92B1FBE07813FBE7D
:1056E000601261BE048AFCBDCA5C25BE662800BE8D
:1056F00039FE653CDE0B2D3E6527BA3BE58C053E49
:105700007438063E2A9F253D1E9DEF3D2B337B3C82
:10571000933C9D3D743AA03D0397E7BD2C663DBE8A
:105720008830443CE1A998BD2B8B6C3D103D693C11
:1057300026DD04BD29868CBE1CEA96BD7A8C46BE49
:10574000C516EEBD266F6BBCD35FCCBD4EE63BBE2F
:105750004B5C69BE183F8F3CBFC937BE5F7E12BE2F
:10576000FB72DCBD2F40BFBDBC90B9BDAADD09BD39
:105770000D2EEE3DCB9599BDE824AA3CEF001FBC51
:105780000BF492BDBE84DEBDE9AC32BE2D4008BE36
:1057900020FB4DBEE09D8BBC0A6A083DC0F043BCB7
:1057A000EBEF27BD13B059BEF30064BE5F929ABD04
:1057B000482E77BDC832393D83153B3C47C219BEE0
:1057C000DCE5FEBDFCE2C2BD0A1F70BE4D5B29BD1B
:1057D0004D1D81BDFBB17ABD474E30BD65D6453DFF
:1057E000E395583DF5B626BDBC05B23DBADBD33DC9
:1057F000A73926BDE86D8FBD3E3825BE1282823D99
:105800008A90353DDEECD7BDFB9EA8BD36430ABE6F
:10581000B01E02BD76B955BEDE895EBD7EDA413D61
:105820006D90263DA38706BDD26C923CB72A61BE1F
:1058300050AD76BD094B39BCC455C3BD4400833C53
:10584000552097B9504C33BE448AAFBCA768C3BD3E
:10585000C85CF3BBFC8287BDE2C2463E72C7F03C27
:10586000088FCCBC586A82BDEC21283E48DCB83D8C
:10587000EECA603DE0AE18BED7E06EBE4E41853E3A
:105880002144FD3CE82A8EBD3C980C3D8170823D50
:10589000568BCB3CE2B08D3D9D3D9C3CF3190EBE3A
:1058A0005E16F8BD79CCC1BD98AD4CBD21DB073D7E
:1058B0003443973D5D46323C440E57BD4EE243BEF5
:1058C000CA7372BBBCC62F3E2E448C3B7E2CC9BD16
:1058D0008143A93DFCD72CBE363FDC3C9902A83D54
:1058E0003459093D085C89BDAA427BBD6C0FDD3C83
:1058F000AD22FB3D5A4DFFBD6EE6203D4AF1FF3D16
:10590000D33F1E3B3602B9BC96C7BBBDF19DB3BDAC
:10591000F1F80D3DB2BF17BE29AC90BD1C5629BD94
:10592000B6EE91BDC17D673C9DA193BD747E06BE60
:105930006405503DD155123E5C880D3E0F12E33C8C
:10594000BD2629BDF05642BE6910703DE0F3183EF9
:105950008229783DD7BC27BE30D716BECFF6953DFD
:10596000F1185B3D7217AABD3E46B0BDBE327FBD89
:10597000AC80193DF36727BEA6798EBD702E09BE97
:10598000B893E1BDFE0621BE71B9C5BD9839A93BEA
:1059900060F91EBD4EEF623B3908CCBDA4C750BEB6
:1059A00037ADF3BD37A03BBEF35A4FBD76B327BE2C
:1059B000B8E102BED98AB13E592B0EBEF1B4DE3D2C
:1059C000F0E065BDC5929CBD25AB1CBE17C83F3D30
:1059D0007A8B523D2FBDD9BD09E6B93CC82B1C3D81
:1059E000E57D1EBD7E9534BED8C440BD76158C3C89
:1059F00049C5B6BCFF2696BEC8ED0BBDA82B9A3D87
:105A000041AB533DB54A243D257121BD9614A6BD39
:105A1000CC460DBEBEE4EDBD6D1E373EDA30003E15
:105A200034909D3CD80CBA3E7852033E85BC183C5D
:105A3000C140803C2AF8F8BBC53B1E3E190048BD5A
:105A4000CC391A3D692F843BB4126B3D1A28C83CEF
:105A50009702B8BDB3B9B9BDC183853D517C153E30
:105A6000DF3DB53D226CCA3D5AA929BDEC3D343D10
:105A70006AF2CCBD1D5FB8BB22A6803C063F19BDB3
:105A80000688AABC23B85DBCE0CBBDBDF57E34BEA4
:105A9000A6998ABD5A859F3EB1CD123ED9000EBC53
:105AA00035DD9B3D41B56C3C5D41513E5F8B38BD62
:105AB000C326EF3DE0AD713E35D8263E40860F3D12
:105AC000B67E433E8863033D0981813DD120973DE9
