:020000040800F2
:1000000000A0002031210008792100087921000892
:1000100079210008792100087921000800000000FA
:10002000000000000000000000000000792100082E
:1000300079210008000000007921000879210008DA
:1000400000000000000000000000000000000000B0
:1000500000000000000000000000000000000000A0
:100060000000000000000000000000000000000090
:100070000000000000000000000000000000000080
:100080000000000000000000000000000000000070
:100090000000000000000000000000000000000060
:1000A0000000000000000000000000000000000050
:1000B0000000000000000000000000000000000040
:1000C0000000000000000000000000000000000030
:1000D0000000000000000000000000000000000020
:1000E0000000000000000000000000000000000010
:1000F0000000000000000000000000000000000000
:1001000000000000000000000000000000000000EF
:1001100000000000000000000000000000000000DF
:1001200000000000000000000000000000000000CF
:1001300000000000000000000000000000000000BF
:1001400000000000000000000000000000000000AF
:10015000000000000000000000000000000000009F
:10016000000000000000000000000000000000008F
:10017000000000000000000000000000000000007F
:08018000000000000000000077
:1001880080F0004002E000BF81F0004142001FBF44
:100198005FEA410392EA030F7FEA226C7FEA236C4D
:1001A8006AD04FEA1262D2EB1363C1BFD218414042
:1001B80048404140B8BF5B42192B88BF704710F0D8
:1001C800004F40F4000020F07F4018BF404211F07B
:1001D800004F41F4000121F07F4118BF494292EAE3
:1001E800030F3FD0A2F1010241FA03FC10EB0C000F
:1001F800C3F1200301FA03F100F0004302D549429C
:1002080060EB4000B0F5000F13D3B0F1807F06D348
:1002180040084FEA310102F10102FE2A51D2B1F140
:10022800004F40EBC25008BF20F0010040EA030035
:100238007047490040EB0000013A28BFB0F5000FB5
:10024800EDD2B0FA80FCACF1080CB2EB0C0200FA6B
:100258000CF0AABF00EBC25052421843BCBFD040BA
:100268001843704792F0000F81F4000106BF80F434
:1002780000000132013BB5E74FEA41037FEA226CF7
:1002880018BF7FEA236C21D092EA030F04D092F0C2
:10029800000F08BF0846704790EA010F1CBF0020F6
:1002A800704712F07F4F04D1400028BF40F0004053
:1002B800704712F100723CBF00F50000704700F073
:1002C800004343F0FE4040F4000070477FEA22629A
:1002D80016BF08467FEA23630146420206BF5FEA6B
:1002E800412390EA010F40F4800070474FF000036B
:1002F80004E000BF10F0004348BF40425FEA000C32
:1003080008BF704743F0964301464FF000001CE0D9
:1003180050EA010208BF70474FF000030AE000BF2F
:1003280050EA010208BF704711F0004302D540426D
:1003380061EB41015FEA010C02BF844601460020DF
:1003480043F0B64308BFA3F18053A3F50003BCFAFA
:100358008CF2083AA3EBC25310DB01FA02FC6344A7
:1003680000FA02FCC2F12002BCF1004F20FA02F2AE
:1003780043EB020008BF20F00100704702F12002A1
:1003880001FA02FCC2F1200250EA4C0021FA02F202
:1003980043EB020008BF20EADC7070474FF0FF0C07
:1003A8001CEAD0521EBF1CEAD15392EA0C0F93EA02
:1003B8000C0F6FD01A4480EA010C400218BF5FEAA4
:1003C80041211ED04FF0006343EA501043EA511117
:1003D800A0FB01310CF00040B1F5000F3EBF490011
:1003E80041EAD3715B0040EA010062F17F02FD2A15
:1003F8001DD8B3F1004F40EBC25008BF20F00100F8
:10040800704790F0000F0CF0004C08BF49024CEA0E
:10041800502040EA51207F3AC2BFD2F1FF0340EAA0
:10042800C250704740F400004FF00003013A5DDC11
:1004380012F1190FDCBF00F000407047C2F1000252
:10044800410021FA02F1C2F1200200FA02FC5FEA3F
:10045800310040F1000053EA4C0308BF20EADC7089
:10046800704792F0000F00F0004C02BF400010F4FB
:10047800000F013AF9D040EA0C0093F0000F01F0A8
:10048800004C02BF490011F4000F013BF9D041EACA
:100498000C018FE70CEAD15392EA0C0F18BF93EACC
:1004A8000C0F0AD030F0004C18BF31F0004CD8D1F6
:1004B80080EA010000F00040704790F0000F17BF7D
:1004C80090F0004F084691F0000F91F0004F14D0C3
:1004D80092EA0C0F01D142020FD193EA0C0F03D11B
:1004E8004B0218BF084608D180EA010000F000401E
:1004F80040F0FE4040F40000704740F0FE4040F4F9
:10050800400070474FF0FF0C1CEAD0521EBF1CEA97
:10051800D15392EA0C0F93EA0C0F69D0A2EB0302B5
:1005280080EA010C49024FEA402037D04FF080534F
:1005380043EA111143EA10130CF000408B4238BF14
:100548005B0042F17D024FF4000C8B4224BF5B1A22
:1005580040EA0C00B3EB510F24BFA3EB510340EA70
:100568005C00B3EB910F24BFA3EB910340EA9C001E
:10057800B3EBD10F24BFA3EBD10340EADC001B018E
:1005880018BF5FEA1C1CE0D1FD2A3FF650AF8B4232
:1005980040EBC25008BF20F0010070470CF0004C3F
:1005A8004CEA50207F32C2BFD2F1FF0340EAC2506A
:1005B800704740F400004FF00003013A37E792F02B
:1005C800000F00F0004C02BF400010F4000F013A89
:1005D800F9D040EA0C0093F0000F01F0004C02BF84
:1005E800490011F4000F013BF9D041EA0C0195E7ED
:1005F8000CEAD15392EA0C0F08D142027FF47DAF86
:1006080093EA0C0F7FF470AF084676E793EA0C0F75
:1006180004D14B023FF44CAF08466EE730F0004C73
:1006280018BF31F0004CCAD130F000427FF45CAF03
:1006380031F000437FF43CAF5FE700BF4FF0FF3C71
:1006480006E000BF4FF0010C02E000BF4FF0010CC4
:100658004DF804CD4FEA40024FEA41037FEA226C8D
:1006680018BF7FEA236C11D001B052EA530C18BFAF
:1006780090EA010F58BFB2EB030088BFC81738BF14
:100688006FEAE17018BF40F0010070477FEA226C02
:1006980002D15FEA402C05D17FEA236CE4D15FEAFE
:1006A800412CE1D05DF8040B704700BF8446084632
:1006B8006146FFE70FB5FFF7C9FF002848BF10F1F3
:1006C800000F0FBD4DF808EDFFF7F4FF0CBF012038
:1006D80000205DF808FB00BF4DF808EDFFF7EAFFC2
:1006E80034BF012000205DF808FB00BF4DF808ED7D
:1006F800FFF7E0FF94BF012000205DF808FB00BF72
:100708004DF808EDFFF7D2FF94BF012000205DF8F7
:1007180008FB00BF4DF808EDFFF7C8FF34BF012004
:1007280000205DF808FB00BF4FEA4002B2F1FE4F1F
:100738000FD34FF09E03B3EB12620DD94FEA00239B
:1007480043F0004310F0004F23FA02F018BF404274
:1007580070474FF00000704712F1610F01D142025B
:1007680005D110F0004008BF6FF0004070474FF00F
:10077800000070470348044B834202D0034B03B187
:100788001847704754000020540000200000000063
:100798000548064B1B1AD90F01EBA301491002D0DB
:1007A800034B03B118477047540000205400002041
:1007B8000000000010B5064C237843B9FFF7DAFFB4
:1007C800044B13B10448AFF300800123237010BD1C
:1007D800F00A0020000000000829000808B5054BB1
:1007E8001BB105490548AFF30080BDE80840FFF795
:1007F800CFBF00BF00000000F40A0020082900084D
:10080800074A13785178402B84BF4023137040293E
:1008180002D9402353707047994238BF117070470E
:10082800000000201FB51D4B1A788DF800201A799A
:100838008DF801205A798DF802209A798DF80320D5
:100848001A7B8DF804205A7B8DF805209A7B8DF849
:100858000620134A91788DF80710D1788DF8081082
:10086800198A8DF80910090A8DF80A10997CDB7C21
:100878008DF80C3013788DF80B108DF80D3000249E
:1008880053788DF80E306A46102172208DF80F408B
:1008980001F078FB204604B010BD00BF54000020D2
:1008A80000000020022A13B50E4C0F4809D91A7807
:1008B800022A98BFE2745A789B7802704370FFF757
:1008C8009FFFE37C8DF8043003788DF8053001AA8A
:1008D80043788DF806300321722001F053FB002085
:1008E80002B010BD5400002000000020062A07B501
:1008F8000B4A0AD91978062907D811715978517104
:100908009978D3F803309171936013798DF8043096
:1009180001AA0121722001F035FB002003B000BDBF
:100928005400002007B508491AB11B78032B98BF5B
:100938000B700B788DF8043001AA0121722001F0A8
:1009480021FB002003B000BD5400002007B5054B73
:10095800019301AA0421722001F014FB002003B0C6
:1009680000BD00BFDEADBEEFF0B51D4D2C7B6F7B2B
:10097800003C18BF01248DB044F00206002F18BFB8
:100988003446AF7B8DF8042044F004062A78129D83
:100998008DF80200002F18BF3446002B8DF8031085
:1009A8008DF805208DF806300FCD44F00806F6B214
:1009B80018BF34468DF8074002AC0FC40FCD0FC4E2
:1009C80045F6A526ADF8006095E803006A4684E878
:1009D80003003021722001F0D5FA0DB0F0BD00BF40
:1009E8005400002070B58CB002AC05460E46282293
:1009F8000021204601F044FF00943346FF220021E5
:100A08002846FFF7B1FF0CB070BD000010B5064CCA
:100A18004FF44472002104F1140001F031FF002367
:100A28002373238210BD00BF5400002010B5164C5C
:100A38002822002104F5497001F022FF2822002114
:100A480004F5537001F01CFF4FF48072002104F587
:100A58005D7001F015FF4FF48072002104F27440BC
:100A680001F00EFF4FF48072002104F2745001F07F
:100A780007FF064A0023FF216373A37384F87436C3
:100A88009170D170A37410BD5400002000000020A4
:100A980007B5FFF7BBFFFFF7C9FF45F2AA5301AA45
:100AA80002217220ADF8043001F06CFA002003B086
:100AB80000BD00B5A1B080220021684601F0E0FE2B
:100AC8006A468021722001F05DFA21B000BD000065
:100AD80008B5074A92F874361BB9FFF7EAFF0020F9
:100AE80008BD02F57D728021722001F04BFAF6E70D
:100AF8005400002008B5074A92F874361BB9FFF76E
:100B0800D8FF002008BD02F55D728021722001F037
:100B180039FAF6E75400002008B5074A937B1BB959
:100B2800FFF7C7FF002008BD02F2F44280217220BF
:100B380001F028FAF6E700BF5400002008B5074A7C
:100B4800937B1BB9FFF7B5FF002008BD02F2744282
:100B58008021722001F016FAF6E700BF5400002049
:100B680000B58BB028220021684601F089FE6A464C
:100B78002821722001F006FA0BB000BD08B5074A1B
:100B8800937B1BB9FFF7ECFF002008BD02F55372F9
:100B98002821722001F0F6F9F6E700BF5400002082
:100BA800F7B5184E312A378A09D0ADF8047001AA72
:100BB8000221722001F0E6F9002003B0F0BD1C7894
:100BC80004EB44042401B4F5447F17D2C4F54475FA
:100BD800ADB2302D28BF302506F1140020442C4436
:100BE800A4B2591C2A4601F07DFEBC4284BF2746A8
:100BF8003482B7F5447F24BF01233373338AADF8B9
:100C08000430D4E75400002070B5114E114B06F69D
:100C18007805D8700FCD06F553740FC40FCD0FC4E7
:100C280095E803004FF4807284E8030006F5EF614D
:100C380006F2744001F056FE4FF4807206F5CF615B
:100C480006F2745001F04EFE0123B37370BD00BF6D
:100C58005400002000000020F8B5084E084F051F7A
:100C680000F63C4416F8010BFFF740FB3946FFF746
:100C780049FC45F8040FA542F4D1F8BD68000020EE
:100C880000007F4300B5ADF6444D6846FFF7E4FF2A
:100C9800054968460A7801F5CF6100F085FAC0B2C7
:100CA8000DF6444D00BD00BF5400002030B5354C52
:100CB800E37C022BADF64C4D1FD100F02BFB02A8B4
:100CC800FFF7CAFF04F5CF6102A800F0A5F9224694
:100CD80004F5CF6012F8041B00F01BFA04F5CF608E
:100CE80000F020FA04F6780000F048FAC4B200F0E8
:100CF80018FB20460DF64C4D30BD02A8FFF7ACFF9F
:100D080004F5CF6102A800F087F9E37C012B2CD110
:100D18001D4DFFF775FD22462B7812F8041B009332
:100D280004F5CF60002300F0A3F900F0F3FA22469F
:100D38006B7812F8041B00932B7804F5CF6000F051
:100D480097F900F0EEFA2246402312F8041B0093AC
:100D58006B7804F5CF6000F08BF90C4800F0E2F9ED
:100D68000B4800F00BFAC4B2C3E700F0D3FA2246EE
:100D780004F5CF6012F8041B00F0CBF900F0D1FAAB
:100D8800EBE700BF5400002000000020CC06002044
:100D9800CC08002007B5FF238DF80430094B1B7BD6
:100DA8003BB901AA0121722001F0ECF8002003B040
:100DB80000BDFFF77BFFFFF727FF034BDB788DF8BC
:100DC8000430EEE7540000200000002013B50E4C5C
:100DD800237B33B921790120FFF704FE002002B0FC
:100DE80010BDFFF763FFFFF70FFFA17C074A013132
:100DF80004F55373C9B2A17400932379D278012002
:100E0800FFF7B2FDEAE700BF540000200000002011
:100E180070B50E4E0E4B06F6780598700FCD06F598
:100E280049740FC40FCD0FC495E803004FF48072C6
:100E380084E8030006F5EF6106F55D7001F052FDE8
:100E4800012386F87436737370BD00BF5400002008
:100E58000000002013B50D4C217B29B90846FFF787
:100E6800C1FD002002B010BDFFF70CFFFFF7D0FF57
:100E7800A17C074A0131C9B2A17404F549740094F0
:100E8800002392781846FFF76FFDEAE75400002028
:100E98000000002010B5094C237B1BB9FFF760FE4A
:100EA800002010BDFFF7EEFEFFF7B2FF04F5497210
:100EB8002821722001F066F8F2E700BF54000020F4
:100EC80008B500F087F900F0C3F900F0FFF9FFF763
:100ED8009DFDFFF7ABFDFFF793FC01F041F8294AB0
:100EE80000217A2001F022F8274A0021632001F02E
:100EF8001DF8264A0121612001F018F8244A07212B
:100F0800662001F013F8234A0321742001F00EF83B
:100F1800214A3121782001F009F8204A0021622075
:100F280001F004F81E4A00216E2000F0FFFF1D4A60
:100F38000021692000F0FAFF1B4A0021672000F019
:100F4800F5FF1A4A00216F2000F0F0FF184A00212F
:100F5800732000F0EBFF174A0021682000F0E6FF3D
:100F6800154A00216A2000F0E1FF144A002171208F
:100F780000F0DCFF124A0021752000F0D7FF01F0D5
:100F88005FF8FCE755090008990A00082D090008D0
:100F9800F5080008AD080008A90B00089D0E000818
:100FA8005D0E00089D0D0008D50D0008850B000892
:100FB8002D080008450B0008210B0008FD0A000851
:100FC800D90A0008022913B5044612D0032915D0FE
:100FD800012919D100F1004001F0CCF84FF07E5101
:100FE800FFF7D4F801464FF07E50FFF78BFA02B0B6
:100FF80010BD02B0BDE8104001F0E4B8C30F013BDA
:1010080018400190019BF2E70021FFF783FB08B12C
:101018002046ECE70020EAE72DE9F74FDFF8489093
:10102800124F82460E1F01F1FC0500F63C4359F8A9
:10103800044BAAF10408BB4658F8041F5BF8040BDC
:101048000193FFF7ABF901462046FFF79FF8019B94
:1010580098450446F0D146F8040FAE4207F54467B8
:10106800E5D103B0BDE8F08F5033000850340008D4
:101078002DE9F0411546069A402AA8BF402223EAE6
:10108800E374A2420E4690460BDD002BCBBF04F161
:101098003F03002450F82310002100EB8407444547
:1010A80001DBBDE8F0812A7857F8043B013A052AAC
:1010B80007D8DFE802F0030B101519216A78A2425D
:1010C80015D031461846FFF77DFF20E06A78A24226
:1010D800F7D100230BE06A78A242F2D10B4606E072
:1010E800AA78A242F5DDECE7AA78A242E9DCC7F8C3
:1010F800FC3001341946D2E718463146FFF762FF43
:101108006A78A2420346F2D16968FFF73FF80346BE
:10111800EDE707B5402300930023FFF7A9FF03B0CD
:1011280000BD00002DE9F74F00F5FE7ADFF8449086
:10113800114E074600F50973554659F8044B07F157
:10114800FC08B34658F8041F5BF8040B0193FFF73B
:1011580025F901462046FFF719F8D045019B0446BA
:10116800F0D145F8040F9D4206F58076E5D103B02D
:10117800BDE8F08F28290008502900082DE9F04122
:10118800066807460124002557F824803146404662
:10119800FFF7C0FA08B14646254601340A2CF3D1B8
:1011A8002846BDE8F081000038B50C461546FFF723
:1011B80033FF29462046064AFFF7ABFF2046FFF7D4
:1011C800B1FF04F50070BDE83840FFF7D7BF00BF96
:1011D8002029000870B596B0002403264FF4A023F8
:1011E8000CA80125CDE90C631094149400F0D0F8F4
:1011F8000F23214602A8CDE90235CDE9044406941F
:1012080000F00CFB104B11485A6942F400225A6155
:101218005B6903F400230193019B07A94FF4C043C2
:10122800CDE90735CDE9094600F098FB2A4607487D
:101238004FF4005100F04CFC04482A464FF480411A
:1012480000F046FC16B070BD0010024000080048CF
:1012580010B54FF4C06288B00223CDE90323012101
:101268000323CDE90513164C07230793636943F459
:1012780000336361636903F40033019303A94FF0FA
:101288009040019B00F06AFB0E4A0F4B13604FF42D
:1012980061300023C2E90103C2E9033393610C23DF
:1012A8005361A36943F48043A361A36903F48043B2
:1012B80002931046029B00F01EFD08B010BD00BF4F
:1012C80000100240F40800200038014030B5104BEF
:1012D8005A6942F4003287B05A615B6903F40033FB
:1012E8000093009B4FF480540123CDE9014300256E
:1012F800032301A94FF09040CDE9035300F02EFBE2
:101308002A4621464FF0904000F0E2FB07B030BD7E
:101318000010024001224FF480514FF0904000F03D
:10132800D7BB00224FF480514FF0904000F0D0BB63
:1013380013B5094C094841F2883301220DF1070120
:1013480000F058FD18B99DF8070002B010BD236AD7
:1013580043F008032362EDE700380140F408002059
:1013680007B541F288338DF8070001220DF1070116
:10137800024800F0EAFC03B000BD00BFF4080020FA
:10138800024B1868421C1A60704700BF64090020AD
:1013980003682DE9F743D907044610D423689A0750
:1013A8007ED423681E0700F1E78023685D0700F1FB
:1013B8002A81E269002A40F0AD8100201FE0AE4991
:1013C8004B6803F00C03042B07D04B6803F00C03A5
:1013D800082B17D14B68DB0314D54FF4003393FA6D
:1013E800A3F2096893FAA3F30122B3FA83F302FA8A
:1013F80003F30B42D2D06368002BCFD1012003B096
:10140800BDE8F0836268B2F5803F22D10B6843F4EF
:1014180080330B60CB6AA06823F00F030343CB62D1
:101428003AB3FFF7ADFF4FF400350646012795FAAA
:10143800A5F30A6895FAA5F3B3FA83F307FA03F359
:101448001342ABD1FFF79CFF801B6428EFD9032020
:10145800D5E70B6832B923F480330B600B6823F4AB
:101468008023D6E7B2F5A02FF5D143F480230B6093
:10147800CCE7FFF785FF4FF400350646012795FABC
:10148800A5F30A6895FAA5F3B3FA83F307FA03F309
:10149800134283D0FFF774FF801B6428EFD9D6E787
:1014A80075494B6813F00C0F07D04B6803F00C0319
:1014B800082B1FD14B68DF031CD4022393FAA3F235
:1014C800086893FAA3F30122B3FA83F302FA03F349
:1014D800034202D02369934290D10868F82292FA15
:1014E800A2F26369B2FA82F2934020F0F802134341
:1014F8000B6056E722690125F2B195FAA5F3B3FA14
:1015080083F303F1845303F584139B0002271D60C2
:10151800FFF736FF064697FAA7F30A6897FAA7F384
:10152800B3FA83F305FA03F31342D6D1FFF728FF82
:10153800801B0228EFD98AE795FAA5F3B3FA83F35B
:1015480003F1845303F584139B0002271A60FFF705
:1015580017FF064697FAA7F30A6897FAA7F3B3FAAC
:1015680083F305FA03F313423FF41BAFFFF708FFB9
:10157800801B0228EED96AE7A0693F4D3F4A012146
:1015880000B391FAA1F3B3FA83F313449B00022644
:101598001960FFF7F5FE074696FAA6F396FAA6F342
:1015A80096FAA6F36A6A96FAA6F3B3FA83F301FAEF
:1015B80003F313427FF4F9AEFFF7E2FEC01B0228E3
:1015C800EAD944E791FAA1F3B3FA83F313449B00F1
:1015D80002261860FFF7D4FE074696FAA6F396FA95
:1015E800A6F396FAA6F36A6A96FAA6F3B3FA83F311
:1015F80001FA03F313423FF4D8AEFFF7C1FEC01B54
:101608000228EAD923E71C49CB69D80031D4CB6931
:1016180043F08053CB61CB6903F080530193019B66
:101628000125174E3368DA052CD5E368012B39D12B
:101638000B6A43F001030B62FFF7A2FE022607467E
:101648004FF0010841F2883996FAA6F396FAA6F304
:101658000A6A96FAA6F3B3FA83F308FA03F3134275
:1016680052D0002D3FF4A5AECB6923F08053CB6157
:101678009FE60025D5E700BF0010024020819010AA
:1016880000700040336843F480733360FFF778FEDE
:1016980007463368DB05C8D4FFF772FEC01B642811
:1016A800F7D9D4E613BB0B6A23F001030B620B6A6C
:1016B80023F004030B62FFF763FE022607464FF090
:1016C800010841F2883996FAA6F396FAA6F30A6A4F
:1016D80096FAA6F3B3FA83F308FA03F31342C0D0D9
:1016E800FFF74EFEC01B4845EDD9B0E6052B0B6A47
:1016F80003D143F004030B629AE723F001030B6262
:101708000B6A23F0040396E7FFF73AFEC01B48452F
:101718009AD99CE63F494B6803F00C03082B3FF429
:101728006DAE022A4FF0807350D193FAA3F3B3FA47
:1017380083F303F1845303F584139B0000221A609A
:10174800FFF71EFEDFF8D08006464FF00077012530
:1017580097FAA7F30A6897FAA7F3B3FA83F305FA97
:1017680003F313422CD1D4E908034A68034322F453
:10177800741213434B604FF0807393FAA3F3B3FAD8
:1017880083F303F1845303F584139B00224F1D60F8
:10179800FFF7F6FD4FF000740546012694FAA4F30E
:1017A8000A6894FAA4F3B3FA83F306FA03F313422C
:1017B8007FF403AEFFF7E4FD401BB842EED946E6DE
:1017C800FFF7DEFD801B4045C2D940E693FAA3F33C
:1017D800B3FA83F303F1845303F584139B000022C7
:1017E8001A60FFF7CDFD0C4F05464FF00074012637
:1017F80094FAA4F30A6894FAA4F3B3FA83F306FA02
:1018080003F313423FF4D9ADFFF7BAFD401BB842CA
:10181800EED91CE600100240400D03004D4AF8B511
:10182800136803F007038B42054611D32A6894070F
:101838001AD4D00720D4474A136803F007038B4211
:101848006CD82A68510774D413077AD400200AE0A8
:10185800136823F007030B431360136803F00703AF
:101868008B42E3D00120F8BD3B48AC68436823F0C5
:10187800F00323434360DCE76A68374C012A25D12B
:101888004FF4003393FAA3F0206893FAA3F3B3FA62
:1018980083F302FA03F30342E4D0636823F00303FB
:1018A80013436360FFF76CFD6B68012B064641F23A
:1018B80088371CD1636803F00C03042BBBD0FFF7F7
:1018C8005FFD801BB842F5D90320CCE7022A0CBF84
:1018D8004FF00073022393FAA3F0266893FAA3F358
:1018E8000120B3FA83F300FA03F33342D4E7022B5F
:1018F8000FD1636803F00C03082B9CD0FFF740FD61
:10190800801BB842F5D9DFE7FFF73AFD801BB842E4
:10191800DAD8636813F00C0FF6D18CE7136823F05C
:1019280007030B431360136803F007038B4299D135
:1019380087E70949E8684B6823F4E06303434B6091
:1019480082E7054A2969536823F4605343EAC103CF
:1019580053607BE700200240001002402DE9F74F5A
:10196800DFF86081584C00224FF00F090B6833FAFA
:1019780002F502D103B0BDE8F08F012505FA02FA9D
:101988001AEA030300F094804D6825F0100EBEF1AA
:10199800020F11D1D70800EB870702F0070C3E6A47
:1019A8004FEA8C0C09FA0CFB26EA0B0B0E6906FAB7
:1019B8000CF646EA0B063E6207684FEA420C03261D
:1019C80006FA0CF627EA060B05F0030707FA0CF7E8
:1019D8000EF1FF3E47EA0B07BEF1010F076010D872
:1019E800876827EA060ECF6807FA0CF747EA0E075A
:1019F8008760476827EA0A0E2F09974047EA0E07CB
:101A08004760C76827EA06078E6806FA0CF63E4361
:101A1800C660EE004CD5D8F8186046F00106C8F844
:101A28001860D8F8186022F0030707F1804706F01D
:101A3800010607F58037019602F0030C019EBE6887
:101A48004FEA8C0C09FA0CFEB0F1904F26EA0E0E04
:101A580030D01E4EB0422FD006F58066B0422DD051
:101A680006F58066B0422BD006F58066B04214BFFA
:101A78000526042606FA0CF646EA0E06BE60266817
:101A8800EF0354BF9E431E4326606668AF0354BFEE
:101A98009E431E436660A668EF0254BF9E431E43E2
:101AA800A660E668AD0254BF26EA03033343E36049
:101AB80001325BE70026DDE70126DBE70226D9E7EE
:101AC8000326D7E700100240000401400004004844
:101AD8000AB18161704781627047000002688368BB
:101AE800C16930B5056914682B43456924F4164467
:101AF8002B4324F00C040B43234313605368C4683E
:101B0800056A23F44053234353609468836924F49B
:101B180030642B4323439360424B9A4211D103F51F
:101B280058431B6B03F00303022B5FD0032B65D0D4
:101B3800B1F5004F41684FEA510345D003F5E10381
:101B480048E0394B9A4212D103F5E6331B6B03F494
:101B58004033B3F5003F49D0EAD9B3F5403F4DD003
:101B6800B1F5004F4FF001005BD1002353E02F4B3C
:101B78009A420BD103F5E4331B6B03F44023B3F50E
:101B8800002F33D0D4D9B3F5402FE8E7284B9A4239
:101B98000BD103F5E2331B6B03F44013B3F5001FBD
:101BA80024D0C5D9B3F5401FD9E7224B9A42D7D1E3
:101BB80003F5E0331B6B03F44003B3F5000F15D0B6
:101BC800B6D9B3F5400FCAE703F561031FE04B0828
:101BD80003F50043B3FBF1F39BB2D360002020E090
:101BE8004B0803F5740303F51053F3E7B1F5004F01
:101BF8004168ECD14B0803F5803308E0B1F5004F9C
:101C08004168EDD14B0803F1F47303F59043B3FB3E
:101C1800F1F300209BB223F00F01C3F342030B43FF
:101C2800D36030BD00380140004400400048004007
:101C3800004C0040005000402DE9F041069E04464B
:101C4800174698462568E86931EA00000CBF012369
:101C58000023BB4201D0002013E0721CF3D096B9D8
:101C68002B6823F4D0732B60AB6823F00103AB60BF
:101C7800202384F8693084F86A30002384F86830B7
:101C88000320BDE8F081FFF77BFBA0EB0800B04222
:101C9800D8D9E5E773B504460021C166FFF770FBA4
:101CA800266833681A07054616D433685B070AD5D1
:101CB8006FF07E43009300222B464FF480012046AC
:101CC800FFF7BAFFA0B92023002084F8693084F810
:101CD800680084F86A300CE06FF07E4300930A468F
:101CE80003464FF400112046FFF7A6FF0028DCD07A
:101CF800032002B070BD38B5044620B390F86930AF
:101D080003F0FF020BB980F868202568242384F8C3
:101D180069302B6823F001032B602046FFF7DEFEB5
:101D2800012810D06B6823F490436B60AB6823F0F4
:101D38002A03AB602B6843F001032B602046BDE803
:101D48003840FFF7A7BF012038BDF7B51E4690F809
:101D58006930202B0D460446114649D1002D45D047
:101D6800002A43D090F86830012B41D0012380F835
:101D780068300023C366212380F86930FFF700FB31
:101D8800A4F850100746A4F85210B4F8522092B2A2
:101D980062B900963B4640212046FFF74DFF90B9B7
:101DA800202384F8693084F868000DE0B4F85230D4
:101DB800013BA4F85230002200963B468021204681
:101DC800FFF73AFF10B1032003B0F0BDA268236803
:101DD800B2F5805F07D122692AB935F8022BC2F320
:101DE80008021A85D1E715F8012BFAE70120EBE77D
:101DF8000220E9E72DE9F3411E4690F86A30202BCE
:101E08000D46044611465DD1002D59D0002A57D001
:101E180090F86830012B55D0012380F868300368AA
:101E28004FF0FF321A620023C366222380F86A301B
:101E3800FFF7A6FAA368A4F85810B3F5805F074621
:101E4800A4F85A1015D123698BB940F2FF13A4F8EE
:101E58005C30B4F85C80B4F85A0080B280B92023B2
:101E680084F86A3084F8680002B0BDE8F081FF2386
:101E7800EDE7002BEDD12369002BF8D07F23E6E7AF
:101E8800B4F85A30013BA4F85A30002200963B4679
:101E980020212046FFF7D0FEB0B9A2682368B2F52A
:101EA800805F07D122692AB99B8C08EA030325F8C9
:101EB800023BD0E79B8C08EA030305F8013BCAE71D
:101EC8000120D1E70220CFE70320CDE710B5064C6B
:101ED800034601440020994200D110BD13F8012B9C
:101EE8004240A05CF7E700BF5044030830B5002229
:101EF800044601238B4201D3002030BD14F8015F52
:101F080015B99D1A85541A460133DBB2F2E730B58C
:101F180002780025044605701046884200D202B9AE
:101F280030BD225C25548318D8B2F6E738B50B4D7E
:101F38002B681F2B04DD6120FFF712FA012038BD42
:101F4800F82901D96220F7E70C2404FB0354013374
:101F58002071C4E902122B600020F0E76C09002010
:101F680008B5064A00217620FFF7E0FFBDE80840E3
:101F7800034A00217720FFF7D9BF00BFF71F0008E9
:101F880011200008F0B50C46C1B04AB300238DF803
:101F980006108DF804308DF8050001AE0DF106012C
:101FA8009C421FDCA11CC9B20DF10500FFF78EFF92
:101FB80004F580736B44271D03F8F90C07F580734B
:101FC8006B44611D0025C9B2304603F8FC5CFFF77D
:101FD8008DFF16F8010B0135FFF7C2F9AF42F8DAA9
:101FE80041B0F0BDD05C01F8010F0133D8E707B567
:101FF80003230DF10702012172208DF80730FFF746
:10200800C1FF002003B000BD30B50C48017889B08D
:1020180000220C24D3B28B4206DB6A467220FFF7FB
:10202800B1FF002009B030BD03F1200504FB030314
:102038006D441B7905F8203C0132EBE76C09002060
:102048002DE9F043C1B001AD0024A846FFF770F9AF
:10205800287058B905208DF803000DF103020121FD
:102068006520FFF78FFF41B0BDE8F0830134042CF1
:1020780005F10105EAD121464046FFF748FF294D01
:102088009DF805102A68074600230C20DEB2964208
:1020980002DB08D10120DEE700FB065C01339CF877
:1020A80004C08C45F2D19DF807300533BB4208DAED
:1020B8000420D0E7FFF73CF908F804000028C9D04D
:1020C80001349DF807300433A342F3DAFFF730F9FF
:1020D80004F580730DEB030909F8FC0C0028E7D11F
:1020E800C7F101012144C9B208EB0700FFF70FFF50
:1020F800A11EC9B20DF10500FFF7E8FE19F8FD3C75
:1021080083420CD10C2303FB06559DF80720EC688D
:102118009DF806109DF8050002ABA0479BE702203A
:1021280099E700BF6C090020002103E00B4B5B58C6
:10213800435004310A480B4B42189A42F6D30A4AD4
:1021480002E0002313600432084B9A42F9D3AFF33C
:10215800008000F0A3FBFEF7B3FEFEE77C45030812
:10216800000000205400002054000020440C0020EF
:10217800FEE7000038B5054600F054FA0446284644
:1021880000F09AF848B10D492846FEF7C3FA30B96D
:102198000B492846FEF7A0FA48B9204638BD00F09A
:1021A80077FB4FF0FF4422230360204638BD00F040
:1021B8006FFB222300240360EFE700BF1772B142D0
:1021C800B5F1CFC230B520F00042B2F1FF4F83B075
:1021D80001460CD3344B002818681B681C4639DBB1
:1021E800FEF790F92146FDF7D1FF03B030BDDFF8C7
:1021F800BCC062450DD92C492D4A01900868116868
:10220800FDF7C2FF019B002BB8BF00F1004003B0EF
:1022180030BDB2F1105F24D3B2F17E5F019029D3B3
:1022280000F02AFB234A1168FEF7B8F800F04CF8D2
:10223800204A01461C48046815681068FDF7A6FF87
:1022480001462846FEF75EF901462046FDF79CFF49
:10225800019BD8E7FEF756F92146FDF795FF03B035
:1022680030BD114B01901868FDF790FF0199FEF7FA
:1022780095F8BAE70F4A13681C4600F0FDFA0146C4
:1022880004F10040FEF78AF800F01EF8094A0146FA
:10229800106801F10044FDF779FF01462046FEF77A
:1022A80031F9019BAFE700BF58450308FFFFAF4175
:1022B800504503085445030820F00040B0F1FF4F93
:1022C8002CBF0020012070472DE9F041AE4D20F0D1
:1022D8000042AA4282B0044600F0004636D9B2F164
:1022E800FF4F00F2BA8000F02781002E40F0BB803B
:1022F800A6498A4200F24281A549FEF74FF80146F5
:102308004FF07C50FDF742FFFEF70EFA0646FDF748
:10231800F1FFA0490746FEF741F801462046FDF7C0
:1023280033FF9D4905463846FEF738F803461946F7
:1023380028460093FDF728FF014604462846FDF786
:1023480023FF0099FDF720FF804607E093498A4262
:1023580076D8B2F14C5FC0F0BB8000264FF07C51BC
:102368002046FEF71BF8014600902046FEF716F8B7
:102378008B490546FEF712F88A49FDF707FF2946FB
:10238800FEF70CF88849FDF7FFFE2946FEF706F828
:102398008649FDF7FBFE2946FEF700F88449FDF75C
:1023A800F3FE2946FDF7FAFF4FF07E51FDF7EEFEEA
:1023B800014601900098FDF7F1FF01467D48FDF7C1
:1023C800E3FE014600900198FDF7DEFE00990746FE
:1023D8002046FDF7E3FF01467748FDF7D5FE0146A5
:1023E8003846FEF78FF82946FDF7D8FF002E61D052
:1023F8004146FDF7C9FE2146FDF7D0FF4146FDF7EE
:10240800C3FE2946FDF7C0FE731C054600F0878011
:10241800012E6AD0731C392B4FEAC6553CD8162EAC
:1024280000F38E804FF0807333412146C3F17E5410
:10243800FDF7AAFE01462046FDF7A6FE28440FE058
:102448005E498A421FD85349002E62D0FDF79EFE8E
:102458004FF0FF365A4B054669E70146FDF796FEF1
:1024680002B0BDE8F0815749FDF790FE0021FEF764
:1024780033F9002862D146492046FDF78FFF01460F
:102488004FF03F403EE74249FDF788FF0146002EE6
:1024980071D04FF03F4035E72146FDF775FE014604
:1024A8004FF07E50FDF770FE4FF07E512844FDF747
:1024B8006BFED5E701462046FDF770FF2946FDF77C
:1024C80063FE01462046FDF75FFE02B0BDE8F081DD
:1024D8003D49FDF75BFE0146FDF756FE01462046E5
:1024E800FDF752FE02B0BDE8F08138492046FEF7FC
:1024F800F3F8002833D04FF07C512046FDF746FE14
:1025080001462846FDF740FE4FF04041FDF746FFE3
:10251800A6E7FDF739FE01261F4B054607E70146EA
:102528002046FDF731FE4FF07C51FDF737FF4FF0A5
:102538007C51FDF729FE93E7002E91D024488FE7C0
:10254800C6F17F01C905FDF721FE01462046FDF7CA
:102558001BFE4FF07E51FDF719FE284480E72946FF
:102568002046FDF711FE0146FDF710FE4FF07E51A3
:10257800FDF70CFE74E74FF07C50C3E6304602B01E
:10258800BDE8F04100F04AB843B895411772B1422E
:102598003BAAB83F8071313FD1F717371872B13E67
:1025A800BBED57B4547E8636CD70A638010DD03AAF
:1025B8008988083D000040400000C0409115853FD3
:1025C800D1F717B76042A20DCAF24971000080BE68
:1025D800000080BF10B582B00446019100F058F9A0
:1025E800019903462046196002B010BD08B540B1F4
:1025F80001F10040FDF7D2FEBDE808402221FFF7B7
:10260800E9BF0846FDF7CAFEBDE808402221FFF7EA
:10261800E1BF00BF4FF08051FFF7E8BF4FF0E04146
:10262800FFF7E4BF2DE9F04320F00042B2F1FF4F7D
:1026380083B004466DD84FEAD07500F0CB807E4950
:10264800884200F3B7800028C0F2BA807B4B9A42D8
:1026580065D97B4B9A4200F2CC807A4B204653F8DE
:102668002510FDF791FD784A52F8252085F00103E1
:10267800904607465E1B41463846FDF785FD0146F4
:102688000446FDF78BFE71490546FDF787FE704944
:10269800FDF77AFD2946FDF781FE6E49FDF776FDC7
:1026A8002946FDF77BFE6C49FDF76EFD2946FDF7CF
:1026B80075FE6A49FDF76AFD2946FDF76FFE01467A
:1026C8002046FDF761FD014620460D460191FDF7C4
:1026D80065FE01998146002E53D04FF08040FDF7EA
:1026E80053FD01464846FDF70DFF01464046FDF7FC
:1026F8004BFD3946FDF748FD01464FF07E50FDF78A
:1027080043FD16F17D0F69DB00EBC65003B0BDE851
:10271800F0830146FDF73AFD03B0BDE8F083B2F15E
:10272800505F09D24E492046FDF730FD4FF07E51EB
:10273800FDF7F0FF002879D121462046FDF72EFE4F
:1027480042490546FDF72AFE4149FDF71DFD294688
:10275800FDF724FE3F49FDF719FD2946FDF71EFE4A
:102768003D49FDF711FD2946FDF718FE3B49FDF7E8
:102778000DFD2946FDF712FE01462046FDF704FD32
:10278800054629462046FDF709FE4FF080410646DA
:102798002846FDF7F9FC01463046FDF7B3FE214611
:1027A800FDF7F2FC01464FF07E50FDF7EDFC03B05B
:1027B800BDE8F083002003B0BDE8F043FFF72EBF6B
:1027C800284B9A427FF642AF002003B0BDE8F043A1
:1027D800FFF720BF002D9FD000209DE706F164037E
:1027E8004FF0586100EBC350FDF7D8FD03B0BDE8CA
:1027F800F0831D492046FDF7D1FD1C4B53F82510E9
:10280800FDF7C4FCFDF790FF0646FDF773FD184978
:102818000546FDF7C3FD01462046FDF7B5FC154901
:1028280007462846FDF7BAFD804624E74FF07E515B
:102838002046FDF7ABFC6FE71772B1421872B13E44
:102848009115853F644503085C4503084CBB31334B
:102858000EEADD3555B38A38610B363BABAA2A3E02
:10286800CAF24971B5F1CF423BAAB83F6C4503089B
:102878008071313FD1F7173720F00040704700BF13
:1028880002440346934200D1704703F8011BF9E75D
:10289800014B1868704700BF0400002070B50D4B4D
:1028A8000D4C00261D1BB6EBA50F09D100F028F82A
:1028B8000A4C0B4B00261D1BB6EBA50F05D170BDAE
:1028C80054F8043B98470136EDE754F8043B984721
:1028D8000136F1E774450308744503087445030895
:1028E800784503080A44914200F1FF3300D170474C
:1028F80010B511F8014B03F8014F9142F9D110BD01
:10290800F8B500BFF8BC08BC9E467047F8B500BFD4
:08291800F8BC08BC9E467047A4
:1029200000000000000000003177393DD6C48D3D25
:102930009305203DE520233C374D333D83F436BCE1
:1029400080C74C3D4AD9E2BB3ED7AABC054EEABD82
:102950005DB1FCBF489F42BF5E8508BFD7F93A3ED4
:102960002A78BABEBF4490BFA27FBFBEFFBD113F51
:102970002947083C8ABAE93E74D0A4BFEFDF37BECE
:1029800048F402BFA04B85BF07CD7E3F6B24003FBC
:1029900080B56F3FDE62C0BD5AFD28BFA794053FDA
:1029A0002E911E3FE74F8ABCD9EC80BF69195DBFED
:1029B0005CF225BFE778D13D8D0E2FBF976CBA3EF4
:1029C0003FC1593E20AA2F3F681A413F6198883E77
:1029D0002188D2BF123A1B3FA5A4CCBE227BAC3DBE
:1029E0009942383F55A02EBE548990BF42ADF33E68
:1029F000C4B4533FFB67993CFB537ABFC1C6863EC4
:102A0000A437BABFA02800C0D786AEBFB1BCD3BE22
:102A1000B8B2083F24E7653F2D91E4BE02379FBD61
:102A2000D5C1773E9FF39A3EB2CDECBEBB2AF0BE35
:102A3000DC52D7BF0B5C6F3FDEF7CDBD2471623F28
:102A400090E03B3E96222F3FD9DFB7BE021E05BF66
:102A50003710A4BEF66BB2BEAF58003F8008593E97
:102A60001FCA463F682D513F5B00A9BED06485BF99
:102A7000D8C43ABFD23F1D3E75C33A3FD456113F2A
:102A8000345900BF3A7B9F3F1F4E8A3F6843D93F6E
:102A900033C476BF820F4C3FA4006ABE2E88A7BE07
:102AA000EF84543FA94C253FAD4A853E21FFAFBF7F
:102AB000B1D06DBFC8B174BF919725BF6DC2313E13
:102AC000EC552A3FF91CFABED8991D3F877FC9BD36
:102AD00013AFE93E77149ABFA2E8ECBE12FC513F57
:102AE000E655113F9466373F58DD2B3FD3F189BF40
:102AF0003E68273FBC3D8BBE8160D23EC56A85BF24
:102B0000CB18373F3615F13EB45488BFEC42403EF7
:102B10008E9D143FAD8E2CBFC3BDC83E596BF7BE12
:102B2000F1ED6CBFC09B5ABE81E60C3F634AAE3DDF
:102B3000B4C46F3DC75ED23EFDAD65BF564563BDB3
:102B4000E90F8FBFC18819BE29934CBF7427503E2F
:102B50005CDF663E122B883F087E8DBD1BEA89BF75
:102B6000F30E073EE1C948BF4DC418BEDE0841BFA1
:102B7000BBBA9CBDE01FBDBDAC0B0ABE5ABE463FF2
:102B8000BA723D3F32564B3FC153A93E41AA81BF65
:102B9000408499BF59430DC0F1AF2F3FB354D8BE05
:102BA000592A753FB6EE2D3FCF6AB5BFE40A88BEFD
:102BB0004C9C8B3F7D69083EFF05FEBE210338BE5D
:102BC0006BF5553E53B02B3F9F63EABE805E0B3FD3
:102BD000415D3F3E09D463BF22D6B6BCF9A80BBF06
:102BE000EF604EBCF7A2033F72C415BFB5065D3F50
:102BF000011E653F369A683EF8B54C3F116704BF29
:102C00002E4C95BDC7546F3F2DB39ABE74D7A63EC8
:102C10003605ADBFE8D21BBF96D9C4BFB40BBD3ECD
:102C20007E2A323F0932413F700F8A3F76BD1CBF7A
:102C30004A556DBF2411723FF490243F58EEC4BE34
:102C400046BF40BFCC6527BEEB708DBF70B2303F32
:102C5000A158053FAED8233F9BD57D3F14F9833E55
:102C60007B59903ED54F363ED082033C8A3BC23ED4
:102C7000C74681BF45157A3F4B73E2BEB3123C3F56
:102C8000D2C0BDBF8574D9BFB89D85BFBE810ABF04
:102C90008BB6213FCB86A4BF2051C03EA512E83E93
:102CA000D5867ABE4F8783BF37AF473FAA77123F9B
:102CB000F32137BED21C683FEEB03B3E469ACEBEF3
:102CC000974584BE42B1223F2B76D2BC2B9E85BE57
:102CD000CE4CA7BD5D3AAA3EA02F86BF4F80CDBD8A
:102CE000899074BFC0C333BFBDDF3C3F24CF8ABFD0
:102CF0005139243F9FC192BF680C26BD7EB76B3E01
:102D00006AD0E03E4F16CE3E387E833E1F59233FA9
:102D10002F6A413FF32C0DBF573CCBBFEA7F163FD4
:102D20007A01193EF5BDD63E41C57E3D7AE583BCAC
:102D3000303C753E56526CBFB54E0CBF8569B8BF6E
:102D4000F14F99BF368400C0454FEA3E2181503E85
:102D5000C61C363F59569DBF7D26B2BF562F59BF60
:102D60003EFE3E3F955F103F3DEA52BFA3205A3FD3
:102D7000ED88593F6C3AA2BFF5D6F63E38CC97BDE8
:102D80005D862D3F3F9D12BE32A916BEEB94ADBFAE
:102D9000D9E1FF3E75072FBEEDA1333FBDFD48BE13
:102DA00065133ABFC8A0543F5EF4F93E2BB1123F01
:102DB000035024BF569CBB3D1A282BBE913B493F74
:102DC0009E3B993F72300CBF76A07DBFD46186BF19
:102DD0002589B8BFD5529EBCCF61B93E018DB0BF29
:102DE000593A8C3E0542A23EF93BE4BE116E42BE0A
:102DF000A23A97BF1F7F263E0014883D896B683E2C
:102E000069AC8BBE010891BFC35A0C3F674A7DBFB6
:102E1000EB9FDABE0435843E70D4253FECF4203FAE
:102E20003FFF4FBF6996003F26373D3EE9D62F3F13
:102E300049E7D73DEF9AE9BE5BA2EBBEC7A4EEBF60
:102E400065136B3EC393DD3E47C3A93E41ABB6BE9F
:102E50004A298B3F976D663F54408F3E1337B53EEE
:102E6000BB516DBFA5E1F33E91ECCABE01236ABE22
:102E7000B045DEBFAF6E903F2C9D133F6FD50AC0AB
:102E80004378D2BFB3993BBF340193BF04A9873FB6
:102E9000471ED1BE88479F3FF86A1ABFDB532CBF3D
:102EA000C49B2CBFEF3000C07A516DBF133A26BFD0
:102EB000BBB159BDF8639E3E2249863FC34E073FD2
:102EC0003217C33ED5F406BF7E6DA83DF7A609BDF7
:102ED00087D5063F4C1A2ABF402F58BE97D0CDBE8B
:102EE00093B82F3ED8A98D3F0B430CBFFD581D3B17
:102EF000C239843FD2F9543FB380673FD0BB5C3EB8
:102F00009C31633FE8A8123FCB80603F64200CBF38
:102F100092F2873EB75E653D88F85A3F5BCBF6BEBE
:102F20000454A53E5CA2563F020C85BF3EBE613EE6
:102F30006E291B3F5A4B54BFA2E3203FD63DAD3F05
:102F4000F7E41B3F5E2D3F3F8562F7BE867CACBF3A
:102F50007BA6BD3DBB1FDBBFF0D8693E4DAA47BF76
:102F60000719B23D9DE55B3F20D9C9BF2B4F88BFF4
:102F700055B8A0BE79EA7DBF7AC08ABF75ADA1BF42
:102F8000E0E3133FB7328C3FAD54DA3E99B4633F70
:102F90004FFDA5BE90B9233F4CA7CF3EE3F75E3F60
:102FA00080C7E1BE36802FBF271F593F59889D3EFD
:102FB000A2B732BE2FDA3BBF0800E83D34E5213F1F
:102FC00037DA54BF149C523E8F323A3FDA19053F2C
:102FD000F751703F18AE353FB8612CBEC203C5BE75
:102FE000A8B0713F0C73D6BF750D56BF7D0C343E33
:102FF000C483EDBE44500E3FBFBB58BF9CF454BFCA
:103000000C1DA0BFB44BE3BE346DDDBF9DCABF3EF7
:10301000A94670BE3627BBBF86A5553F097F0A3F2C
:103020002D13E03DF176683E87E90CBF64413A3FDD
:10303000AD7242BF62100E3F178931BF12BF09BF88
:103040006718153FA806D3BE1BBE863E6B2288BDFF
:103050006B4495BE2684363A877964BE3A6B783ED7
:10306000A69EBBBEB3DB53BF7DD0F83DC74ACD3E65
:10307000033F3C3FB3EA80BF57B245BFF95935BE65
:10308000A5F9013F18C6A9BE9532AEBE5EB8CCBD4B
:10309000E44881BE88122F3F7CAD9FBEA6127E3FC2
:1030A00014AA483FADEF3A3FCC2B303FC630733FB8
:1030B000964704BCFE5488BFF8D29FBF233FA3BFEE
:1030C000B6B57ABFFF040B3FB54B583FEA688BBFDC
:1030D0008733EB3EED7C4D3E25F27BBFFF347CBE5B
:1030E0002BD410BFA581703F33693B3FEBD41E3F0B
:1030F0009B5F9FBD16EE53BF55B3803F0DAD0FBF15
:103100003523B23E3E7D0E3F019C783F69B487BFB8
:103110006120173F8A24043ED88413BF0276F33D12
:103120005EB7073F422961BF1AC6043F94D31B3FD5
:103130002E020A3FD6C99FBE9CAA25BF352FA73FA6
:10314000F4BAF13E0353FC3E4FF6CBBEAF246CBF46
:10315000DC6E4DBFB3DF7CBFA3570D3F31B5363EAC
:103160007B0BAF3E79E3FEBE9C76E43E2BED4C3DFF
:10317000D7BC823E4167BDBF5FA0203F0815063E19
:10318000E3A2833EE8BFFCBE5F8CCDBEC11796BFF5
:10319000879F62BFA4CF3ABF67702FBFE9B7BBBF9D
:1031A00085F91DBF02F91CBF7731D9BF768BA8BF47
:1031B0003139223FD11386BE48A6363F262A403FEA
:1031C00025B981BE3248EBBD707E74BF055D423FBC
:1031D000793698BE6041CB3E36F9E33E7F5EFE3ED7
:1031E000E9678FBE2706BABFD4AB243E0DF6623F17
:1031F000FAE1F8BF6A7F823E160EF7BFC5684A3F04
:10320000B4E8A33EA962D13E4C5C9BBF8496EEBA63
:103210007AB0CCBE53A1C6BEBFF1313FFCCDF83E63
:1032200075940F3F8D37CBBFD55837BF96E062BF3F
:10323000E64E703FCFA5C3BE7411843F4EA4B2BE0C
:10324000DE68C63EBB7FA3BFA9D0883F312F433F76
:103250002F7223BED703253E6CEBC6BFD5FD133FAF
:1032600029C777BF98D5863EA7890D3F5089BC3EB8
:10327000245FFC3EBBB1023F49126A3EB560CF3EBF
:10328000A2AD2C3E23BDF6BEA20143BFDABDCF3EA8
:103290002A63373FB824A83E89258FBFB37759BF2B
:1032A0005DEE3ABF1A48D53EE957263F1BAF4F3E69
:1032B000B33B59BF8A787C3F0C922EBE4C68E7BE68
:1032C000C51845BF58F87ABFD18965BECC09C63E3E
:1032D0002537013F0738AA3C35345D3F8263743F90
:1032E00092396C3E3B332A3EB7D8C43EE558D6BE31
:1032F000C27B95BF7F123CBFECD086BF65681D3F87
:10330000575C19BF8C56E5BFC3AD6F3E9D31863FFC
:10331000BD2116BF57E9153FF05B24BF7CA8B1BFA4
:1033200015CA77BFE71BE6BE9690BEBDA994B3BF92
:103330004B1CA7BEDE0EAF3EB584A03E86564ABFEC
:103340005821BFBEFEB24E3F3965E33E2ABF363F2D
:1033500036BADF3D6B844ABEFDF3243D2F8324BD86
:10336000C74EBD3D989B8E3EF5BCD0BEE62EFEBD41
:10337000F63D0BBEC727EF3BC015943D27AC9EBE64
:1033800041225BBEE98026BCCACFB4BDAAE4503B53
:103390007697B53C42764F3E30A843BD1983A33C97
:1033A00022AF53BED1586BBCFC416EBD85D3FD3CF2
:1033B000B51B1CBEF12020BE1D1EC13C49F157BDEE
:1033C000C80F673E4C7BDEBC393FA33BB96676BE77
:1033D000DE541A3DAAD0B1BD63935DBED768A9BEC5
:1033E0007FD8873E5730863EA821BFB900D52EBD75
:1033F00086237F3E4096523D61082E3DFCB821BD9C
:103400002E0F913EE71198BE4DD7DE3E462F2CBEC3
:10341000B2A2373E75AB4FBDB107103E9D9E76BD43
:10342000881E08BDA27CFABDC81FA9BAB7C1D43E88
:10343000E172FB3E4E9FCA3A621852BD40B4873ECD
:103440004A09723E1307A3BC4F3F2BBE682A1CBE1D
:10345000EAB05BBDC85769BC00368BB9CABC30BD89
:103460009C9498BC7073203C5CE1D0BC00741C3907
:1034700020A516BBC204AABDF608593DD78808BDD1
:103480009C84FEBCF35C5EBD5953223DE16E933DCE
:103490009655623DF46B5DBD5DDC1BBD98C65A3C24
:1034A000AD5897BD642D70BD16470CBD00E97CBAC0
:1034B0009687033D832FA43DDDE7943DC986873D74
:1034C000904FA0BC791CAC3DD0E7D03BE54B90BD04
:1034D0001747633D666921BD3CB5DE3B550722BDFC
:1034E0006FF9B3BD7E9CDDBD05FDD4BDF6EBB7BC69
:1034F000056A82BE9A1280BD38D979BE0976D6BED9
:103500000F5E8BBEDDEAC1BE40F3F2BDAC62F7BD1B
:10351000525F8FBEFF848ABE241355BE35978BBE83
:1035200088188A3C1BC29F3DA56642BDE0EC7B3CEF
:103530009A9BEDBC8DE9953D6B9B5B3C4CDAB0BE34
:10354000D38105BEFC4D00BD8B0DAD3E0364453EF1
:1035500061B5153E1566CA3E2C16AB3EF459D83EF1
:10356000450A2B3FF7140D3F9C88373FA803233FA4
:10357000F75EA73E778C3B3FE40AB43E517F7F3E27
:1035800012EA76BC0C4AB6BE142458BE1C108BBE80
:10359000445175BDAF0BE0BDCED9D3BC3DA425BD14
:1035A00046AB6B3D204357BC0A26C1BD293F94BEA4
:1035B000A8DF4BBCB0E8933ED92E8A3ED034013F01
:1035C0000D16C63E9D67F23EB7C3B23E90015B3E0C
:1035D000C2F9653E434EEEBC001B1F3E264D7E3DAC
:1035E0003EBC52BE61E949BE033FA6BA6B691A3EB2
:1035F0000D559D3E8863D73EF508EB3E59E10B3EE5
:103600007E07103EB989F93CC58839BDC0CB45BBA2
:10361000C46964BD20C3B7BB2C765BBD7CEC89BE9E
:103620007821943D789CFD3E5267AB3E6AF3923E12
:10363000482B823EB96E783EB6A78C3E446F82BC62
:1036400018462BBC8C50283DC617B73BBB50C4BD99
:1036500075C770BE0F51A0BEB7DC6DBEE17C8BBEDE
:103660002E2F43BE49F31C3EFD474B3EF7AD8F3E28
:103670009189913E7456D33EA2C177BE773321BE65
:103680000226E6BCBF4911BD0392DFBC2B1CD13E14
:1036900092AEF1BD51E80E3EFD5F09BCC1A68F3D63
:1036A000B754E3BCA110043CA5DB2B3E3395EE3CA4
:1036B00044F367BD33C673BEB2A29ABE392E71BE43
:1036C000063395BC6AB6B5BD3AA920BE1B5776BE77
:1036D000EEE113BE27D05FBE2286B43DA378C73E7D
:1036E0008B81C03E6C378A3E5A67A2BD6EB848BE19
:1036F0003CED0F3DC20EF13DFBA2223CAC8453BE1B
:10370000A4F6A4BD9680433C81E0923C28ADA3BDC5
:103710004ABB86BDDFF9833E93A6533DE4EDCBBCA7
:10372000B964D3BD8BD8ADBDEE06083D30BDCFBD6D
:103730005E726BBCB647783D311E4BBD4126AA3D3B
:10374000D0CD2EBA944CF3BD062678BEA1AE823DF4
:1037500092F5FF3E92BC1B3DF414F43D75DCACBE0B
:10376000CF9A713CAA72D63E561258BE2224ECBEA5
:1037700039969ABE5515113EF38414BD6F5B793DA1
:10378000886C393E20E3503D817A08BE6E832B3E23
:10379000DD44393EE796253E00AD9D3EB99341BDDF
:1037A000902206BE8AC4FEBD0DE22CBDAC0BE43CEB
:1037B000079D22BDF56911BEC44DE9BD8CFB23BD3B
:1037C000733A5D3EA401FC3C9E22F93D2BC186BDAF
:1037D0007585BEBD6B82A0BE7202F838F48164BEEE
:1037E0003D8340BED0964F3D925A66BE895DB8BDBE
:1037F00078436ABDB04377BDED3F84BD681D8C3E04
:103800008459043E0F640C3E71E3783C632C91BDF7
:1038100091C2FE3CDCEA4F3D82823EBC1412373E30
:10382000A2EF433EC6972F3E2916273EEA15083ED3
:1038300067A6C83E4F4AF13EE1C5093D1EF9CFBD1E
:10384000AA0FA2BD3CA1BCBE2A581F3EA92E88BE0D
:10385000EEF786BE8C5800BE83CFE9BDA2A310BE92
:10386000541F59BD44AD31BE220F8FBC35032B3ED2
:10387000F2241E3E384FF7BDF504CBBD40DBE3BC60
:10388000DED50DBE21A99BBE962B5ABEB56D4FBE8F
:103890004BEE7CBDF7641F3EF5A5933ECB0F003C7D
:1038A000DA22603E0D74713EA5D343BDBF6EA03ECB
:1038B000D9ACDABD2AA098BE54E8E1BE722133BE6D
:1038C0005B06A7BE18AD513DD8AFDFBDA7B46EBE35
:1038D000FF718FBD31F71FBE5E9E5BBD4D450ABEB9
:1038E0003998FFBDDB804BBE35156FBE4C281CBE22
:1038F000D9F2CBBE674E04BF15133ABF6C9F07BF0A
:10390000E311EBBE6A4E8BBE22787FBE6BC5B6BE9E
:10391000A4B915BEA1AF0C3E666F593E1BBC16BCC8
:103920001A44C93B7BC59DBE6E74E2BE60E537BEDE
:10393000B03E023EFD1E673EEA46103CEDE5A6BEE7
:10394000DD1980BD13F83ABE9E6B21BEE70F5CBE49
:10395000748B4BBE685EB1BE79F165BE8B6E3CBDAB
:10396000B197B2BD27BE94BECCC1E0BE54750EBFA8
:10397000D9F367BF3AC659BF4AEF48BF426427BF71
:103980001DC76DBFC0CAC1BDEBD529BE43185DBE02
:103990008478D1BDFCD7B9BE489CA5BE028E30BE8E
:1039A000E7B4CDBD7CB481BD07E04CBE7D2034BE04
:1039B00056D900BE1A6F7BBED4FD733D518CFEBD3F
:1039C0002A1700BE371E07BE4AEC0C3C61BF96BCEE
:1039D00092AC1ABD0771603D44B41E3EBE9181BDDC
:1039E0009D542EBEC679E0BE9BF500BF55722BBF1D
:1039F000071947BF171AC3BED34615BFAD13CABEBA
:103A0000F4A5DFBBEFA291BE5C9EB4BE189EA1BE22
:103A1000AE0D6FBEF2313DBD9547D7BDEF9986BC67
:103A2000EE886CBE75AB06BE716F23BC0C2067BD03
:103A300039FD3ABC9A12653E575B4A3E7DE1823DB4
:103A4000D0C3943D6357853E6A975A3E2CD9B33E06
:103A50004DEF823EE4D5873DC4C585BE349251BE4C
:103A6000C0029DBE0491BCBE9D15A2BE96246BBD36
:103A700090AA3B3D17D1A6BD5DF71ABF914CE9BD99
:103A800017C8593E733F07BDEE76B43DEF6D923DCA
:103A9000A7BE503D7705CEBD666E3BBED8C132BED7
:103AA000189954BD8A35C83CDAA5483EE4533F3ED8
:103AB0008609AF3E8B37833EA21A713ED4A03D3EAD
:103AC00080AC6B3E53A6C7BD783FC7BCFF4115BE57
:103AD0008C2B6C3C511926BE5622CEBE989161BEED
:103AE00034D21E3E37B8033D807CF4BD272C1A3EED
:103AF0009D2D0B3EFD5F8EBD9E4B583E3F96BCBD3F
:103B0000F76981BD024AEABDFF8921BE89CC953C97
:103B10007839273D1676E63C31949F3E2E63F53E7C
:103B2000F9F3BD3E6A5C8C3ED6CE1C3E9D363E3ED1
:103B30004A4C2E3E0B63753D552A0DBE0BD9AEBDCA
:103B4000B5C2283EEFEA733E1C12E83E0360EDBDAD
:103B5000098A47BE35A5F83D6172E1BD355AAE3ED2
:103B6000BB902D3EC7C959BD84E8C3BC3F9420BD5E
:103B70008C7D7CBE0C0B8DBE0C7149BE56A90CBD54
:103B8000A6C720BD9F9C983E5CA4063FF3AF123FA2
:103B9000DA99C33E97FDB03E4FAF863EB987A53E4A
:103BA00021F6833ED998163ED363D1BD3965B63C24
:103BB0006F6DD53E1A97093FACE9C83D87B580BE09
:103BC00058AAB73C2B253CBCC0D70F3E5965023FD5
:103BD0006ABEA43E901802BEA683E1BC1ECBA73DE0
:103BE0009B16DD3C4DEAB6BE12A9F1BE4482DCBE96
:103BF000865C79BEBE8ABA3E7117103FFB2AFF3E33
:103C0000D56F793E584C743E57E4AE3E1590833ED6
:103C1000EC714F3EE5356C3E7346C3BB5420F03B20
:103C2000B71E643E0071EB3EBD043FBE0A79D7BEAD
:103C30004394F0BD3BD88ABCB7E7603D881E713F16
:103C40003450613E84EADC3C70080B3E3382793E9E
:103C5000604DFF3DC3E397BE076720BF8E4F1CBF7B
:103C600038C776BE086E923EE44C1B3FBA25B23E82
:103C70003E21C63EC190D03E3E1DAB3E8143673ED5
:103C80000CA69A3EE94B9C3E72363B3CB6FF083E82
:103C90007EA9893EBD599B3EFF84AFBE139D303E39
:103CA00069B0883D9A2223BE598CA83E7DEA333FF5
:103CB0001A528E3E314E3C3E2750023ED7E02EBD7A
:103CC00078A4003C554947BE279996BECC2842BEF1
:103CD000FC8931BE6522383DEDFA693E4A57953E72
:103CE00092EEAA3ECEA19D3EBB258D3EF68A673E52
:103CF000A892553E8E7CA73E6319483D166F993EAB
:103D00002710A13EA6AE543EFF57D5BD63CB4A3E19
:103D10005A3375BD3A6130BEB54EC53E1B8AB13EC1
:103D20004265E13C8E0D383E0881B33C33DE2ABD4E
:103D300073F9C03D9A439CBCC39A2CBE986D91BE4A
:103D40007936C8BE9A5777BE21A7F73D4E2BE93D7D
:103D50003A63943EF0A1583EA09C603E23A5123EDB
:103D6000D45F713EA85C233EA4CC823E142F033F57
:103D70005FDB013FF23310BDDC14CD3DD290F8BBC8
:103D80001464DCBD6584153EB969EA3EF2159C3EBB
:103D9000878603BE86737EBE6B8D56BE1B140FBE18
:103DA0008AB7A2BAC65700BE18DC293C34C62FBD5C
:103DB0008F7A36BE1A452DBEE6B3E2BD945583BD5B
:103DC0001A53193E31DA793EB4FB2E3E5B510A3E5E
:103DD0006823993DDF87323D2EE1BA3EDC0E0C3F71
:103DE0002D60AE3E8084063EFF54CFBEA04E9A3C6E
:103DF000AED949BD5D1988BDB8BAA93D40EAB33E08
:103E0000041C0B3D1F93E9BEDA740CBF592E7ABE19
:103E100022F017BE1BEC48BE6858A6BD9523B93DDD
:103E200037DB90BD143645BEECE98BBEDDA0F1BD9D
:103E3000A780693C0AA3C3BC1BBE1B3D7FA0943E68
:103E40008DB6833EFAA0503EC113423E9FA5BF3EB1
:103E5000D6B7103FBD199E3EB899E9BD63B96BBD99
:103E60007E47703D70C08EBB2DE3AA3EA6C2433F85
:103E70000E02E43EF3F87C3E9FD426BE264695BE55
:103E8000A5668FBB36DEFA3BD091383EFD73183EF7
:103E90002ADE29BE22D0C9BE125B33BEB49797BEBC
:103EA000CF6D6CBDA4A483BE68D3933CA7A8BF3ECE
:103EB000607EFD3EDB13C03E74B6023E146CAB3E2A
:103EC000609F043FF7C3483EE5D8D43ED0BBE6BC74
:103ED000D0BEBF3BE036A6BD7B99FDBD3634A33EC8
:103EE000556BAC3CFF6E433DF978DD3EFCD9843E1A
:103EF000014E3D3E6B27703EB3802C3EF40C973D47
:103F000035F83BBD1252DBBD941BFFBD683AD4BEF1
:103F100009E372BE13A1B6BD4727843DE1A18B3EE4
:103F2000E57F1E3F4F2FD93E6AC01A3FE9B80A3FCE
:103F30000BA2AF3EB7B7513E524DA9BDE27819BDB5
:103F4000F47FD1BCC6389ABDCD35173EB69550BE6C
:103F50006155DABC2799093FDD8C123FE3A7543E37
:103F6000225ABC3CAB289B3D62639E3E92308E3D04
:103F70005B03703ED3698C3EA67902BE89A4143DD2
:103F80006571173E759C313EBCDAB73E424FAD3E7F
:103F900009FA8D3E56DDD03D4F79F93EB052FF3ED5
:103FA000D30FA63E227D263EE0BD983D72C749BD97
:103FB000944C193D34C1A5BC1C1E81BC206DCB3D69
:103FC000CB04653EF80F1B3F3565A83ED73F453D06
:103FD000137898BEC55491BE010C17BE2EFFDDBDEF
:103FE000AEF520BE80A172BEDB98E5BE09F7ACBC81
:103FF000ABE7853E37A41E3D472A5FBEC62931BECA
:10400000C3DDB73DDD069EBE2B76CCBE6AD1D5BBE7
:1040100035606CBEEF1495BD3EA09BBD00C4F6BBE1
:1040200020E60B3DCC74CE3CEECA6C3D6D48893D1C
:10403000641C893C1C4300BC4983CABE9F49D8BE4E
:104040006591E7BE6B50C5BE53C534BF8E6AC9BE0D
:10405000C73CC0BE3335D4BE50C108BF779901BE3E
:10406000EF46C8BEDDCA13BF17FE0ABF5D691BBF9E
:10407000145BC7BE87F8ADBEDAFBA0BEDD09C0BECB
:10408000088BE0BCA4AFA3BC029F473D5156813DC5
:1040900080E1793A627581BD28F68D3CA5FE843DAC
:1040A0006908A6BD2296543D106B933CB8BBB1BCC9
:1040B000803A713BEA5BFEBC64BAA8BD45B5A6BDBB
:1040C0000F9E13BD2C11E7BD3E5A85BCA6A8C23C6D
:1040D00018F6773C60AEE3BB30269EBD4DF686BD3C
:1040E000A4084EBDE8F850BCD82F793CE620773DB7
:1040F0001E62483D58D205BC22691F3D1D928D3D70
:104100002DE18C3D4042783B8C85C93CBA18A9BD55
:104110003674143D5E59D3BDD69A21BE558ECEBDA0
:10412000C158E6BD3AA02EBEB12750BE6CAB89BEC9
:10413000C854EABED1265DBE480150BE9F3893BE2A
:1041400017080C3ECD97323D524583BED9EC6ABE6E
:104150009E7DAABE1D024ABE3C1E73BDAD9F08BD1A
:10416000CADA583DE0AC333B72416CBD0A5F393D61
:1041700083129FBD0E644BBDE1BFABBD55AEF13B9D
:10418000494D28BEB16232BE77CB08BE6C729BBE71
:10419000ABC7CBBD8E29AB3E12F7EA3E98F6C03EC8
:1041A0008167833ED2442C3EE1100B3E04993A3D98
:1041B0009295273E5A31003E70BC3A3E91ACBBBC52
:1041C0008C4FA53DFDF810BEB2B0C8BE41C0C23D87
:1041D0009DA3A13C6DD4033EF4A0943C9A41673D5D
:1041E00017E552BD18E8903C71FE90BCEF250A3DE2
:1041F00011EF5FBE3EDAF33DA1AC653E0578E93EC6
:104200009056333F0EEF4D3FD4A5343FBF0A053FD4
:10421000268A383FFD71373F6E85F63EE901BB3E89
:1042200031137E3EF058173EDDBE36BD2662B0BD6E
:104230005A800D3DA08418BECF9394BE851E31BE1A
:10424000CBB7B93DA4F7BC3EA4653D3E52BA123D82
:10425000F8C8573C46975EBD75EBA7BCAD2607BEB8
:104260007B7240BE89435A3E81AFD73EFE6F193FF5
:10427000B0F1173F3F4FE43E0E0FA33EE0D2CC3EDD
:104280002DADA63E5F915D3EEB26EC3DEEAB563E7E
:1042900062ACFA3D62B2C13D4544573EECD8843C25
:1042A0001F4D733CD298CBBD7B4F81BD4733263D1C
:1042B00022EEE33E0C02B53E4FFCA03EC613D5BE37
:1042C000160F50BD26AC4F3D8520C7BD797CCD3E35
:1042D0001FDCB43E2B742F3F16D0FC3E4FA77C3E14
:1042E000FBAE703E9B0D233E1AC18A3EFA98843E77
:1042F0009CFF1E3E6709063E00166C3C27B7443DF6
:1043000050F04E3E7476153E2B3E3B3E1F8D363DA3
:104310002E93CEBBCD06353E2676813EC644CF3E9B
:1043200067E4F33E2017963E4F4BC63C7740BDBE38
:10433000A2F4753DAF46B13DC4B8B1BC0C99233F62
:104340003348AA3E108B633ED89D413E6E649B3D30
:104350007083173E56FAA83EC98C813E5A5A843E55
:10436000C45B833EC2DAA33EAF1E933EB2119F3EB2
:104370007FB0AB3E29BEA33E8F98C93E39A1563EC1
:10438000F30F1D3EA0E1363D1524693EAA1CDA3D1F
:104390005634013FCFCDF83E6DA4133F3DFCC63DE2
:1043A0002620783DB1F74D3EA914223C4A43B53E44
:1043B000ACF1083BD6F980BDFEC0B43DF8EAA9BD1A
:1043C000D63A863E4804A53DF6AFDA3D8FCD293E6C
:1043D000398FAF3EA6D5D33EF32ACC3EA4085D3E2E
:1043E00047FB5E3E9CB32B3E543B183E8B62403EE7
:1043F0006B3D2B3E309A233DA3264B3D830E25BEBD
:10440000AC4B7BBE1867103F21B7773E3EFC553C56
:10441000952EB8BB38B096BD41F6F7BD00D02F3E03
:10442000D514C4BDB1689ABD2F32FDBD1F7009BE41
:10443000A02B68BD13046E3D85306E3B184C953C37
:10444000198927BEE602D2BDDFD2913E4CE95D3E1E
:10445000D5D1943D5156C93CC1BD5CBE7B331FBE16
:10446000B3DD1EBE95D434BE245C213D0322A1BE23
:104470003B9E29BF45DEC3BEF5EC663E3CA39CBC1B
:10448000B9107CBDE17C173C9C2E4C3E118DDC3D6F
:10449000A924C13CE049563EE958F1BD246203BE5F
:1044A0001D7F06BE052182BDB76794BE2A08BCBE2B
:1044B000E7DEC9BE7063DCBE52ECA0BEE74903BEB6
:1044C00092CA00BE6CB180BD5D639EBE489E06BFB1
:1044D000840C04BFC33EBEBE6235283DAF4D19BE3D
:1044E000B2A460BFED7810BFDA64B63C732CB73C61
:1044F000B71D653D9C5231BEB6CE663E769A683E8B
:10450000260C2DBE87B6A93DEA96293DB79A47BE2F
:10451000CC8960BEBDC6CABE83DFF8BEEBA7DFBED6
:10452000AE83F8BE5E7401BFD3701BBFE89AC9BEEC
:10453000F07D02BEDAA902BCC1967FBE4102CFBEA9
:10454000E07AB8BE7385B6BE3C326FBECE28D3BE0D
:104550004BAAE8BE80297A3D7065BC3E1B7D483D74
:104560007DCA423DDC024CBED949113D49F96ABEC3
:10457000D5F38DBE41E8F43CCB6145BCE27CBCBECA
:104580006B90C9BEFEAEEBBED790DFBEAC912BBE2A
:104590006D3E93BE3A31ACBE41EDD8BEB01C25BED7
:1045A000B5A16DBD18A23D3E7242303EFDC5173E1D
:1045B000F1AD9FBD8E6AC3BEBE1FBEBE3473FBBECF
:1045C00015B71ABF5412CEBE9B424ABEBC7674BE0B
:1045D00043D2463CDFDEB2BE3EF28FBEEAFD95BE60
:1045E000F4E3C6BD5B37A2BEB8B9E8BE6AAD94BEFF
:1045F0001B6378BEAD0F85BE817432BD1E6A66BD79
:104600005D424CBCE5E26CBDBD53DDBD51C788BD0C
:10461000682FDE3C1BEC333E0697B13E54539C3E64
:104620001069353E8CA338BEEA1654BEA2E702BF1D
:10463000406C20BF9C40CBBE0F0C81BE864089BE23
:10464000319A21BC66D29FBE51C7A6BE335F393EA8
:10465000092865BE5D1812BFC96017BFF71197BE64
:104660001B5284BEDAF3A7BD83B3833DB5BE07BE3C
:1046700048B1BA3889F4053EAC44DC3D5327B8BD97
:10468000C7E44ABCCF0F063EB511683E1114933EF5
:10469000BEED273E06BD0ABD5F55D2BDB20D54BE6C
:1046A000864684BE11DA89BDE9CEAD3EFF601FBEED
:1046B000446BEF3D64137BBEB0C7C1BEB095003FF5
:1046C00067294B3E0442A4BEB32D6ABE5F10A2BD53
:1046D00096D441BE314600BE60E787BD1B8154BE03
:1046E00003012DBE61FC26BE6F84933D4A36D93C42
:1046F0004B1B373C4A0C34BDC860123EBD6C043EB7
:1047000069B36CBD2B976ABEEC199ABE87FA59BE85
:104710009A008FBD58A5EABCAF3E043F2916003E63
:1047200067C1913DDCF05CBD8E0E5ABE82934A3F5C
:104730006D96423F21A30C3E79775CBCA43D06BF39
:10474000D0D9E9BE02DF83BE8F0B3FBE01F9C4BDE5
:1047500056DCACBEEAB182BE349117BE25255EBDE3
:104760009F59E43CF05915BD9584153E1E5AB33C43
:10477000840E79BD94D746BEBE09ABBEC2F551BE0C
:1047800002E77C3E02E7333E33E5E03E7D480E3EE5
:10479000A82895BDB56D083E6216BD3D13AE873F96
:1047A0007C044E3FF9AF603EFEC2C0BE3BB81EBFA8
:1047B00083031DBFCA9FA7BE181191BE4EF6EBBE64
:1047C00042F0CBBE368F9BBEF82E85BE3FAFA3BD59
:1047D0009F1A2BBE8F89CEBD6C9FA63DDA69943D92
:1047E00015B7F4BDCEF88EBD49C519BD9E7D82BDFD
:1047F000CE91853EB2C00B3F98C2C73E6BE44D3EA2
:104800006D65A73D20B9FCB96841003EA429743FFD
:10481000DBB64C3F9D89503E424234BE238AD3BE14
:104820009CF8B5BE339DF1BE3A650CBF857B20BFB9
:104830002BBA28BF2585C8BEDBDCA5BE99DE0BBE22
:10484000B45785BE3E76D1BDF2C1533CA2872EBE81
:10485000763C8BBEEC3D0BBE13BB8FBE66D844BE10
:104860002A748DBDE663243F467970BD399AA93E0E
:104870003BF6113EEDB493BC94B8D63D04FE203F08
:10488000C098033F0829A23E718EF43DB3128FBB3E
:10489000F993CEBDDF4C55BE5ED1B7BEC8D7B2BE10
:1048A0006997EFBEB051B4BE25B786BD97CE203E06
:1048B000E01ECB3DB56F9D3DFE2303BE0A881F3D24
:1048C000DC4A933C0ABA503E31C225BB633445BD35
:1048D0006F6FE23D223CC73E45C2A8BD71CADB3EB8
:1048E0005F2300BDF42AA9BDA7B3A43E8EA87B3EDA
:1048F00068E39B3EFBCEB13E9E8D023ED7CFCE3DC0
:104900008757123DFF108D3C6CCA12BD4BE35B3DD7
:104910004831093EEA03CD3ED7B6BC3EF06B903E2F
:10492000D167423EE05ABA3D1A221B3CAF8A733C23
:10493000E1A0253E3D7A323E98B447BDAD2A3BBE4C
:10494000D581E7BDDE5C133FCF3DC73E887A993EF7
:104950005F7499BD5F73AEBD427BD73E6444BD3E7C
:104960005C0BB83E10F4BF3E9864743E1AB2323EFF
:10497000C228993EF52B4E3EB162903E2537E63E69
:104980000D75AF3E2BD09F3E8CFC853E4C30603E7B
:1049900085D8923E46F53E3E034C353EFE75263E9A
:1049A00078691E3E5418253E5E9D653CD60F72BD4B
:1049B00036FD32BEE9F3413EDBF2693E696146BD38
:1049C00085533D3D1C4FD33D0A840C3FE667AC3E0A
:1049D000F23F143F2F38BF3E0BBF773E0E85733E2C
:1049E000AEFB423E40AAD63D0F3CCE3E418BC03E80
:1049F0000413C13E84E21A3EE44D863DFF790F3E2A
:104A00002B7ED63DD91D2B3BB95F263EAB5E473E84
:104A100027A6563D10E03D3DB6AEC1BCA953653E4C
:104A2000D9A8463DD8EA493E7A04B43E206A62BD20
:104A30003413733C91F0913DF413743E967A0F3F1A
:104A4000C98B563FF784913EFDF7123ECE209F3E24
:104A5000D188963EA411403E1A56223C35159D3D04
:104A600003200BBE41F032BEDBDB67BD6BCB7BBDF1
:104A70004E617DBCAE10BD3D104EB73E6638893EDE
:104A800082EA613E53C052BDE23E05BE6A54CD3E4D
:104A9000A337BC3E38A89A3D32C5EBBDFE3541BDBB
:104AA0002A918BBDE8A36DBDF8CF103E0C04123FD8
:104AB000D8A6133FA468383EFCB1413E3F6984BC90
:104AC000EF622A3DF004AABAD2D2CCBBB3F6133EB1
:104AD0005CDF51BEEE65833CDCC69EBD2A921C3D68
:104AE0006B2615BEF2DB0E3D2308CD3D7C1C6C3DD4
:104AF000A8F21C3E13B6393EB2F84E3E64ABC23E3D
:104B0000865D163FC196413E4358D53D18E4003DB1
:104B10009038FC3C90EA903CA32D98BDF8A4AA3EA6
:104B20009F899E3EE15E413D773C593DF3ABC93DD7
:104B3000C207203D7EE7103E3168723DCF7F213EA7
:104B4000B9BDFCBDE9D263BD9FAD873D7FBBE8BD6C
:104B50004B379DBD0DC2513ED403DFBDCCBFC4BD9C
:104B60007979873ED0EF073F0FB8E33E7F0B7A3E5F
:104B70001742E93E9A75A23E7F46C03DF214513D70
:104B8000E4CADC3CC39435BD00ED9C3DF30EA8BEE9
:104B9000D931CCBDC7FDBE3EDD72043F53C8DE3EF9
:104BA000DA85053F5B9F243F444D003FDBDBF53E4C
:104BB000E95AA33E54456B3EC924B1BD15DD6CBC1A
:104BC000E9D09B3EEC634D3EC9DA843D58C8A53E12
:104BD00082BCC03E558FFD3E679F323EF1CA8C3E7F
:104BE00024C8A53DD492393ED0802C389E2B7A3DE6
:104BF000008428BB704D023DC950903D4C8A073C53
:104C0000DA37153ED3B0C53EE059BC3E9914283E74
:104C1000D4A1F73D7A35A83D818FC33EE6085C3EBE
:104C20007E669B3E960CE93E6659FE3E913FA83E4D
:104C3000F1C18E3E55D1853E65A3883E50D9843E54
:104C40000041173F0BF8323F653D043F0B2E373EC6
:104C5000D79B8CBCD27388BC37A1A9BDB64CD5BC40
:104C6000C1818B3D06D3613DF059CA3C43B98E3DAD
:104C70000810C73B5C09B5BDA93BAEBD6624933D9A
:104C800066ABC8BDD1128CBDA44D60BD1F5062BDC6
:104C90003FB6F9BDD5C8EF3D49109E3E527609BDDD
:104CA0005636EEBDEBDE2BBEF7B4FABD9AF768BE02
:104CB000D2B1F5BD74FA84BD0A3DAEBC637067BD68
:104CC00019099D3D4011863B51E816BD26C416BD0D
:104CD000DAD8433DB8EA90BD6A0BF1BCF03C3CBC6D
:104CE000DD1F2FBD00FC6C3B1075AB3C202A0D3B3B
:104CF000C8E318BCB07EF7BC304ED63CE1968A3D86
:104D000059F3FC3D07D5EB3D6DE0FB3ABA69903DA8
:104D10002CF6C83CB891C73C00EEC239B5B035BDE1
:104D2000C03467BD400D373BCE2B5E3D71F83FBDB3
:104D300067D496BDABE89B3DBA028ABD7F4EAA3DC3
:104D4000171AA23D33BA7ABDE0E511BC49799BBD83
:104D50009E4A323D83CC873D3AFD0E3ED3F6343E2B
:104D60006B79B83D2EF8493E45C8B43EC106B53E04
:104D7000CB3FBE3E242ACB3E9927C63EED1FEC3EDC
:104D800002AE0D3FEDBD033F708FE33EF794B93E99
:104D90007CD7DA3EABE89C3E5433853E3F66973E77
:104DA0002F2FA93D8EBE163D4E24133DEAC73E3D32
:104DB000E698F1BCDE74193DF2FD27BC8C8144BC41
:104DC00011E3DC3D63581DBCBED1AA3E21FBF43E7D
:104DD000696E053F0C57E23E09AF033F7852273F0B
:104DE00071F14D3E74A71A3E793808BEAE00143DED
:104DF000F3D0A43EC489033FDAF9283FCA7CAA3E17
:104E00003A1B883EFCC386BD244E1BBE3A5DDD3E88
:104E1000799F303E7AE9123E207F0FBBCAA8033D3E
:104E2000407367BDB195A1BD72D3AB3D7F534A3D81
:104E3000C614F63DC68C22BDEBAC21BE7D3D0ABE3C
:104E40003EED5F3EDEFAC23EFD9BF33E81838D3E2A
:104E5000779EEB3E21B49D3EDF0C253E23496D3EFF
:104E6000CEA3E83E19C1CA3E10D0093FC845113D46
:104E7000A9C5A63C177A8BBDD5A254BE2AFB37BE66
:104E80008C0BF1BDCD652DBE048714BE287476BC95
:104E90006ADC4D3D30D9A83D4FA90A3EF4B6063E26
:104EA00044A433BD0A2AA73D9A98FD3D4C4BE73DEB
:104EB000B666EC3E4468383ED0F77D3E3C44343E16
:104EC000947CB43DEB75EEBC4EF60BBE2306843EDF
:104ED000B056C93E6DF4263E9257873D0E63C93CDD
:104EE00027AFF0BDCD90A3BEE3A8F1BEA08C85BED8
:104EF000B8CD083ECAFB853E4769E93E27AD2A3E4C
:104F0000A266663DCEF10A3D9819133E16E0843E36
:104F1000667928BECC38C2BD6000D73D6298A73EF6
:104F2000AEA52CBEF42D8CBDCAC422BE0F69E7BD50
:104F3000B5DE74BE78EC70BE1C4F2CBE2EF1AEBD3B
:104F400075DF513E4DCD053E3882DB3D93C3D93EE2
:104F500062797E3E5E7B323E2A59393E1164AB3D1A
:104F60002403A43EF242A03E29C8E93E0783553EF1
:104F700098530C3C0A30AB3E4360CE3CD3D8BF3C88
:104F80005EBCE2BD6545D6BD45B9333C6610433EC7
:104F900022400A3E5AB79F3D41F77F3D0FB5F63B91
:104FA00052C59E3C94D0AE3CEA7CFDBDA416FE3DAD
:104FB00071A0733D4531833D696D303EC382B23E81
:104FC000C8178F3EEDCE623E35B6073EDE78D23E44
:104FD00038D92A3FF7E1E23EEF3BA33E8B13963EE2
:104FE0000128B6BB07D9E13E6CD2C9BD110BBF3D4C
:104FF0009CF876BCC72EAEBDEC3613BEDCF10DBD01
:105000003177AB3D80FD003D3890153E4D96DD3D3E
:10501000538F9A3DDAE7AB3D82420F3E5F55473CE6
:105020008835E93DEADC133DECFB703E0F8A353EE6
:105030007B83E53DD6F95C3E23615F3EEA84043E16
:10504000EC900B3F7E7DF53EE4E95F3E5AFCC83EA6
:10505000369ED03BC40E1A3EF3C6083E5635A23EDD
:105060000D5F5B3D673F8ABE722808BEE551C9BC33
:1050700052E4E8BD4482AABDA6F1483E15F5473E7C
:105080001A3ABA3E50E5403E29EACA3CD54CCFBC5C
:1050900027C0093EFE24903EFC2B0F3EBCF5793E16
:1050A0003989603EBED9A53D03E8AD3EC7BD8F3E00
:1050B0007B8DF63E64608A3ED32A893E9836793EDF
:1050C0000F85B73C97551EBECF70263EC740923E17
:1050D000216802BDA62653BE437CB8BD953DD33C96
:1050E000127AB3BC3FB0303D8235563D2E737DBA47
:1050F00074D73FBB48E92ABE7387B4BD215A8FBE1F
:105100008408053E85DDCD3D3C03EB3AF2F0CE3D13
:10511000C5F7CD3D35F28D3DAE0CDF3E635FCA3E37
:105120004F03CA3E559F573FC994283FAAFE873E6A
:10513000243C46BD5B438FBDDDC605BD7FDF393EE8
:10514000C37699BDA9C465BED6AAF5BCDBCC19BE91
:10515000C922C8BDA1E767BEE1F957BD416985BE57
:105160007609DCBE9B707FBEE434DCBD09B8AEBE00
:10517000E6266DBE3B523CBE4C6711BD8E7E523B57
:105180004197993D21AC223D267DE63D5367053F81
:1051900014722C3FC55E003F58BD3A3FA4748C3E4C
:1051A0009C039D3D5340DD3D2AFDBABBFE84863EF7
:1051B000746E523E176597BDBE7713BEE4517EBE36
:1051C00023788BBEFF6960BE66ED6DBEB2410BBF3A
:1051D000CFD626BF3D2E193D87C3BE3CA9950CBF37
:1051E000F5FD1DBF436E0BBFD57CB2BEBA3A8CBE77
:1051F000CE9C8CBEA7FEB9BE85712FBE05296C3E24
:10520000DBB66B3FFFA1573FCEDC773FBC59C53EB5
:105210003ECD30BCC400303D8111AFBECF5BFFBC82
:105220002B36BA3A5D85963DD5332FBEB90776BD8C
:1052300058929BBE9CFE2EBE131F8EBECF64FABE3C
:105240000BF67ABEDAD5993E6F70963E9AA559BE96
:10525000B2960EBF4A79E0BED94AA0BE4A9BCFBEE5
:105260006886BDBEEC04C3BE4FF71EBF2A1822BE1F
:10527000DAAF423F96D2823F9958333F2D9AB73EDC
:10528000D7E1323C9A4FFBBD757D35BE58EF993D55
:10529000B97472BE3CE81FBE0E60073B099C19BE84
:1052A000C1EF64BE2F57C0BDC689A6BE959594BEFA
:1052B000CD584C3E575B083FA27BD83E899DB1BD7F
:1052C0004B9E8EBEC81159BE0E4171BE70D954BEE0
:1052D000AA63CEBEAC0A1CBFB4DA18BF7B0A93BD6A
:1052E0000DC00C3F1027CB3E8C82973E097D7B3E44
:1052F000494BB23E587D763D6A31AC3E981D24BE86
:10530000B9F446BED87832BEB807D1BDDB1E41BE67
:105310009F3A46BE792718BE350149BE6A31F3BDB2
:105320005546953EB1130A3F10F99F3ECF5992BBA7
:10533000EB251FBE467C06BED7E436BEEE7085BEAA
:10534000FCF9C9BECEEE49BF35B447BF521CA53CDF
:105350001846083FC685F43E2F0E293F2116673EAA
:1053600041EB9A3ED800743E35BA253F0ED62ABE90
:10537000971325BD51C78C3D7A8EB23D215744BE4F
:10538000908A11BEC9C7BEBD8F2281BE7C6F15BE7B
:10539000B858733EA43C183FF0320D3FE92565BE76
:1053A0000D8618BE6AE429BE013DA9BD8BD953BE46
:1053B00003ABF7BE942E4DBF87272CBF81FF2D3E38
:1053C0006332103FAFD4D03E3EADEFBDB6C43E3EDB
:1053D00040AA393CA7A5A23E4F05053F4309993E87
:1053E00023FC303E084C4E3EC7F5E93C6DD94CBE1F
:1053F0009609D4BD10106B3BAFFD683B34F2543EB0
:10540000D08E053F70B6333F6E50873E565B67BE09
:1054100002F11FBEA8874BBE5F1680BEF98396BE01
:1054200030E416BFD2C6E3BE17A536BE4CB3103F5C
:105430000A7F173F3B4E5D3E5F875FBCCCEF813EEE
:105440006789903D340FD73EB9B0573E4FF11D3FAD
:1054500016796C3E1223683DBE30C03D19F48BBDF9
:1054600088DB18BEC33C103B8BEB843D525BBB3EDC
:1054700062D8BA3E6B89BF3EC2D547BECD3ED3BED1
:10548000532027BDD3172BBE6E9BE8BE67AD09BE68
:105490008806B1BEB7B562BDB437EB3EB9D0223F86
:1054A000810BE93E33930F3E7162103EADFC963E98
:1054B00031B5553C573D823EA2D581BD67E5263FBB
:1054C0006C08873ADDF9903DC08175BDEBFC93BC5B
:1054D000CCD5F7BD46E9023C3AA1193E8278B63EEA
:1054E0002ED3EE3E7995433EE23CDABE122D66BEE7
:1054F0009C604ABDFB45BABD247878BE73FD69BE89
:10550000E073F0372264333D24D6EA3E9444083FEA
:105510003372093F1374F13EABF9C23D4ABA00BE83
:1055200043F33D3D29D527BE9ED24CBE675BDABD15
:105530009BED64BD2F2D98BA411DA53DB1CD473AD5
:105540000ED1D83DE931903CACAB213EEDCE613D72
:10555000E1D7753ECAB4743D44F420BE1DE25A3D05
:10556000571C7C3D71DD3E3E82E4103E35BA0A3E5A
:105570000CC2AF3E686FF63E0E272F3F2DCC0F3F7B
:105580000046C63EFBA2D43E6DF28DBD5E966CBD5C
:105590009F8D963D9D67C0BDC3E70CBE009AC23D7E
:1055A0009D0C86BE1FBB5DBE928FE63D411CEF3E4B
:1055B000142B5C3E59AA2B3E12BB283EE925F7BBB3
:1055C0005E32BABCB6F8923DFAA58F3D7587873E2C
:1055D000BD92D13DA45E3B3E6E3E4C3EDDB43E3EB0
:1055E00078BDF83E1BD41A3FB629123FF6ABDA3E1F
:1055F000BAE88F3CE526293ED369E4BD1B989F3D60
:10560000208509BDBC5C14BD707182BCAC94333E76
:1056100092941FBEB1C22CBEB2DD8D3D89CEAB3E91
:1056200096C8003DFBAFF13B8096953DB036B5BCCA
:10563000397EC4BBBD938A3E3AD1B03ED2654E3E60
:10564000F89BC23D1D41B53EA885513E6460AB3E0E
:10565000E740BD3E8B0DA13E62E2803E2A345D3EB6
:10566000129EB2BD7A49C53E65FB2C3E10A358BDC3
:105670005939A73DBC022F3D5BF22BBE6650F73C6B
:10568000235B783E0891863E1C137D3E59B1ED3D6B
:10569000C379C03CA780AB3D75BC22BEE1AD20BE46
:1056A0004F0ABC3D14B4453EF947B83D8716263D28
:1056B000652BF93D377D8C3E49D2AE3EE6EABE3ED3
:1056C000BBDC7A3E4509823EBB9A4C3DF49546BB15
:1056D00081A735BE190D5C3E9468D03E9B816A3D22
:1056E000B37C8F3D58D13EBCE206DE3EBD57E73E5F
:1056F0005E4D143F955EFB3EAA40E03DD7F931BEBA
:10570000A3A040BE994E2FBD113CB93C5F206A3E1C
:10571000D7A3C83DF5B91B3E23CDA1BB23AAF73DB6
:1057200046834F3E5FAA3E3EA540A33E790FA83D6B
:1057300039CB0B3E18AA33BDFEB4253EA9A9D53DF1
:10574000A38075BE08133F3EFA53A73E9006763CF1
:1057500045DEA5BDA6E80B3DE713033EA923C33EE6
:1057600076DA6B3E7BBE1E3E70BBA13D8B9520BDA5
:105770002313A0BD1DD4853C85620B3EEF9C873E64
:10578000B75E9F3E90D4273E9FB0373E6B04DE3D10
:105790005F97B93DB91C183E7B3FD93D5FECB1BD69
:1057A000325B26BE59CD1ABE773E3FBE45568BBEF4
:1057B0003EB35B3D4D3E893B0F803B3E54548FBC16
:1057C000EEE436BD22F7043D5E963ABE5C25E1BDAF
:1057D000472B673C51A27DBED639EBBD1F1B21BEB6
:1057E000936936BD7DCBFA3D2AE12B3CB2EFA13D5A
:1057F0008D2E733E8C09EA3CF55929BE2F3BEA3CBD
:105800005207483D2ED7FCBCFFCC95BD1B00623E25
:10581000F8134B3DFAB75ABE4A9F2F3C20D5263E7F
:1058200034CDB63EF56CAABD4717F93D10F7BEBCA6
:105830009409F33C883AC6BCA43594BDEC415CBEE7
:1058400019C1D5BE91F400BF2B6C04BF036606BF1F
:10585000BFC8F1BE73B1D6BE89BF26BEDD766C3E31
:10586000DC76D8BD0BB3033D866F42BEC4619FBDDD
:10587000F970063EBEA1DF3D31C0683D9C92413EBD
:1058800032540FBEE190BDBEBE7770BE9D8ED3BCBC
:10589000AC03B3BC7185983DFE85143D8E08523D26
:1058A000C071D23A901B293C346393BC30AE123D98
:1058B0000FD8633D489BE63D7B57A9BDBA2942BE40
:1058C000AE4555BE1BA1DEBDBCD45A3EFC21BDBDBC
:1058D000B73236BE27F95DBEAB5EF1BE9365EDBD56
:1058E000E69C763DC3CE74BE270101BFEE9EAEBEE0
:1058F000C7A388BE4C2BDDBEFA2CBBBEE43F083EDE
:10590000B0FC1CBCDAC1DCBC50B9A1BBEB22933D9E
:105910002F8CA53D7CD4AFBCE2A791BD830CA13DEB
:10592000FCB4AABC8F78A13D66682C3D48815A3CE6
:10593000C40FA2BDEEA8023DEE8E303D3068F03BB4
:1059400091E9A7BC839E95BD1A0198BD99C88C3D6D
:10595000AE53023DFC6014BD5EF776BDAF34A43D8E
:10596000F0E684BD4CC3983CFB999F3D50FB2B3C1B
:105970007071083CBD4BA73D6072A63B36B579BD42
:105980002E5ED1BC1A5D8FBD86914F3D166959BD03
:1059900085DEC5BCF2EBBDBCE86E893B4435DBBCA3
:1059A0009CC4453C98314ABD71B887BDFF64FF3D3A
:1059B0009B89303E48A7153E7D2F8E3E5E8D033F6E
:1059C000568A813ECAE6613E7E2B1DBDFE9BDEBD32
:1059D000259892BAF3B0013D1135A33D8BC7FFBAAC
:1059E00086397D3D2D969C3D1220343DD8E1663CA4
:1059F000DA62413D9D2F973D53417B3CE5BF973E89
:105A0000D8B64D3E6A398FBD83AD50BED70CC0BDF0
:105A10000901D5BEBFA105BFF06516BF6345FEBE37
:105A20000AB79FBD1F6EED3D8A01CDBEA2A5003D08
:105A3000C399B33E8F4A623ECE334F3EEF62703E13
:105A40001AA162BDF70C17BE8BE511BEBFEB7CBD82
:105A50005C78B9BE0A2495BE36946F3D40FE6F3B1C
:105A60004335A7BD61CDABBD7239D0BD2A61983E2B
:105A7000A24454BCFA43143E5B9EF83CFA5C803D61
:105A8000CC4FAEBD3EFCB7BE57BA9ABEDE277BBE3A
:105A9000DC8FF7BD40DAF5BCF887BBBC243B093E80
:105AA00013AC3E3E117DA73E516D763E647B49BEF0
:105AB00041D84ABEC01403BE716159BDFBA3773DF6
:105AC0000042863DE415C03DA4B4A0BE8207443D1B
