:020000040800F2
:1000000000A0002031210008792100087921000892
:1000100079210008792100087921000800000000FA
:10002000000000000000000000000000792100082E
:1000300079210008000000007921000879210008DA
:1000400000000000000000000000000000000000B0
:1000500000000000000000000000000000000000A0
:100060000000000000000000000000000000000090
:100070000000000000000000000000000000000080
:100080000000000000000000000000000000000070
:100090000000000000000000000000000000000060
:1000A0000000000000000000000000000000000050
:1000B0000000000000000000000000000000000040
:1000C0000000000000000000000000000000000030
:1000D0000000000000000000000000000000000020
:1000E0000000000000000000000000000000000010
:1000F0000000000000000000000000000000000000
:1001000000000000000000000000000000000000EF
:1001100000000000000000000000000000000000DF
:1001200000000000000000000000000000000000CF
:1001300000000000000000000000000000000000BF
:1001400000000000000000000000000000000000AF
:10015000000000000000000000000000000000009F
:10016000000000000000000000000000000000008F
:10017000000000000000000000000000000000007F
:08018000000000000000000077
:1001880080F0004002E000BF81F0004142001FBF44
:100198005FEA410392EA030F7FEA226C7FEA236C4D
:1001A8006AD04FEA1262D2EB1363C1BFD218414042
:1001B80048404140B8BF5B42192B88BF704710F0D8
:1001C800004F40F4000020F07F4018BF404211F07B
:1001D800004F41F4000121F07F4118BF494292EAE3
:1001E800030F3FD0A2F1010241FA03FC10EB0C000F
:1001F800C3F1200301FA03F100F0004302D549429C
:1002080060EB4000B0F5000F13D3B0F1807F06D348
:1002180040084FEA310102F10102FE2A51D2B1F140
:10022800004F40EBC25008BF20F0010040EA030035
:100238007047490040EB0000013A28BFB0F5000FB5
:10024800EDD2B0FA80FCACF1080CB2EB0C0200FA6B
:100258000CF0AABF00EBC25052421843BCBFD040BA
:100268001843704792F0000F81F4000106BF80F434
:1002780000000132013BB5E74FEA41037FEA226CF7
:1002880018BF7FEA236C21D092EA030F04D092F0C2
:10029800000F08BF0846704790EA010F1CBF0020F6
:1002A800704712F07F4F04D1400028BF40F0004053
:1002B800704712F100723CBF00F50000704700F073
:1002C800004343F0FE4040F4000070477FEA22629A
:1002D80016BF08467FEA23630146420206BF5FEA6B
:1002E800412390EA010F40F4800070474FF000036B
:1002F80004E000BF10F0004348BF40425FEA000C32
:1003080008BF704743F0964301464FF000001CE0D9
:1003180050EA010208BF70474FF000030AE000BF2F
:1003280050EA010208BF704711F0004302D540426D
:1003380061EB41015FEA010C02BF844601460020DF
:1003480043F0B64308BFA3F18053A3F50003BCFAFA
:100358008CF2083AA3EBC25310DB01FA02FC6344A7
:1003680000FA02FCC2F12002BCF1004F20FA02F2AE
:1003780043EB020008BF20F00100704702F12002A1
:1003880001FA02FCC2F1200250EA4C0021FA02F202
:1003980043EB020008BF20EADC7070474FF0FF0C07
:1003A8001CEAD0521EBF1CEAD15392EA0C0F93EA02
:1003B8000C0F6FD01A4480EA010C400218BF5FEAA4
:1003C80041211ED04FF0006343EA501043EA511117
:1003D800A0FB01310CF00040B1F5000F3EBF490011
:1003E80041EAD3715B0040EA010062F17F02FD2A15
:1003F8001DD8B3F1004F40EBC25008BF20F00100F8
:10040800704790F0000F0CF0004C08BF49024CEA0E
:10041800502040EA51207F3AC2BFD2F1FF0340EAA0
:10042800C250704740F400004FF00003013A5DDC11
:1004380012F1190FDCBF00F000407047C2F1000252
:10044800410021FA02F1C2F1200200FA02FC5FEA3F
:10045800310040F1000053EA4C0308BF20EADC7089
:10046800704792F0000F00F0004C02BF400010F4FB
:10047800000F013AF9D040EA0C0093F0000F01F0A8
:10048800004C02BF490011F4000F013BF9D041EACA
:100498000C018FE70CEAD15392EA0C0F18BF93EACC
:1004A8000C0F0AD030F0004C18BF31F0004CD8D1F6
:1004B80080EA010000F00040704790F0000F17BF7D
:1004C80090F0004F084691F0000F91F0004F14D0C3
:1004D80092EA0C0F01D142020FD193EA0C0F03D11B
:1004E8004B0218BF084608D180EA010000F000401E
:1004F80040F0FE4040F40000704740F0FE4040F4F9
:10050800400070474FF0FF0C1CEAD0521EBF1CEA97
:10051800D15392EA0C0F93EA0C0F69D0A2EB0302B5
:1005280080EA010C49024FEA402037D04FF080534F
:1005380043EA111143EA10130CF000408B4238BF14
:100548005B0042F17D024FF4000C8B4224BF5B1A22
:1005580040EA0C00B3EB510F24BFA3EB510340EA70
:100568005C00B3EB910F24BFA3EB910340EA9C001E
:10057800B3EBD10F24BFA3EBD10340EADC001B018E
:1005880018BF5FEA1C1CE0D1FD2A3FF650AF8B4232
:1005980040EBC25008BF20F0010070470CF0004C3F
:1005A8004CEA50207F32C2BFD2F1FF0340EAC2506A
:1005B800704740F400004FF00003013A37E792F02B
:1005C800000F00F0004C02BF400010F4000F013A89
:1005D800F9D040EA0C0093F0000F01F0004C02BF84
:1005E800490011F4000F013BF9D041EA0C0195E7ED
:1005F8000CEAD15392EA0C0F08D142027FF47DAF86
:1006080093EA0C0F7FF470AF084676E793EA0C0F75
:1006180004D14B023FF44CAF08466EE730F0004C73
:1006280018BF31F0004CCAD130F000427FF45CAF03
:1006380031F000437FF43CAF5FE700BF4FF0FF3C71
:1006480006E000BF4FF0010C02E000BF4FF0010CC4
:100658004DF804CD4FEA40024FEA41037FEA226C8D
:1006680018BF7FEA236C11D001B052EA530C18BFAF
:1006780090EA010F58BFB2EB030088BFC81738BF14
:100688006FEAE17018BF40F0010070477FEA226C02
:1006980002D15FEA402C05D17FEA236CE4D15FEAFE
:1006A800412CE1D05DF8040B704700BF8446084632
:1006B8006146FFE70FB5FFF7C9FF002848BF10F1F3
:1006C800000F0FBD4DF808EDFFF7F4FF0CBF012038
:1006D80000205DF808FB00BF4DF808EDFFF7EAFFC2
:1006E80034BF012000205DF808FB00BF4DF808ED7D
:1006F800FFF7E0FF94BF012000205DF808FB00BF72
:100708004DF808EDFFF7D2FF94BF012000205DF8F7
:1007180008FB00BF4DF808EDFFF7C8FF34BF012004
:1007280000205DF808FB00BF4FEA4002B2F1FE4F1F
:100738000FD34FF09E03B3EB12620DD94FEA00239B
:1007480043F0004310F0004F23FA02F018BF404274
:1007580070474FF00000704712F1610F01D142025B
:1007680005D110F0004008BF6FF0004070474FF00F
:10077800000070470348044B834202D0034B03B187
:100788001847704754000020540000200000000063
:100798000548064B1B1AD90F01EBA301491002D0DB
:1007A800034B03B118477047540000205400002041
:1007B8000000000010B5064C237843B9FFF7DAFFB4
:1007C800044B13B10448AFF300800123237010BD1C
:1007D800F00A0020000000000829000808B5054BB1
:1007E8001BB105490548AFF30080BDE80840FFF795
:1007F800CFBF00BF00000000F40A0020082900084D
:10080800074A13785178402B84BF4023137040293E
:1008180002D9402353707047994238BF117070470E
:10082800000000201FB51D4B1A788DF800201A799A
:100838008DF801205A798DF802209A798DF80320D5
:100848001A7B8DF804205A7B8DF805209A7B8DF849
:100858000620134A91788DF80710D1788DF8081082
:10086800198A8DF80910090A8DF80A10997CDB7C21
:100878008DF80C3013788DF80B108DF80D3000249E
:1008880053788DF80E306A46102172208DF80F408B
:1008980001F078FB204604B010BD00BF54000020D2
:1008A80000000020022A13B50E4C0F4809D91A7807
:1008B800022A98BFE2745A789B7802704370FFF757
:1008C8009FFFE37C8DF8043003788DF8053001AA8A
:1008D80043788DF806300321722001F053FB002085
:1008E80002B010BD5400002000000020062A07B501
:1008F8000B4A0AD91978062907D811715978517104
:100908009978D3F803309171936013798DF8043096
:1009180001AA0121722001F035FB002003B000BDBF
:100928005400002007B508491AB11B78032B98BF5B
:100938000B700B788DF8043001AA0121722001F0A8
:1009480021FB002003B000BD5400002007B5054B73
:10095800019301AA0421722001F014FB002003B0C6
:1009680000BD00BFDEADBEEFF0B51D4D2C7B6F7B2B
:10097800003C18BF01248DB044F00206002F18BFB8
:100988003446AF7B8DF8042044F004062A78129D83
:100998008DF80200002F18BF3446002B8DF8031085
:1009A8008DF805208DF806300FCD44F00806F6B214
:1009B80018BF34468DF8074002AC0FC40FCD0FC4E2
:1009C80045F6A526ADF8006095E803006A4684E878
:1009D80003003021722001F0D5FA0DB0F0BD00BF40
:1009E8005400002070B58CB002AC05460E46282293
:1009F8000021204601F044FF00943346FF220021E5
:100A08002846FFF7B1FF0CB070BD000010B5064CCA
:100A18004FF44472002104F1140001F031FF002367
:100A28002373238210BD00BF5400002010B5164C5C
:100A38002822002104F5497001F022FF2822002114
:100A480004F5537001F01CFF4FF48072002104F587
:100A58005D7001F015FF4FF48072002104F27440BC
:100A680001F00EFF4FF48072002104F2745001F07F
:100A780007FF064A0023FF216373A37384F87436C3
:100A88009170D170A37410BD5400002000000020A4
:100A980007B5FFF7BBFFFFF7C9FF45F2AA5301AA45
:100AA80002217220ADF8043001F06CFA002003B086
:100AB80000BD00B5A1B080220021684601F0E0FE2B
:100AC8006A468021722001F05DFA21B000BD000065
:100AD80008B5074A92F874361BB9FFF7EAFF0020F9
:100AE80008BD02F57D728021722001F04BFAF6E70D
:100AF8005400002008B5074A92F874361BB9FFF76E
:100B0800D8FF002008BD02F55D728021722001F037
:100B180039FAF6E75400002008B5074A937B1BB959
:100B2800FFF7C7FF002008BD02F2F44280217220BF
:100B380001F028FAF6E700BF5400002008B5074A7C
:100B4800937B1BB9FFF7B5FF002008BD02F2744282
:100B58008021722001F016FAF6E700BF5400002049
:100B680000B58BB028220021684601F089FE6A464C
:100B78002821722001F006FA0BB000BD08B5074A1B
:100B8800937B1BB9FFF7ECFF002008BD02F55372F9
:100B98002821722001F0F6F9F6E700BF5400002082
:100BA800F7B5184E312A378A09D0ADF8047001AA72
:100BB8000221722001F0E6F9002003B0F0BD1C7894
:100BC80004EB44042401B4F5447F17D2C4F54475FA
:100BD800ADB2302D28BF302506F1140020442C4436
:100BE800A4B2591C2A4601F07DFEBC4284BF2746A8
:100BF8003482B7F5447F24BF01233373338AADF8B9
:100C08000430D4E75400002070B5114E114B06F69D
:100C18007805D8700FCD06F553740FC40FCD0FC4E7
:100C280095E803004FF4807284E8030006F5EF614D
:100C380006F2744001F056FE4FF4807206F5CF615B
:100C480006F2745001F04EFE0123B37370BD00BF6D
:100C58005400002000000020F8B5084E084F051F7A
:100C680000F63C4416F8010BFFF740FB3946FFF746
:100C780049FC45F8040FA542F4D1F8BD68000020EE
:100C880000007F4300B5ADF6444D6846FFF7E4FF2A
:100C9800054968460A7801F5CF6100F085FAC0B2C7
:100CA8000DF6444D00BD00BF5400002030B5354C52
:100CB800E37C022BADF64C4D1FD100F02BFB02A8B4
:100CC800FFF7CAFF04F5CF6102A800F0A5F9224694
:100CD80004F5CF6012F8041B00F01BFA04F5CF608E
:100CE80000F020FA04F6780000F048FAC4B200F0E8
:100CF80018FB20460DF64C4D30BD02A8FFF7ACFF9F
:100D080004F5CF6102A800F087F9E37C012B2CD110
:100D18001D4DFFF775FD22462B7812F8041B009332
:100D280004F5CF60002300F0A3F900F0F3FA22469F
:100D38006B7812F8041B00932B7804F5CF6000F051
:100D480097F900F0EEFA2246402312F8041B0093AC
:100D58006B7804F5CF6000F08BF90C4800F0E2F9ED
:100D68000B4800F00BFAC4B2C3E700F0D3FA2246EE
:100D780004F5CF6012F8041B00F0CBF900F0D1FAAB
:100D8800EBE700BF5400002000000020CC06002044
:100D9800CC08002007B5FF238DF80430094B1B7BD6
:100DA8003BB901AA0121722001F0ECF8002003B040
:100DB80000BDFFF77BFFFFF727FF034BDB788DF8BC
:100DC8000430EEE7540000200000002013B50E4C5C
:100DD800237B33B921790120FFF704FE002002B0FC
:100DE80010BDFFF763FFFFF70FFFA17C074A013132
:100DF80004F55373C9B2A17400932379D278012002
:100E0800FFF7B2FDEAE700BF540000200000002011
:100E180070B50E4E0E4B06F6780598700FCD06F598
:100E280049740FC40FCD0FC495E803004FF48072C6
:100E380084E8030006F5EF6106F55D7001F052FDE8
:100E4800012386F87436737370BD00BF5400002008
:100E58000000002013B50D4C217B29B90846FFF787
:100E6800C1FD002002B010BDFFF70CFFFFF7D0FF57
:100E7800A17C074A0131C9B2A17404F549740094F0
:100E8800002392781846FFF76FFDEAE75400002028
:100E98000000002010B5094C237B1BB9FFF760FE4A
:100EA800002010BDFFF7EEFEFFF7B2FF04F5497210
:100EB8002821722001F066F8F2E700BF54000020F4
:100EC80008B500F087F900F0C3F900F0FFF9FFF763
:100ED8009DFDFFF7ABFDFFF793FC01F041F8294AB0
:100EE80000217A2001F022F8274A0021632001F02E
:100EF8001DF8264A0121612001F018F8244A07212B
:100F0800662001F013F8234A0321742001F00EF83B
:100F1800214A3121782001F009F8204A0021622075
:100F280001F004F81E4A00216E2000F0FFFF1D4A60
:100F38000021692000F0FAFF1B4A0021672000F019
:100F4800F5FF1A4A00216F2000F0F0FF184A00212F
:100F5800732000F0EBFF174A0021682000F0E6FF3D
:100F6800154A00216A2000F0E1FF144A002171208F
:100F780000F0DCFF124A0021752000F0D7FF01F0D5
:100F88005FF8FCE755090008990A00082D090008D0
:100F9800F5080008AD080008A90B00089D0E000818
:100FA8005D0E00089D0D0008D50D0008850B000892
:100FB8002D080008450B0008210B0008FD0A000851
:100FC800D90A0008022913B5044612D0032915D0FE
:100FD800012919D100F1004001F0CCF84FF07E5101
:100FE800FFF7D4F801464FF07E50FFF78BFA02B0B6
:100FF80010BD02B0BDE8104001F0E4B8C30F013BDA
:1010080018400190019BF2E70021FFF783FB08B12C
:101018002046ECE70020EAE72DE9F74FDFF8489093
:10102800124F82460E1F01F1FC0500F63C4359F8A9
:10103800044BAAF10408BB4658F8041F5BF8040BDC
:101048000193FFF7ABF901462046FFF79FF8019B94
:1010580098450446F0D146F8040FAE4207F54467B8
:10106800E5D103B0BDE8F08F5033000850340008D4
:101078002DE9F0411546069A402AA8BF402223EAE6
:10108800E374A2420E4690460BDD002BCBBF04F161
:101098003F03002450F82310002100EB8407444547
:1010A80001DBBDE8F0812A7857F8043B013A052AAC
:1010B80007D8DFE802F0030B101519216A78A2425D
:1010C80015D031461846FFF77DFF20E06A78A24226
:1010D800F7D100230BE06A78A242F2D10B4606E072
:1010E800AA78A242F5DDECE7AA78A242E9DCC7F8C3
:1010F800FC3001341946D2E718463146FFF762FF43
:101108006A78A2420346F2D16968FFF73FF80346BE
:10111800EDE707B5402300930023FFF7A9FF03B0CD
:1011280000BD00002DE9F74F00F5FE7ADFF8449086
:10113800114E074600F50973554659F8044B07F157
:10114800FC08B34658F8041F5BF8040B0193FFF73B
:1011580025F901462046FFF719F8D045019B0446BA
:10116800F0D145F8040F9D4206F58076E5D103B02D
:10117800BDE8F08F28290008502900082DE9F04122
:10118800066807460124002557F824803146404662
:10119800FFF7C0FA08B14646254601340A2CF3D1B8
:1011A8002846BDE8F081000038B50C461546FFF723
:1011B80033FF29462046064AFFF7ABFF2046FFF7D4
:1011C800B1FF04F50070BDE83840FFF7D7BF00BF96
:1011D8002029000870B596B0002403264FF4A023F8
:1011E8000CA80125CDE90C631094149400F0D0F8F4
:1011F8000F23214602A8CDE90235CDE9044406941F
:1012080000F00CFB104B11485A6942F400225A6155
:101218005B6903F400230193019B07A94FF4C043C2
:10122800CDE90735CDE9094600F098FB2A4607487D
:101238004FF4005100F04CFC04482A464FF480411A
:1012480000F046FC16B070BD0010024000080048CF
:1012580010B54FF4C06288B00223CDE90323012101
:101268000323CDE90513164C07230793636943F459
:1012780000336361636903F40033019303A94FF0FA
:101288009040019B00F06AFB0E4A0F4B13604FF42D
:1012980061300023C2E90103C2E9033393610C23DF
:1012A8005361A36943F48043A361A36903F48043B2
:1012B80002931046029B00F01EFD08B010BD00BF4F
:1012C80000100240F40800200038014030B5104BEF
:1012D8005A6942F4003287B05A615B6903F40033FB
:1012E8000093009B4FF480540123CDE9014300256E
:1012F800032301A94FF09040CDE9035300F02EFBE2
:101308002A4621464FF0904000F0E2FB07B030BD7E
:101318000010024001224FF480514FF0904000F03D
:10132800D7BB00224FF480514FF0904000F0D0BB63
:1013380013B5094C094841F2883301220DF1070120
:1013480000F058FD18B99DF8070002B010BD236AD7
:1013580043F008032362EDE700380140F408002059
:1013680007B541F288338DF8070001220DF1070116
:10137800024800F0EAFC03B000BD00BFF4080020FA
:10138800024B1868421C1A60704700BF64090020AD
:1013980003682DE9F743D907044610D423689A0750
:1013A8007ED423681E0700F1E78023685D0700F1FB
:1013B8002A81E269002A40F0AD8100201FE0AE4991
:1013C8004B6803F00C03042B07D04B6803F00C03A5
:1013D800082B17D14B68DB0314D54FF4003393FA6D
:1013E800A3F2096893FAA3F30122B3FA83F302FA8A
:1013F80003F30B42D2D06368002BCFD1012003B096
:10140800BDE8F0836268B2F5803F22D10B6843F4EF
:1014180080330B60CB6AA06823F00F030343CB62D1
:101428003AB3FFF7ADFF4FF400350646012795FAAA
:10143800A5F30A6895FAA5F3B3FA83F307FA03F359
:101448001342ABD1FFF79CFF801B6428EFD9032020
:10145800D5E70B6832B923F480330B600B6823F4AB
:101468008023D6E7B2F5A02FF5D143F480230B6093
:10147800CCE7FFF785FF4FF400350646012795FABC
:10148800A5F30A6895FAA5F3B3FA83F307FA03F309
:10149800134283D0FFF774FF801B6428EFD9D6E787
:1014A80075494B6813F00C0F07D04B6803F00C0319
:1014B800082B1FD14B68DF031CD4022393FAA3F235
:1014C800086893FAA3F30122B3FA83F302FA03F349
:1014D800034202D02369934290D10868F82292FA15
:1014E800A2F26369B2FA82F2934020F0F802134341
:1014F8000B6056E722690125F2B195FAA5F3B3FA14
:1015080083F303F1845303F584139B0002271D60C2
:10151800FFF736FF064697FAA7F30A6897FAA7F384
:10152800B3FA83F305FA03F31342D6D1FFF728FF82
:10153800801B0228EFD98AE795FAA5F3B3FA83F35B
:1015480003F1845303F584139B0002271A60FFF705
:1015580017FF064697FAA7F30A6897FAA7F3B3FAAC
:1015680083F305FA03F313423FF41BAFFFF708FFB9
:10157800801B0228EED96AE7A0693F4D3F4A012146
:1015880000B391FAA1F3B3FA83F313449B00022644
:101598001960FFF7F5FE074696FAA6F396FAA6F342
:1015A80096FAA6F36A6A96FAA6F3B3FA83F301FAEF
:1015B80003F313427FF4F9AEFFF7E2FEC01B0228E3
:1015C800EAD944E791FAA1F3B3FA83F313449B00F1
:1015D80002261860FFF7D4FE074696FAA6F396FA95
:1015E800A6F396FAA6F36A6A96FAA6F3B3FA83F311
:1015F80001FA03F313423FF4D8AEFFF7C1FEC01B54
:101608000228EAD923E71C49CB69D80031D4CB6931
:1016180043F08053CB61CB6903F080530193019B66
:101628000125174E3368DA052CD5E368012B39D12B
:101638000B6A43F001030B62FFF7A2FE022607467E
:101648004FF0010841F2883996FAA6F396FAA6F304
:101658000A6A96FAA6F3B3FA83F308FA03F3134275
:1016680052D0002D3FF4A5AECB6923F08053CB6157
:101678009FE60025D5E700BF0010024020819010AA
:1016880000700040336843F480733360FFF778FEDE
:1016980007463368DB05C8D4FFF772FEC01B642811
:1016A800F7D9D4E613BB0B6A23F001030B620B6A6C
:1016B80023F004030B62FFF763FE022607464FF090
:1016C800010841F2883996FAA6F396FAA6F30A6A4F
:1016D80096FAA6F3B3FA83F308FA03F31342C0D0D9
:1016E800FFF74EFEC01B4845EDD9B0E6052B0B6A47
:1016F80003D143F004030B629AE723F001030B6262
:101708000B6A23F0040396E7FFF73AFEC01B48452F
:101718009AD99CE63F494B6803F00C03082B3FF429
:101728006DAE022A4FF0807350D193FAA3F3B3FA47
:1017380083F303F1845303F584139B0000221A609A
:10174800FFF71EFEDFF8D08006464FF00077012530
:1017580097FAA7F30A6897FAA7F3B3FA83F305FA97
:1017680003F313422CD1D4E908034A68034322F453
:10177800741213434B604FF0807393FAA3F3B3FAD8
:1017880083F303F1845303F584139B00224F1D60F8
:10179800FFF7F6FD4FF000740546012694FAA4F30E
:1017A8000A6894FAA4F3B3FA83F306FA03F313422C
:1017B8007FF403AEFFF7E4FD401BB842EED946E6DE
:1017C800FFF7DEFD801B4045C2D940E693FAA3F33C
:1017D800B3FA83F303F1845303F584139B000022C7
:1017E8001A60FFF7CDFD0C4F05464FF00074012637
:1017F80094FAA4F30A6894FAA4F3B3FA83F306FA02
:1018080003F313423FF4D9ADFFF7BAFD401BB842CA
:10181800EED91CE600100240400D03004D4AF8B511
:10182800136803F007038B42054611D32A6894070F
:101838001AD4D00720D4474A136803F007038B4211
:101848006CD82A68510774D413077AD400200AE0A8
:10185800136823F007030B431360136803F00703AF
:101868008B42E3D00120F8BD3B48AC68436823F0C5
:10187800F00323434360DCE76A68374C012A25D12B
:101888004FF4003393FAA3F0206893FAA3F3B3FA62
:1018980083F302FA03F30342E4D0636823F00303FB
:1018A80013436360FFF76CFD6B68012B064641F23A
:1018B80088371CD1636803F00C03042BBBD0FFF7F7
:1018C8005FFD801BB842F5D90320CCE7022A0CBF84
:1018D8004FF00073022393FAA3F0266893FAA3F358
:1018E8000120B3FA83F300FA03F33342D4E7022B5F
:1018F8000FD1636803F00C03082B9CD0FFF740FD61
:10190800801BB842F5D9DFE7FFF73AFD801BB842E4
:10191800DAD8636813F00C0FF6D18CE7136823F05C
:1019280007030B431360136803F007038B4299D135
:1019380087E70949E8684B6823F4E06303434B6091
:1019480082E7054A2969536823F4605343EAC103CF
:1019580053607BE700200240001002402DE9F74F5A
:10196800DFF86081584C00224FF00F090B6833FAFA
:1019780002F502D103B0BDE8F08F012505FA02FA9D
:101988001AEA030300F094804D6825F0100EBEF1AA
:10199800020F11D1D70800EB870702F0070C3E6A47
:1019A8004FEA8C0C09FA0CFB26EA0B0B0E6906FAB7
:1019B8000CF646EA0B063E6207684FEA420C03261D
:1019C80006FA0CF627EA060B05F0030707FA0CF7E8
:1019D8000EF1FF3E47EA0B07BEF1010F076010D872
:1019E800876827EA060ECF6807FA0CF747EA0E075A
:1019F8008760476827EA0A0E2F09974047EA0E07CB
:101A08004760C76827EA06078E6806FA0CF63E4361
:101A1800C660EE004CD5D8F8186046F00106C8F844
:101A28001860D8F8186022F0030707F1804706F01D
:101A3800010607F58037019602F0030C019EBE6887
:101A48004FEA8C0C09FA0CFEB0F1904F26EA0E0E04
:101A580030D01E4EB0422FD006F58066B0422DD051
:101A680006F58066B0422BD006F58066B04214BFFA
:101A78000526042606FA0CF646EA0E06BE60266817
:101A8800EF0354BF9E431E4326606668AF0354BFEE
:101A98009E431E436660A668EF0254BF9E431E43E2
:101AA800A660E668AD0254BF26EA03033343E36049
:101AB80001325BE70026DDE70126DBE70226D9E7EE
:101AC8000326D7E700100240000401400004004844
:101AD8000AB18161704781627047000002688368BB
:101AE800C16930B5056914682B43456924F4164467
:101AF8002B4324F00C040B43234313605368C4683E
:101B0800056A23F44053234353609468836924F49B
:101B180030642B4323439360424B9A4211D103F51F
:101B280058431B6B03F00303022B5FD0032B65D0D4
:101B3800B1F5004F41684FEA510345D003F5E10381
:101B480048E0394B9A4212D103F5E6331B6B03F494
:101B58004033B3F5003F49D0EAD9B3F5403F4DD003
:101B6800B1F5004F4FF001005BD1002353E02F4B3C
:101B78009A420BD103F5E4331B6B03F44023B3F50E
:101B8800002F33D0D4D9B3F5402FE8E7284B9A4239
:101B98000BD103F5E2331B6B03F44013B3F5001FBD
:101BA80024D0C5D9B3F5401FD9E7224B9A42D7D1E3
:101BB80003F5E0331B6B03F44003B3F5000F15D0B6
:101BC800B6D9B3F5400FCAE703F561031FE04B0828
:101BD80003F50043B3FBF1F39BB2D360002020E090
:101BE8004B0803F5740303F51053F3E7B1F5004F01
:101BF8004168ECD14B0803F5803308E0B1F5004F9C
:101C08004168EDD14B0803F1F47303F59043B3FB3E
:101C1800F1F300209BB223F00F01C3F342030B43FF
:101C2800D36030BD00380140004400400048004007
:101C3800004C0040005000402DE9F041069E04464B
:101C4800174698462568E86931EA00000CBF012369
:101C58000023BB4201D0002013E0721CF3D096B9D8
:101C68002B6823F4D0732B60AB6823F00103AB60BF
:101C7800202384F8693084F86A30002384F86830B7
:101C88000320BDE8F081FFF77BFBA0EB0800B04222
:101C9800D8D9E5E773B504460021C166FFF770FBA4
:101CA800266833681A07054616D433685B070AD5D1
:101CB8006FF07E43009300222B464FF480012046AC
:101CC800FFF7BAFFA0B92023002084F8693084F810
:101CD800680084F86A300CE06FF07E4300930A468F
:101CE80003464FF400112046FFF7A6FF0028DCD07A
:101CF800032002B070BD38B5044620B390F86930AF
:101D080003F0FF020BB980F868202568242384F8C3
:101D180069302B6823F001032B602046FFF7DEFEB5
:101D2800012810D06B6823F490436B60AB6823F0F4
:101D38002A03AB602B6843F001032B602046BDE803
:101D48003840FFF7A7BF012038BDF7B51E4690F809
:101D58006930202B0D460446114649D1002D45D047
:101D6800002A43D090F86830012B41D0012380F835
:101D780068300023C366212380F86930FFF700FB31
:101D8800A4F850100746A4F85210B4F8522092B2A2
:101D980062B900963B4640212046FFF74DFF90B9B7
:101DA800202384F8693084F868000DE0B4F85230D4
:101DB800013BA4F85230002200963B468021204681
:101DC800FFF73AFF10B1032003B0F0BDA268236803
:101DD800B2F5805F07D122692AB935F8022BC2F320
:101DE80008021A85D1E715F8012BFAE70120EBE77D
:101DF8000220E9E72DE9F3411E4690F86A30202BCE
:101E08000D46044611465DD1002D59D0002A57D001
:101E180090F86830012B55D0012380F868300368AA
:101E28004FF0FF321A620023C366222380F86A301B
:101E3800FFF7A6FAA368A4F85810B3F5805F074621
:101E4800A4F85A1015D123698BB940F2FF13A4F8EE
:101E58005C30B4F85C80B4F85A0080B280B92023B2
:101E680084F86A3084F8680002B0BDE8F081FF2386
:101E7800EDE7002BEDD12369002BF8D07F23E6E7AF
:101E8800B4F85A30013BA4F85A30002200963B4679
:101E980020212046FFF7D0FEB0B9A2682368B2F52A
:101EA800805F07D122692AB99B8C08EA030325F8C9
:101EB800023BD0E79B8C08EA030305F8013BCAE71D
:101EC8000120D1E70220CFE70320CDE710B5064C6B
:101ED800034601440020994200D110BD13F8012B9C
:101EE8004240A05CF7E700BF5044030830B5002229
:101EF800044601238B4201D3002030BD14F8015F52
:101F080015B99D1A85541A460133DBB2F2E730B58C
:101F180002780025044605701046884200D202B9AE
:101F280030BD225C25548318D8B2F6E738B50B4D7E
:101F38002B681F2B04DD6120FFF712FA012038BD42
:101F4800F82901D96220F7E70C2404FB0354013374
:101F58002071C4E902122B600020F0E76C09002010
:101F680008B5064A00217620FFF7E0FFBDE80840E3
:101F7800034A00217720FFF7D9BF00BFF71F0008E9
:101F880011200008F0B50C46C1B04AB300238DF803
:101F980006108DF804308DF8050001AE0DF106012C
:101FA8009C421FDCA11CC9B20DF10500FFF78EFF92
:101FB80004F580736B44271D03F8F90C07F580734B
:101FC8006B44611D0025C9B2304603F8FC5CFFF77D
:101FD8008DFF16F8010B0135FFF7C2F9AF42F8DAA9
:101FE80041B0F0BDD05C01F8010F0133D8E707B567
:101FF80003230DF10702012172208DF80730FFF746
:10200800C1FF002003B000BD30B50C48017889B08D
:1020180000220C24D3B28B4206DB6A467220FFF7FB
:10202800B1FF002009B030BD03F1200504FB030314
:102038006D441B7905F8203C0132EBE76C09002060
:102048002DE9F043C1B001AD0024A846FFF770F9AF
:10205800287058B905208DF803000DF103020121FD
:102068006520FFF78FFF41B0BDE8F0830134042CF1
:1020780005F10105EAD121464046FFF748FF294D01
:102088009DF805102A68074600230C20DEB2964208
:1020980002DB08D10120DEE700FB065C01339CF877
:1020A80004C08C45F2D19DF807300533BB4208DAED
:1020B8000420D0E7FFF73CF908F804000028C9D04D
:1020C80001349DF807300433A342F3DAFFF730F9FF
:1020D80004F580730DEB030909F8FC0C0028E7D11F
:1020E800C7F101012144C9B208EB0700FFF70FFF50
:1020F800A11EC9B20DF10500FFF7E8FE19F8FD3C75
:1021080083420CD10C2303FB06559DF80720EC688D
:102118009DF806109DF8050002ABA0479BE702203A
:1021280099E700BF6C090020002103E00B4B5B58C6
:10213800435004310A480B4B42189A42F6D30A4AD4
:1021480002E0002313600432084B9A42F9D3AFF33C
:10215800008000F0A3FBFEF7B3FEFEE77C45030812
:10216800000000205400002054000020440C0020EF
:10217800FEE7000038B5054600F054FA0446284644
:1021880000F09AF848B10D492846FEF7C3FA30B96D
:102198000B492846FEF7A0FA48B9204638BD00F09A
:1021A80077FB4FF0FF4422230360204638BD00F040
:1021B8006FFB222300240360EFE700BF1772B142D0
:1021C800B5F1CFC230B520F00042B2F1FF4F83B075
:1021D80001460CD3344B002818681B681C4639DBB1
:1021E800FEF790F92146FDF7D1FF03B030BDDFF8C7
:1021F800BCC062450DD92C492D4A01900868116868
:10220800FDF7C2FF019B002BB8BF00F1004003B0EF
:1022180030BDB2F1105F24D3B2F17E5F019029D3B3
:1022280000F02AFB234A1168FEF7B8F800F04CF8D2
:10223800204A01461C48046815681068FDF7A6FF87
:1022480001462846FEF75EF901462046FDF79CFF49
:10225800019BD8E7FEF756F92146FDF795FF03B035
:1022680030BD114B01901868FDF790FF0199FEF7FA
:1022780095F8BAE70F4A13681C4600F0FDFA0146C4
:1022880004F10040FEF78AF800F01EF8094A0146FA
:10229800106801F10044FDF779FF01462046FEF77A
:1022A80031F9019BAFE700BF58450308FFFFAF4175
:1022B800504503085445030820F00040B0F1FF4F93
:1022C8002CBF0020012070472DE9F041AE4D20F0D1
:1022D8000042AA4282B0044600F0004636D9B2F164
:1022E800FF4F00F2BA8000F02781002E40F0BB803B
:1022F800A6498A4200F24281A549FEF74FF80146F5
:102308004FF07C50FDF742FFFEF70EFA0646FDF748
:10231800F1FFA0490746FEF741F801462046FDF7C0
:1023280033FF9D4905463846FEF738F803461946F7
:1023380028460093FDF728FF014604462846FDF786
:1023480023FF0099FDF720FF804607E093498A4262
:1023580076D8B2F14C5FC0F0BB8000264FF07C51BC
:102368002046FEF71BF8014600902046FEF716F8B7
:102378008B490546FEF712F88A49FDF707FF2946FB
:10238800FEF70CF88849FDF7FFFE2946FEF706F828
:102398008649FDF7FBFE2946FEF700F88449FDF75C
:1023A800F3FE2946FDF7FAFF4FF07E51FDF7EEFEEA
:1023B800014601900098FDF7F1FF01467D48FDF7C1
:1023C800E3FE014600900198FDF7DEFE00990746FE
:1023D8002046FDF7E3FF01467748FDF7D5FE0146A5
:1023E8003846FEF78FF82946FDF7D8FF002E61D052
:1023F8004146FDF7C9FE2146FDF7D0FF4146FDF7EE
:10240800C3FE2946FDF7C0FE731C054600F0878011
:10241800012E6AD0731C392B4FEAC6553CD8162EAC
:1024280000F38E804FF0807333412146C3F17E5410
:10243800FDF7AAFE01462046FDF7A6FE28440FE058
:102448005E498A421FD85349002E62D0FDF79EFE8E
:102458004FF0FF365A4B054669E70146FDF796FEF1
:1024680002B0BDE8F0815749FDF790FE0021FEF764
:1024780033F9002862D146492046FDF78FFF01460F
:102488004FF03F403EE74249FDF788FF0146002EE6
:1024980071D04FF03F4035E72146FDF775FE014604
:1024A8004FF07E50FDF770FE4FF07E512844FDF747
:1024B8006BFED5E701462046FDF770FF2946FDF77C
:1024C80063FE01462046FDF75FFE02B0BDE8F081DD
:1024D8003D49FDF75BFE0146FDF756FE01462046E5
:1024E800FDF752FE02B0BDE8F08138492046FEF7FC
:1024F800F3F8002833D04FF07C512046FDF746FE14
:1025080001462846FDF740FE4FF04041FDF746FFE3
:10251800A6E7FDF739FE01261F4B054607E70146EA
:102528002046FDF731FE4FF07C51FDF737FF4FF0A5
:102538007C51FDF729FE93E7002E91D024488FE7C0
:10254800C6F17F01C905FDF721FE01462046FDF7CA
:102558001BFE4FF07E51FDF719FE284480E72946FF
:102568002046FDF711FE0146FDF710FE4FF07E51A3
:10257800FDF70CFE74E74FF07C50C3E6304602B01E
:10258800BDE8F04100F04AB843B895411772B1422E
:102598003BAAB83F8071313FD1F717371872B13E67
:1025A800BBED57B4547E8636CD70A638010DD03AAF
:1025B8008988083D000040400000C0409115853FD3
:1025C800D1F717B76042A20DCAF24971000080BE68
:1025D800000080BF10B582B00446019100F058F9A0
:1025E800019903462046196002B010BD08B540B1F4
:1025F80001F10040FDF7D2FEBDE808402221FFF7B7
:10260800E9BF0846FDF7CAFEBDE808402221FFF7EA
:10261800E1BF00BF4FF08051FFF7E8BF4FF0E04146
:10262800FFF7E4BF2DE9F04320F00042B2F1FF4F7D
:1026380083B004466DD84FEAD07500F0CB807E4950
:10264800884200F3B7800028C0F2BA807B4B9A42D8
:1026580065D97B4B9A4200F2CC807A4B204653F8DE
:102668002510FDF791FD784A52F8252085F00103E1
:10267800904607465E1B41463846FDF785FD0146F4
:102688000446FDF78BFE71490546FDF787FE704944
:10269800FDF77AFD2946FDF781FE6E49FDF776FDC7
:1026A8002946FDF77BFE6C49FDF76EFD2946FDF7CF
:1026B80075FE6A49FDF76AFD2946FDF76FFE01467A
:1026C8002046FDF761FD014620460D460191FDF7C4
:1026D80065FE01998146002E53D04FF08040FDF7EA
:1026E80053FD01464846FDF70DFF01464046FDF7FC
:1026F8004BFD3946FDF748FD01464FF07E50FDF78A
:1027080043FD16F17D0F69DB00EBC65003B0BDE851
:10271800F0830146FDF73AFD03B0BDE8F083B2F15E
:10272800505F09D24E492046FDF730FD4FF07E51EB
:10273800FDF7F0FF002879D121462046FDF72EFE4F
:1027480042490546FDF72AFE4149FDF71DFD294688
:10275800FDF724FE3F49FDF719FD2946FDF71EFE4A
:102768003D49FDF711FD2946FDF718FE3B49FDF7E8
:102778000DFD2946FDF712FE01462046FDF704FD32
:10278800054629462046FDF709FE4FF080410646DA
:102798002846FDF7F9FC01463046FDF7B3FE214611
:1027A800FDF7F2FC01464FF07E50FDF7EDFC03B05B
:1027B800BDE8F083002003B0BDE8F043FFF72EBF6B
:1027C800284B9A427FF642AF002003B0BDE8F043A1
:1027D800FFF720BF002D9FD000209DE706F164037E
:1027E8004FF0586100EBC350FDF7D8FD03B0BDE8CA
:1027F800F0831D492046FDF7D1FD1C4B53F82510E9
:10280800FDF7C4FCFDF790FF0646FDF773FD184978
:102818000546FDF7C3FD01462046FDF7B5FC154901
:1028280007462846FDF7BAFD804624E74FF07E515B
:102838002046FDF7ABFC6FE71772B1421872B13E44
:102848009115853F644503085C4503084CBB31334B
:102858000EEADD3555B38A38610B363BABAA2A3E02
:10286800CAF24971B5F1CF423BAAB83F6C4503089B
:102878008071313FD1F7173720F00040704700BF13
:1028880002440346934200D1704703F8011BF9E75D
:10289800014B1868704700BF0400002070B50D4B4D
:1028A8000D4C00261D1BB6EBA50F09D100F028F82A
:1028B8000A4C0B4B00261D1BB6EBA50F05D170BDAE
:1028C80054F8043B98470136EDE754F8043B984721
:1028D8000136F1E774450308744503087445030895
:1028E800784503080A44914200F1FF3300D170474C
:1028F80010B511F8014B03F8014F9142F9D110BD01
:10290800F8B500BFF8BC08BC9E467047F8B500BFD4
:08291800F8BC08BC9E467047A4
:102920000000000000000000632345BE5384B73E52
:10293000D24A683E462CA83CBA9743BCD1853F3E5C
:10294000FB9126BE9B64A73E3958F9BECCE328BE56
:102950009D8A3ABFE0188BBE4056BDBDF6C76DBD1F
:10296000C72456BF9BA5E8BE9A69D93EA4547FBE32
:10297000FD330F3DE18B903FC8B18BBE290DE1BE09
:10298000C7F40F3F9283883FBE28D9BE7C1611BF83
:1029900055242E3FBB8A07BF9B7289BF81BE15BFDE
:1029A0004EA19B3E0283903B71EC22BF4C5E80BEE9
:1029B000E027D5BD53B0D2BE8B3133BFA252903E7B
:1029C000688503BF896B39BE27ADBC3DD9881EBF62
:1029D0005F83163F49122BBFCD72783F6EBFE5BDB6
:1029E000383D8BBC556A0BBD241C46BF5D21273F7B
:1029F000A3F1903ED7580CBCBA38FA3D1A32123FB8
:102A0000A7A0443FA1C410BEF8DB1D3FF0E04C3E40
:102A10007E3B323E804C183F7EDB79BED0F18E3E4D
:102A200036D19DBE88CB1D3E991F29BF742D7CBD1C
:102A3000D0EE8C3FA44B4C3F7457E3BE68C099BEA8
:102A40003D6B6B3E4A8F853E13E237BF09DC683F22
:102A5000BBE407BC2DBC2E3B1457DF3EDCA825BFD2
:102A60002358323E4A7C5E3FF3B5A4BED8392DBF11
:102A70007AEAD23E9C06BBBD7AA8ABBDA6A080BEBA
:102A80000B47043FAB2926BFDB59EB3EE9DA8CBF8D
:102A9000E0C6113FBB2138BF5EEA363F2D5A003EEB
:102AA00011650CBFC4A5453E297E413FD8CBD93E18
:102AB00049CE14BFA10C4E3FE18C873DDB340B3F68
:102AC000A078AFBE7BC44DBC8A961C3F584FCB3D0F
:102AD0002C953D3F4111ABBD8C13E23E7EFFE4BD22
:102AE000D477993F469766BF5F0897BDF9E5D33E17
:102AF0008AE5753EEEF2F7BEC4299B3E6D39743D02
:102B00005A7A49BF33CC5A3FAC02C23E9B722D3F2A
:102B1000697B95BED46955BF52E4343FAF52323F12
:102B2000B73E953ED137D73EF79899BE53162BBF87
:102B3000BB3F543F0330C0BEB9082B3FAC79003FC8
:102B4000958509BBE9A1E33E696F693FE4B48A3E1C
:102B50004CD079BF309E35BF73B3933D56D9A53D58
:102B6000A06C48BE3609423FE1B097BE62BAE73E6C
:102B70005EF8093FB1BD493F1667AABF6655D43F0D
:102B8000A9FECD3D5EF5163E6B47133F462E6F3FC7
:102B9000EBEF6ABF51B375BEA44F23BEB8FBDB3B5E
:102BA00018B6023F394828BE0B8B673F885868BF6C
:102BB000CD4DDD3E953EF7BEBFCE5EBFAC10E0BE54
:102BC00046CB45BF0FF140BE5311D23E33B53C3F1B
:102BD000528CCDBE0E46BABEFEF409BFF1ED103FD9
:102BE0007F26573F965EA23F55038E3FE94F04BDB7
:102BF000C965BE3EEE6E983E01ECDE3E40BD7EBF36
:102C000030ED203F677F16BF96BC51BFA894483F68
:102C1000D8FE823ECC8AB93EE4399A3E8BBF1D3F36
:102C2000426B7F3F289934BF84206DBD5CE761BF54
:102C30004F493ABE0ADC003DC172343F02C3603ED8
:102C400009C622BFFAB947BFE46883BDDBDD8D3E0C
:102C5000114FAABEFC65213F52A81ABF4AF90EBE09
:102C60003C8D27BE285E74BF19E38ABE3E96153F91
:102C7000B0EB903E05BFA5BF4B5C9C3E76B14CBD12
:102C80003FB2E5BE99287FBFFCBE1C3E6736793F48
:102C9000BDA8DEBCCD2EE83E46E41C3FE384663F83
:102CA0003408EF3E9CD212BF2DABA03EC14892BF6C
:102CB000F34D07BF863F4C3F8EAA483EB06893BF96
:102CC000FD964A3F3D772D3F10F444BE554035BE3A
:102CD0009340B33E1A9BED3E449CA23EF58100BF5B
:102CE000766034BF189DF9BEEFC516BFAC235DBF3B
:102CF0006C5F4D3E337915BF7AA5113F9B12763E2E
:102D0000D32C2ABF38AE44BFEBD863BE5B4A18BF92
:102D1000FBF065BD6C3ECE3EEBB21C3FE3EFBB3E2D
:102D20004C47433F2724933E043328BE81DC6D3E4D
:102D3000CB503C3E12E5B3BC0CC53F3FBF65283FBE
:102D40001B39943E66AB4D3F538F70BF3DBD1ABFDC
:102D50003B4AAD3DEA7A3C3E53437E3E2824493F00
:102D6000FB392EBF8EEEBF3E1EF2903EE122383D73
:102D7000262AC7BE6B2819BEF135AF3E06D18F3E5D
:102D800093DC83BCF68F89BED0AA9DBFD7CC5CBF35
:102D9000F231A1BE3570BB3DDAFCEE3D8CEF3EBF9B
:102DA000724620BF22867A3F8C80FEBE9368823EA8
:102DB0003B06D33EE234BE3EEF024BBFAF5ED23E97
:102DC00070C7363DD63624BF844E92BF68AAAD3E4A
:102DD000632E57BFFD340CBF0B2DE93ECE94E3BEEE
:102DE000338C1DBF8C9AA0BEF18BB93E3F4F69BF9B
:102DF0006FAF033F6F3961BF3ED439BFA357E9BE00
:102E00006F418BBE7F5E763E6D900C3F4388A63E41
:102E1000FB0D883F929781BE66144DBE36D5593F53
:102E20006994FDBE3B63F7BEC14B72BFC58B073FC4
:102E3000660D41BF9AE4EEBE31CF37BF47F1983FF0
:102E40005E115D3EBCA89E3EDAF83F3F012F84BF75
:102E50006997D43D23C4C0BEC95589BFA7A0B53E5C
:102E60008BD6C13ECD2FEBBEC8D2A7BE95B0663F74
:102E70002880F4BDF3BE16BF84E4173FB2D676BFF8
:102E8000B3E4413F51C0693EC4480B3EA12384BD19
:102E900088748D3F1EE480BFC0B61E3F55552B3F42
:102EA00066DFBDBE29CAC8BDF1C5A53E39ED8A3F62
:102EB0009188B83E87AE49BF205C733F3862843F3B
:102EC000489C5B3FF3A9F5BEF5D40C3F486AA9BD09
:102ED0009DF01A3E00820F3F613D1DBFF89F1FBF4E
:102EE0002973C2BE04685CBE021DE83E57CE65BFB2
:102EF00095529ABF3317F23E74B46D3FBD7A52BEFD
:102F000059587EBE33E5C73E30E4A1BD02FDA6BFE1
:102F1000ED8325BF86414DBE5B7467BFCFBC8DBDC1
:102F2000E5541FBF919995BE97BA1D3C977B14BF7E
:102F300059A6013E489790BFA93A64BF78E7C6BF3B
:102F4000DC2AC13E676B6ABFFAAD0DBE96F8B0BE13
:102F5000BDE70D3E946F23BFAE2EE4BED275383F61
:102F6000158AABBEFE24263F77840EBF61A7C0BE84
:102F7000A73D96BFB406553F1759D4BE5B803F3E70
:102F8000ED7D11BF993ADC3E941425BE34D7ADBE19
:102F900006A8BC3E1B10FF3E52A0AABE225F5B3FAC
:102FA0005561883F5D8AD2BEA63695BE32AC5E3F83
:102FB000FE5B883E9C6521BEDDDFC1BE040FA2BD65
:102FC0005265243FBA148B3DE9EAF6BEA038193F9A
:102FD0008149A5BDE6C047BFFA77E13EA28C36BE67
:102FE000D08C283E12DC2B3E03B0A43CD5322F3FC0
:102FF0005B749ABE96E707BBEF1F25BFE5B3673F3B
:10300000E411D9BE4146713E25A0963E44242EBF10
:103010009720803EB6C20BBFF461563F62709F3E60
:1030200082DB1BBED550D63EC2F9873F2D4348BE3A
:10303000575E413E9EFF42BD2BB6CABE869891BFE9
:103040002C5FB4BDF08A263F03CC823E1D6F203F2B
:103050000B983D3F5CE22D3FF55EF53E6FC83EBDEF
:103060001FC37F3C3D9626BEDC9463BFB14B3C3F03
:10307000EA6C973EB17281BE7B1C1D3FA4420BBF20
:103080001B53B6BD62A9123F67D569BF7B3835BFF8
:10309000D693E8BE5C38263F5607383EFE27FDBE75
:1030A0007361013D7364443F8A68923F603DB0BEE6
:1030B00057D963BFF666B93CE066F73E3123D23E8E
:1030C000891F1BBF5898F7BE96390EBE47C16FBF08
:1030D0005A38FDBE7BF38C3FD323C33D87FC20BF12
:1030E0005C4F48BEE7F2503F64BFC5BE6E77153FE8
:1030F0007F3B0A3EF00B8FBE2EA1193E561501BF35
:1031000038CA2F3FF683943F1840393FEB0B013FFD
:103110008FB72BBFBEA00D3F555AC0BE61E266BD42
:10312000076B713FC319533FDA3187BEC70FAF3EFC
:10313000905FA43EBAF02A3F21C1043FF1CBFC3D91
:103140007ACFB4BF5628D3BCBFE5B6BE4C8A60BDAB
:103150008B6F313F5696BA3E9030383E6C60643E7D
:103160004688493F88A705BE647A323F067C50BD39
:1031700055502EBFB18DDB3C2638C53EEAFDA03D43
:1031800091DC41BF7E2D5EBEE5F0263E8089533F37
:10319000D7A88BBE3978353E5118BABF88D006BF44
:1031A000E7C0D5BE5F4697BF223656BF78F294BEC1
:1031B0007CB9533FB65667BEB374173F786F22BFD2
:1031C000E7DB17BD65457E3F4D5CF23E38ADF73D10
:1031D000E974923FB4A6E83BA73B613D0BCE503F5C
:1031E00033B79EBE3176E03EDF9DE93E8E371E3F0F
:1031F0000C7CCBBECF057C3F101140BF7B9E1BBE1D
:10320000FF7D45BE21543D3D54A824BF12F7CA3D61
:10321000F3BBF6BDCBD2B03EAA24B53ECD6A9ABF71
:10322000F17D40BFC3D6EBBED50AF63E27C4043FAE
:10323000BC360FBF55ED34BE503D15BF22C8163EFB
:10324000842D283FEA1E04BFCB1D103FA6F5FC3E8F
:103250006726E23D8740223F706F8E3E979C8CBF71
:1032600024482B3F592DAFBE8B273C3F726192BF44
:10327000B7DC8C3EFFA7F4BED12DD2BE14F28BBEBC
:10328000BB39583F0A63963E6351A03F4971D83E0F
:1032900013AD683EAE83463E48B38D3E6AE19E3D27
:1032A00048C8253E27F1423FCC3A70BF617C113EB1
:1032B000086420BE1537F03E4F0D0D3E5A811F3E6B
:1032C000D373EE3E688131BF03375C3F087EB8BEE2
:1032D000312163BF08CD04BF184C8ABF0DDE113FFA
:1032E000C6B0933E5D7CEEBD1B8636BF5CB1E3BECF
:1032F00037581D3FD00576BE1898AF3E49684E3FFF
:103300007D08393F11EB00BF55F322BF79DE603DE8
:103310005915723ECAD6FCBE0AC644BFF06C7BBECD
:10332000D5D275BFB3238CBE0B53853EAB456D3FE5
:103330009E4ACEBE9C1F973EB932913EDD4D49BE9E
:103340009FA83D3FEB64F2BEC6F7D9BEB290D23E15
:10335000545B953D9DF634BD866FF7BB8376283E62
:10336000CBE96F3C53BB213D755C9ABE0974173E97
:103370001660933D19167EBB189BCC3D17C264BEE8
:103380007631553EB205543B8F1B17BD910E3BBEA7
:10339000C759823AAF9AF6BD220BE23E404A4B3EF5
:1033A000CF8C04BE3897EE3D92C3513EED1C1E3EBD
:1033B000B0E40D3C5A10E2BDA68C6E3E0E1D413E9F
:1033C0000F4E27BEB63205BEEE0370BD4EC7B63CEB
:1033D000F61A6CBE03ADE53E83AC5DBE216746BE0A
:1033E0007D21933C9E7734BE3188373BA56DC43D2B
:1033F0007CF337BE1AAC513CBFB5FA3CC2D2BEBE5C
:10340000CA2511BEB7D7893EFCBEB13D2601883D15
:10341000E59D6DBE66E845BE7AE828BE2697D43D98
:103420003C7098BD5519E63D6E580FBE47A28CBE44
:10343000A447B63D159E86BE7E066F3EDFDFA0BD6B
:10344000DA4CA2BEA47B93BED51C53BBB72D21BEC4
:10345000F4804CBD862E293DB83FC8BC78AE88BDEF
:10346000A5258E3D7AF3363DFB83923D6E254C3D7E
:103470009384963D6C95A63C838C78BDF080093D85
:103480008B7BDFBA458C853DA9EAA43CE578483CB6
:10349000E6AD273DCE5BA0BD2094003C36007B3DD1
:1034A0003A0A94BD40F1183DB8BD67BC2625CABC98
:1034B00000257B3AA813AB3C22842F3D7DF721BD2C
:1034C00047C719BDC60F563DB2922D3D14F7A0BC9B
:1034D0008347453D423E9E3DE349173D8E50A43C07
:1034E000BF18283D3663C4BBE99033BE88E457BE9D
:1034F000F47E2BBE88BFE2BD04FB85BDE9DCECBDDC
:10350000F302C0BE3E3628BE0311C23C47A7063EAA
:10351000B31FA93D69442C3DAECD6F3DE5981B3DE1
:10352000860B2EBDDB123DBD780A43BC8AFBE0BC96
:103530002086DBBB219E8D3DE2B9B0BCF371F0BCAF
:103540002EE450BCE125963B2467DFBD11613DBEF2
:10355000394EFE3D4828243B204A0DBE1B9D43BEEC
:103560001771A7BE27D42EBE3C61BFBE6D4A3EBEBA
:10357000BB0235BE57F970BE2DAD89BC44A35F3E7A
:10358000A4AD593D4905E5BDE7C890BD362FAD3D19
:10359000EFF2E7BCF676093DDEBD4BBD706104BCC1
:1035A00054444CBD1EE82B3D0F82933D39E13DBD97
:1035B0007BB1BC3D621B41BE309F90BE907658BE31
:1035C000A6BBA63D435DC43D73F0FD3DA5B6EC3DF5
:1035D0009A08D33D91185CBD2D79A4BEA2830BBE81
:1035E00088F6A3BE9EA5C5BD27E94F3E92A2193D10
:1035F000BF483FBEC87304BD16FD513E4458D63E79
:10360000EA5FB03D7DEA41BE7EE9CFBD951EAC3D8F
:103610009F661EBD8411863CC8F2FC3BA9CF053EC7
:103620007FEF29BD388B00BF737226BF77D713BEDB
:10363000EFBDD6BE7BC8AEBE4C1E58BEC12D62BE0D
:103640008491EABDB1574C3DE20C93BD994B55BDF9
:10365000FA4123BE7B8536BEB2462CBCCC3904BDB4
:10366000EBD01BBD7040F63D0AA7D13D8DEC7A3EF4
:10367000977AF93EE8A0BC3E563D3EBC9091183E7C
:10368000329F8FBD2F53943DF21AC3BD5C3C85BD64
:10369000E367D7BE28457C3E8446463E44AF433E62
:1036A000DCB785BDC415003D32C5EABDD9DCF539AE
:1036B000ABE3F13D866AC0BCD232BC3DF4EE07BC40
:1036C000286308BED4F1823AAA2318BDDE79363DBC
:1036D0007D735D3C3D603CBEE5B7D4BD5EC4DABDE4
:1036E000D0A6333E1E094D3EEDA6EB3DD2BC3A3E80
:1036F000B78698BD44262ABD72917D3D4AD6B13D1C
:10370000BD67203EF65CC03E0E19FA3DAE0BE23DB1
:10371000A5F78E3DC7DA5BBD3E4A4CBD493DE4BBD3
:103720001FB6153D417C813CEF89F33CAEFCE53D85
:10373000BD9EF53C0EDB23BDEBB731BC61895C3C23
:10374000A16EE23D6A2D3ABEBEA3ABBC9DCB883CC8
:1037500017869D3DB23FEA3DA5AB8B3EE7A977BDFD
:10376000D29F74BC4D5855BE4D8AEFBC5BA6933EAC
:10377000D75005BE4EEB54BE3CD392BD7CC172BC4B
:103780004E5D39BD30D8EEBD5E14203D2043F4BC03
:10379000805E33BCB1F298BC85B96CBEE4E07FBDFD
:1037A0001E1A15BEE4A176BD1F50EEBD4C5FD63D7E
:1037B0001B6B303CD04F2BBC5668FBBC19EB93BC49
:1037C000DC6587BD90A0D23B2899A43E71E7E9BD96
:1037D00038862CBD8B0BD23DE1457CBD3159453D32
:1037E000D7848EBE00ACB5BD3845D73DBDA4D83D0D
:1037F00000CB993D062C0A3E164D5D3D9B35213E82
:10380000DFE6A73D69E203BDD74848BE6950E6BD83
:10381000EC1266BEBCA298BD513B03BE3D288B3C5A
:103820009986FC3DA8463E3CE156E9BBCDA03EBD95
:103830006A82053D7A46763CB7DDE63D0029903D3B
:10384000482F1DBD0F643A3EF0B733BEEB7234BE55
:10385000A12000BEEEAA6BBEA97F043EEF1B8F3DE8
:103860005132CEBC0A6ACB3D7B43D93D481DAA3EAE
:1038700022F4B03DE8A3963D7D0BFC3D566B27BD81
:1038800071ED6EBEA6A676BD780B1BBEC430183C8B
:10389000E240BA3DE5C30D3EDDDBBBBCE6C726BE5C
:1038A000B295B4BDF65671BEFCDBAD3E4E941BBE68
:1038B0005BCE88BD93C2F93C9A3C25BE733C8EBE5C
:1038C000B801B33C16D1033EC12C353E39A5233E89
:1038D000179C0B3EEF8FAB3EA891A13E8887563ECA
:1038E0008E37813B21973BBC9A75143E380ED03DF4
:1038F000A170ECBC2D948ABD61BEF5BDA8926BBDD4
:103900000019ACBCFB169D3DF4502CBE2DBE94BDE1
:10391000609168BCB854B3BEF242ACBE3EFD6ABE14
:103920008FC80BBCB5AAA23C82099ABD986D623DB6
:10393000FF5346BDACF28D3EA8905F3EFC0F5C3E4F
:10394000EA9C8B3ED9D9593EECCD4A3DAF89A2BC09
:103950005ED5B5BB84BD673D80A2B03E7830873E62
:1039600051A3973E673A9D3D1F9431BC9D7C8A3C94
:10397000CD4BA3BD834A883DCC1BEBBD071107BED1
:103980007C5299BBFE5F32BDE4C32FBE8EA5283D9D
:10399000B6CEB33C86F4003DC389B4BD2200F0BD71
:1039A000726F99BD4202C13EE5FE923C8F1FFF3D02
:1039B000D1CC0C3D143268BD3FDA66BD73FEDB3DF1
:1039C0008F69F33CB028933EBB4DAA3E4849CB3E9D
:1039D000FCC2803EF631B03CCBC6F83D03AB713D36
:1039E000148B7FBB35B8C23B9F650BBD977437BD49
:1039F000BC8E173E83AF043E40DB923E90FC283ED7
:103A000045848ABD9E1B3ABED0078EBC0A2B18BDCA
:103A1000933F89BE13A58C3E562E903D137A0FBD61
:103A2000D84C07BD32993EBDEB93D5BC644A363EB7
:103A3000FBE4F93DFB1B0D3DCD1A9A3D78DF323E8C
:103A4000ACC21C3EFBD7053E965D0A3E922F0A3E55
:103A500055788BBD0DD1E53D5989513EF1254D3C41
:103A600013FD8B3EA8DF17BE31492D3EF6C93A3D06
:103A7000C271AE3DAD14593E92F4733EC33FD2BD08
:103A80007B6203BE3A92B33C90DB97BD1953203D55
:103A900050FC943D2F2B5C3EB800173E05E0473E9E
:103AA00047B9583E3267DA3D80DAC93DD21466BC68
:103AB000D38FF73DC5C6123EEA94723E6D99F33D31
:103AC000C93E3FBD393CE83B676B313EBF84903D0A
:103AD0005C130F3E41949BBC1E1E99BE0F130DBE7E
:103AE0007699D73DB94EAC3D46B737BD427C433C95
:103AF0006A69A1BCC00770BD3E48B2BC7385033E75
:103B0000143B863E6BC7633E2B187A3DA0CCC63D66
:103B10003D4E4A3EA511E13DA7A11A3D0E7A1E3E3B
:103B2000D26AF53DDAEEBE3D74A6A13DBE7C3ABD3B
:103B3000B233B83D025948BE38B3183CBCBD8F3BC8
:103B400006508DBD7E6ECB3D3771D5BE78DB9D3C7A
:103B500004C93F3EFF4D9D3DDC3FC2BECBE2953BDD
:103B600029B098BDEDC231BE3699FC3C4993E43D85
:103B7000E23A8E3E8988873EFD9D183EF819C93D80
:103B80004734173E0F9EAF3D4A25213ECAF19C3E69
:103B9000DA38F33D9CF6323EC2B486BC3CD8E43CF5
:103BA000967C49BD804EF4BD92C1C1BD1843A1BDF4
:103BB000A9304EBD1FBF433DAF0352BE981E1CBD72
:103BC000B009ABBCE4FB193DF49F05BE01A329BEBF
:103BD000D4BF933C7709B7BD83CB3B3D87E5E03D40
:103BE000821A813D6050C43D38A4C43D1412313E58
:103BF00072F87F3ED0BA563E709C803E7CD1AD3E7E
:103C0000FEE24B3E7D741B3E6E2DD03DA9229FBD32
:103C10004AC2573D5675B73D0303E8BCD81BE23C8A
:103C2000C2562F3E72413DBEE1A072BCB56884BD54
:103C30001F26763D188786BEDD90B53D401E153C9B
:103C40007DCB2ABC6A6F17BDEAAEF13C6D77DDBC57
:103C50008A790DBE6762B2BCCFD5A0BBFBA9073E77
:103C600027CF513EC70F1B3ED183C83D6D3A9A3EC8
:103C70008247243D4318003ED0AF793DB10DC93D88
:103C8000EA49213D6D27513D3C5D8E3D82FB3E3E24
:103C9000665FAF3EF00EF4BD962D003E7A0BD4BEAB
:103CA0009B9B91BCF5380FBDEF28D03D8DD7E3BD70
:103CB000C33A373E58F3EA3B5807CEBD2F351CBEFA
:103CC000F694B1BD257FE93D0B29483D7C55BFBD2C
:103CD000E0E2D7BDCAAB3FBE335F07BD60FECCBDDF
:103CE000EC2B7B3C2A6796BC4622E53D7259393E57
:103CF000AB8EE73D89ACA63EAA20503E200F5D3E2C
:103D00000E5BE63EBAA01E3E1634DDBD0803CBBEF8
:103D1000D80E073D5273BEBD7A28B83C2422FCBDA4
:103D20000D2CCA3D50E529BC5982F8BD58864CBEC1
:103D3000D63155BE97E1A7BD4542CABDA4F52BBEFD
:103D40009B7476BEA2B3B8BE931D4ABEEB4932BE89
:103D500083F038BE16430EBD774F55BDEC69083E63
:103D60006144433D0575A3BC92A5AFBD24D6D4BD27
:103D700019B3973EA358693E2834ADBC249E1CBDA0
:103D8000358CC6BD8F6E6FBE4864D0BD20E126BDA8
:103D900010DDA93D10D445BC142680BD7995B0BD79
:103DA00011B714BEBA8BD8BD13CF13BE42AE85BEB9
:103DB0000B3876BE33B9CBBD7D5C69BE39DD89BEBB
:103DC000659046BEE9D51FBE232413BE6D67BFBCF8
:103DD000EEB9023DBFF2933D156816BEE05763BED3
:103DE000781F523C57C07FBEE4023EBE959544BD4D
:103DF0008165E2BDFDA4283D06BE40BC85D0493D9D
:103E000091C51F3D0BFDB7BC53D6B6BC17DF8A3D2D
:103E1000548BCFBDA7DE03BEBDC909BE1C36EBBDAA
:103E200090A260BDB79615BE53190FBE487F90BED5
:103E30003ECA6FBE493672BED9B936BEF0675CBEA7
:103E40003FF6983D52E3763D27AA2CBEDFAA86BEF8
:103E5000210040BEE52B3EBED2AC12BCEF0A093DAC
:103E60008C90C7BCBDB274BD87DA93BDACA035BE23
:103E70003AD3273EE56716BD3EAAC2BD14E0253DF4
:103E80008620CCBDECD125BEAC3EE8BDE3053EBEF0
:103E9000243546BE564E26BE39CA83BE9B3BA9BEBC
:103EA00045CB10BECE967EBE4E87DEBDBB6430BE17
:103EB0003EE518BDF75918BE322E0CBEB9E986BED4
:103EC000F6138CBE5EE587BEF3B137BEB2A95ABD0C
:103ED00071468D3D823C2A3D3415373C0347A2BED6
:103EE000FEA99BBEF935B2BDDA3FBF3C841E0E3C35
:103EF00045ECBC3CD742E9BD643C703D1FB8A73CD3
:103F0000BFFB3BBE9C89FEBDE6E52ABED844BDBDD5
:103F1000839132BEF7919ABEF19265BE6F2108BEC1
:103F200034045CBDEFD532BDEDBE77BE08117EBE58
:103F300018C6B3BEA8782ABE7F9DA0BD08E4103D78
:103F40004D9CA33DE4D6973C2EB0BEBD87A23C3E1F
:103F500099679A3E04C1943E0085C73EAC1E0E3F51
:103F6000ED39263F05C3263F732CFE3E8797123F4F
:103F700005FEAA3E67FD2B3EF59C3F3E548BE43D7B
:103F80005820923D77B0303CBBBAC5BDC1C672BEA9
:103F90005DBEE5BBAD7B1C3EE43CEB3D1B7C1A3EAD
:103FA00039AF02BDC70CC2BD777021BD408618BDB8
:103FB000FE9C64BD8EC59CBD631939BD5BA5E4BC88
:103FC00040EC773CF00C5C3CCFDE543DB204523EFA
:103FD0003157B93EB979D73E9990C93EB604E53E0E
:103FE000898EA23EA525BC3D4B38323E07F9713E75
:103FF0005F0D0F3FFC1A0B3F56F2DC3EE2F0AD3E88
:10400000CB7D853EF3B5563DC2ABC13DDB46273C7B
:104010003CD39D3D9135D7BC3AE1723D6FF138BD3F
:10402000719282BD802675BB702940BD6815C23C67
:1040300090BCB83D4C565CBD286E8B3D642D363D22
:10404000E1B8DFBCBB99A33D4EDABB3C1CD4B93D03
:10405000023D673D06DD6F3CCAE0F3BDB89352BD3B
:10406000E96BF0BBDC5838BD5226983DA66F33BDD6
:10407000C2BEAD3D0CA983BB0A9A0E3CF340893DFC
:1040800042D55CBD20A4B6BBE032ADBC91855ABD23
:104090008F039F3D542C11BD81F0A93D7C17983CA6
:1040A00083FD60BD783A15BC9055893BC03D61BC2D
:1040B000700BDDBBBED403BD29DDA9BD68959E3C58
:1040C0005205C5BD00EEB9BD00DA96BD19DCB53CA0
:1040D000A56895BD52FF63BDFE85723D06C97A3D58
:1040E0005284763DCBD7A93DB9580EBD926D663D41
:1040F0003B7D32BD6B84903D0050E6BBF39E2ABDF4
:104100000CBB8B3C1BEFA23D86D07CBDDD08A3BD64
:104110006C4F9DBD6C3DC1BDF4F02DBEBC0692BD83
:104120006339E8BC40DDC2BC619F69BD2DD808BEC3
:1041300021D56DBE96E3B5BDDD647A3D5A147BBED4
:104140004611B1BEA49D61BE27582FBEDF81F2BDCE
:1041500041D661BE9250CABD01C762BDBCE104BE7A
:104160000B82ABBDD669043DB05654BC60AF0CBBEE
:1041700030E2FEBB706AD63BECDC8ABDEE6BE5BC80
:1041800004CCCEBD915FD6BD09DA37BE34A73FBEA1
:104190001DEB42BEC1AF7FBEA00BFA3CEB7DBA3D2A
:1041A000878D73BE6A9582BE83816CBE8691953D74
:1041B000A51B5E3E198B413DCB5D18BDE272043EEE
:1041C0001C1A243EF271543DBF4BCA3D3B8F443D07
:1041D000CEFFA0BD070DB1BBFA0760BDE7A82BBDA0
:1041E0008E3F733D269E633DABF094BDD5FB26BC50
:1041F0001E362FBE5E348E3D60E00FBE603EA5BD14
:1042000057A991BE64D516BF8C4DB7BE5C1BBABE14
:1042100054F084BEF21FC83CF4712E3E61DC0F3EA8
:1042200084981F3D3208063E1A8E193E3056EF3DE7
:10423000D404AD3EC59A123EFDDC233E64BC933EE1
:10424000B201F9BD0147093E50A431BEA5FE923D21
:104250002B218D3DAF26153D1EBA483E1D61C13E46
:104260008E12723EA3D5133E015C2DBD01A915BE71
:10427000118B24BE1639C1BE63E596BE91D7CEBD63
:1042800077E1973DDC4F84BD775DE1BDC70A5A3DBC
:10429000F402943D959A003E67B4323EDECE453E30
:1042A0006A54233EE064E53D6D10233ECD9A033E03
:1042B0005B97BB3E450D683EF15A823E328323BD7B
:1042C00001D6803D40EB3CBBDE0D733DC45ABF3E82
:1042D000012D86BDDB4B723EA962773D93AB6B3CF3
:1042E000620D873DFE74B83DC90C283D66EEDF3D8A
:1042F00099E4433DE56B96BDED5DB2BDF2A01B3E7A
:104300003FC9AD3DBEA4F43D31F3F03DEDCAC73D1C
:10431000F0EC86BBF747313EF090583E220BE7BCED
:10432000743F503D35C2463E19925BBEE8F757BE1A
:104330003EDE513DFE34263D760D423D475E723DE8
:1043400051979FBDAC517E3EDFCCFE3DFC032A3E23
:10435000CC5CDA3D52E5823EB1FB733ED192DCBBD0
:1043600092524CBED28A6BBD2E6A3E3D6B2D583D9B
:104370008D24D43D4B1C8F3D6FE41D3DCEC8F23DD6
:1043800045CB1D3EBF824B3ECA28963DF7930F3D5D
:10439000ADD5BBBDFEDA57BD5E4F44BE5E1916BE3D
:1043A0006D10523CBEF0A73E676AC3BD6121BD3DA2
:1043B0007F359DBC8927BC3E5873333E930C163D18
:1043C00045A7073E1E05403E4AAC3D3E03E34DBEB9
:1043D00026842EBE6EBFCD3DC442B43D1CE6573E82
:1043E000EE5E523D4D04CFBB3F4120BD11F9B03DC3
:1043F0005371903E3396903CA015173D36A8BD3EB4
:104400005F4D5FBC2A265ABEDFE799BE704319BDD7
:104410005C6D1C3D670C9A3E38104B3CDDAA983E03
:104420005740033E0272303E5C99B23DDD8B2ABCA0
:104430004AE4733D4FA1273E513508BBD803ADBCBC
:10444000052290BD1F79363AE57412BE7974BA3DE3
:10445000BEC91A3E9A160FBC1A37673DD2FEF43D0C
:10446000209A2DBB0662DF3DB901DF3DFC6DB1BD79
:10447000CB0951BEFB5AF13DC8EA383D521EF23C11
:104480005C2948BD7585B83E3908B23CF0909DBDA9
:10449000747892BD0F65F63DE0B2953EB3F1D53D1F
:1044A000F087193E7CA55B3EC2C7503EF0E6993DC1
:1044B000B3458A3D6542B1BD96B4F2BDB4AECD3CC4
:1044C0009E6A2D3DB391203E03B4093E0C92E63D19
:1044D0001FEBCDBD3F2613BE8A27F6BDE4F1133E88
:1044E000178288BE186B2FBEF1EC74BE2C8D963DE2
:1044F000559237BCB45EDE3D0C884A3E22188CBD16
:104500005596D6BD87AA8DBECEFD3B3D064E953C49
:10451000988A623E03738B3D2DCC473E06B12C3EFC
:10452000C2D7BC3D841F40BD99CC2DBE5C5BD13C45
:10453000D151E33D088E853DD2916F3E3A633E3EB8
:104540000DE05B3CE68182BC37385F3D54DF3BBD0C
:10455000882DD6BE299E10BF349FF5BE8A7994BCA3
:104560008C38893C3874943CF11AA23DDE4CA93D4C
:104570003008413ED164153E4657E23D74513A3E03
:1045800034B9813E0AF9083ECE3ECF3D0B59653E17
:10459000AC8FF73D98BB953C42221C3E8769153E87
:1045A0000BCD74BC14B5113ED1ACFB3D6EC5D8BD6E
:1045B0008D97BFBBAB9A893CD66839BD75F098BE64
:1045C00010DA3BBE6EC6E7BEAC04EDBDB1668A3EF6
:1045D0002F43C93A0CCC59BE22020BBC13D3CF3E99
:1045E000D3F0A73E3FF67E3E63F6B03EA02DA63E3A
:1045F000DCD348BC5AB23E3DAD0D1EBEE60D88BDB3
:10460000804CE0B9B7D99D3D7D75B83D9BC28A3ECF
:1046100071420A3E7392DC3DF0E1943D10D4FA3CC5
:10462000AC0232BCA1DF17BDA64867BE500F1ABE50
:10463000CAF2A3BEDDF44ABD5B79AF3D4B94813E27
:10464000C0876BBC06EC63BEC458EF3D2C326B3E9A
:104650005B43113EF10E9F3E746F383E76CC623E56
:1046600081ECC63B7E7EA13CE8899CBE62E9E3BD4D
:10467000050C3ABE82A6A8BD7E5A7BBC2767FD3DCD
:104680000FC2DF3D3A1400BDCDDA373E0EE8C13D22
:10469000FF0DE23D09EC41BD2DB10BBE135FEBBD3B
:1046A00022EB62BE00E272BB9D065ABE060AEDBD59
:1046B0007F79C6BD4D96F23C01EFDCBDB8494CBEDA
:1046C0001337D23D6668BC3DEF456A3E4ABD8A3B22
:1046D000FA96BA3D087A07BE7B2B5DBE96552BBE77
:1046E0006C3B25BEB8E379BC3AB6913D13F5E33D8A
:1046F000A7BF063E55A6103E3C3525BD2279C73DD5
:1047000041024EBC8CE778BDD81ADABD9825A5BC0D
:104710009E8EB0BE429B3DBEA57E4ABD7C5422BE4D
:10472000711AADBD7D4F233ECF5450BEAEF450BE86
:10473000D2FC10BD1F850ABE91D0853CE8EE3E3C00
:1047400072C513BE1ED659BE972379BE00A325BEDF
:10475000C44C41BDB4E443BC9C4C3C3D7D85433DD1
:10476000A935423C0A0F933D9EE1313ED95D143E8E
:10477000A20A1EBDDA28ACBD9307173E9F853C3EBA
:1047800046B230BE922C02BD10452F3EBF36F1BD61
:1047900079F809BDC0117A3E5C27F0BD1FC3B2BED7
:1047A00094E6D2BDD4CD3DBEBB46F9BCB2C5B3BDC7
:1047B000309688BD99CEBBBCF5BEFEBCC67866BE41
:1047C00068F601BE873A4C3C11E7D03CF1931EBC21
:1047D000280F39BE290EA7BB9C45823C914A4DBD8E
:1047E000BCA908BEAF7340BEE3EA483DD3C938BD9B
:1047F00002AADB3D99B418BDF684393DB91DB6BE99
:104800007DD68F3DFA62DD3D4C1AA8BD3C4485BE85
:10481000EF7811BE12468FBE3B8D21BDA03BA93A59
:104820006CA52FBD239AD2BD5B8D26BEA71E42BEAE
:10483000677A23BDA654043EAE972ABE168BECBD04
:104840001871F4BCF5B734BECA3A91BE1138C4BD74
:10485000825B25BE4DB206BE68621CBE8D8B323EA9
:10486000018D1E3C5251CEBE22DC763E01F2B0BE1E
:10487000873BBF3CD0983E3EB86F873E0A89EBBD70
:1048800066E00EBEECB081BD658205BEF0B686BEA8
:1048900060F316BE665A5CBDA77523BE698820BE4C
:1048A0003068E3BD268C013D5ACA82BEACE558BED5
:1048B000A8D481BDD77C0CBE2C1512BE5517E53B84
:1048C0005A999BBD12FDEBBC20C8BFBDECDE3F3D3D
:1048D0009FB1D43D1BF0ECBE2ACDD73E6E9F82BE69
:1048E000EF91A8BCF35D3F3EDFB9A53B574325BD23
:1048F000198E5E3DDF63CFBD0681C3BD4C1A3CBE41
:10490000208F6FBD957916BE166E24BE74B85CBE3E
:104910000181A1BDDCE18E3C14023DBE57FB81BE8E
:104920002E1CB2BDCD85D5BD816E71BEB8381ABE04
:10493000C6F0FDBD6E760E3D820410BB1D5EDE3DF1
:10494000C01B5C3E489911BF21E606BE9E7261BE47
:10495000C341883DAC05583E93F189BED68F29BE30
:10496000B9BB9E3D5B291FBEBBC7053BD4BAA5BCE6
:104970006610A03CC9E195BDAA0E1DBDAB62E1BDAC
:10498000B16E7E3BDFA8C53DAFB846BD18B572BD60
:104990004FC69EB83C0306BECAFF19BDE63E79BDB0
:1049A000701FC0BDDE425EBD1C5C95BD2BC6C93DFF
:1049B000C35BA93DB36B9CBE5279C63CA2FC0A3CCA
:1049C000914D8E3C34CD20BD227D08BE97E340BE84
:1049D000E9AF27BE67C57BBD3261063CF627323C96
:1049E000CAD4633DD9466EBE0FFD30BE116030BDE6
:1049F0002CCC94BC0A3C7B3D39149CBD6562093DBE
:104A00006A1F7CBDFDD0563DF260353D7D45E0BC62
:104A1000B5C932BEF4FC9DBD0A3899BE78B2F03DEE
:104A20001D9C09BC3420C6BE27A9DABE444633BD4E
:104A3000FF84733B4C2B5BBC51E33ABE31BD73BE6C
:104A4000EB4FFFBDD5AAD4BDF173103E155C0ABD76
:104A5000E3D41D3D9F3FBCBD863073BD8188A43D1E
:104A60007E967DBD4BD887BD25C9DE3DED84AD3D2D
:104A7000A55BB63CAE12143D93E63B3AF9EDC03C63
:104A800026C4FEBC46BF7ABCC773CC3D6F5A3B3EC2
:104A900061BF863E51CABEBD1673F1BE2F5730BDF1
:104AA00040ACE1BB68C7163CEBD44EBE1A5D65BD99
:104AB0006DF39ABDEC9E70BD8E5A073E30F9B73E3D
:104AC0005CF9BE3D241F34BC050E96BCE809C93D07
:104AD0006D1709BD0FB4863EBD7A843EB03F723E6D
:104AE000BDDF453EA4A8BA3E3F50D63E31C61C3E6F
:104AF000DA840C3DC318E63CE73F513D87A1923E66
:104B00002E29E63D9DB72DBE67A985BE5A980D3D5D
:104B1000228C673D546533BD81FCFB3C9D5DB03EFE
:104B2000CE55A53D2BC9C63DB0D4BC3EC34A933E2D
:104B300028F4C63E1FEA3F3D355EAA3DFF07C53E4D
:104B40006579933EC710363E5CA2EE3E326A743EF3
:104B5000E35E113E77CB453E1EBFCC3E0ADEDA3E19
:104B60003AE8D43E5C29B63E0D15873E4E938C3E06
:104B70006AD1F2BD5C9B68BE0F2734BE0628603D3B
:104B80009E76653D42D6333D026E953D6D644C3E4A
:104B9000CEEB2F3E0814F73E5D89CA3E248CE13EE1
:104BA0001212343F6DBD2F3F7956D83EFD26013F8E
:104BB0003E58443FF44B713F37A7493FDDB02B3F90
:104BC00053A8183FB5880E3F15AA273FF7C4D03E1B
:104BD0005C441C3FC633C73E93A6723E64CDF6BC10
:104BE000596312BEC0B11BBEB7BA10BE0090A83A3E
:104BF0002835A2BD0B42A03D4C8A8F3CA2B0033D9C
:104C00004D33253D9F898B3E5116BD3E3BFDB33E46
:104C1000E455A03DD6B7A23E7E31403E4235F1BCC0
:104C2000D706C53E8B00EF3D18076E3E4826163E60
:104C300062E13A3EC90CDA3E5BF09D3E22771F3EB0
:104C400090FEC93EA661C13E9FFE843D6216FCBD3A
:104C50005091DC3D793D22BC4E6EB9BCD00B99BB66
:104C60003BC368BDFAC8D2BC9069B2BB4A9906BDC5
:104C70000AF495BD4B82903DF8441E3E76AE843DCD
:104C8000A0A63E3E7D0663BADC3D1B3E6690693EB3
:104C9000D2DC5D3D4D7C303E6AAA573E5223AF3D8B
:104CA0007378823C47E188BCDCF2DE3DD6DF993C7C
:104CB0006DE0093E49202D3E0F23943E9148A73DCB
:104CC0001995983D78648DBC69A1863D1A65783D3B
:104CD0006E8386BD35188D3DE1C578BD3EDA18BDC1
:104CE0009544813DC04373BC103CF3BB285AA63C9D
:104CF00098ED133D6431003D78334DBD72C8773D6A
:104D0000546E0E3D486DC33C22457FBD6D3A343D27
:104D100043A0953D40162E3CB4EA3EBD60611DBCEB
:104D2000FE564A3D26C18CBDCDB2953D0E017D3D5E
:104D3000FAF0353D0077F1BA8F6D913DFEAB773DCE
:104D40001A76393D2467D7BC30F5CC3CC67564BDB6
:104D50009482A0BDED1FD0BD378A9DBE11BC52BE4E
:104D6000D47170BE062B7BBECD3A2EBEF3017FBE42
:104D70003929D9BE877BF6BE25EB06BEE66414BE94
:104D800086D5D9BEEA22DABE46D1C5BEEAD96CBE06
:104D90001F2CEEBE0F2C5DBE584A27BEC9AB9BBD73
:104DA0009C5B8ABDC0F79CBD5A7710BD4EF1613D3A
:104DB000A4E6143D396B913D09D8123D79E555BD06
:104DC000ED103CBE968FECBDF0D26ABEF04DBDBE7C
:104DD0009F98BCBEADE699BE1F56B0BE628D0ABF9D
:104DE0009E3F28BE97288C3E7EF8BABDC7DD86BEA2
:104DF000F01C8CBE2C991EBEDDE175BEB4A30EBFA7
:104E0000DF27C3BEC5C5C3BEBD2618BEB8F225BECA
:104E1000F6682ABE458B44BE30D73EBD3005033C04
:104E2000728CB7BC3C55913C31D1AC3AC203E1BD68
:104E3000890310BD48240C3EEA65B0BE6E49F8BE39
:104E400075CCEBBE6FC3A23BE0B930BE2255F6BEB7
:104E5000E8BFB2BEB06163BEF6B572BE960E10BEBC
:104E6000742B62BE00951CBEE44AA9BE5FD343BE4C
:104E7000414BE33CA6371DBE3FBB4CBAE6DEA33E2A
:104E8000A203673EE6F7C73D3736333E71E5953DF1
:104E9000A64A44BD4398A3BDE973353D4A7863BE35
:104EA000397199BEDDFD683ECDA7103E21CBD43DC2
:104EB0006913DA3D6441293D9B4D17BEDE4682BE33
:104EC000B1134BBD3316DD3BCFC267BCE4C112BE8C
:104ED0003A2302BEA77021BD800181BE717003BD5F
:104EE000209607BEF80CD9BD04FC343D24A04D3EED
:104EF000BCC80D3E82B77F3CE1CF13BCE7DA4BBEA6
:104F0000005B1BBBCDB69CBD9C8C4A3A527000BE68
:104F1000ECF7653D4F00003F0055AE3ED7D7943CBF
:104F20003B0A163D543BEFBDB29A1DBE948D7BBD2E
:104F300094C3503A15A7993BE64EBBBD389CBBBD08
:104F400037667ABD5AAA46BD7AF73FBDB6AEEFBC0A
:104F5000AF472ABE1BCB6ABEB44B4CBDCE742C3EB1
:104F6000F37A9A3EA168493E2DBD36BE0FD539BEB3
:104F7000313A32BDB513CEBD54565CBEE02A623D17
:104F80002BDF92BE98F182BD284BCDBA2C442B3E2C
:104F9000F5F774BC51C90E3D9AEC75BD405C5C3CA4
:104FA00055A9E73D575BD73CEF4D1EBD6B0B0ABEC5
:104FB000F3778FBD58EA3FBD34C421BE101EECBD4F
:104FC00074F473BC0424F63D9639243D7A9D8E3DDD
:104FD000AE2F1CBE9AED97BD12B3B93BAC1F853EF8
:104FE000C82F383DB0F112BE8D49ECBDCBF730BDB6
:104FF000FDA88CBEB15986BE5C086ABDBC644FBBBF
:105000006357ACBB54E783BD69EA70BD6F07E93CE9
:10501000D00E77BCEB586BBC5B3D9BBCCBA61DBEDA
:10502000C9F1B6BDDF14C0BD3AA021BE445D08BEC3
:105030007E92823D1BBE283E7E93DE3D863FAC3D88
:10504000FE706EBE0BA8D5BEB698DB3D1969CE3D8D
:105050000ECF87BD87612CBD389066BE8C7662BD51
:1050600042DDCE3DE9629A3CDA9BBC3D050C08BCB2
:105070006F52E73D9A130EBD10E2173E91EA9ABCBB
:1050800016BA1D3BC5EC2E3EFF261D3E2B31563D6C
:105090003590ACBDF9E515BD865E3F3DB97232BEB7
:1050A00068D312BE2801F4BDBB857CBE168639BE0E
:1050B0008C8F99BE2E50D8BDD6DDE63D90162BBE06
:1050C000804B8A3BF999BBBD3E325BBC30162CBD90
:1050D000D04C363CDABB163E26EFE73D4339E13D86
:1050E000F8E1093D43DF3ABD2EBC5C3E66BEBF3DE4
:1050F0001FE4BCBCDC680B3DAA93A83C7192CB3D7D
:10510000A25DD43C9EFF223EC3BC603E606331BDC5
:10511000BA4F21BC02BEABBD9F08A6BE607D92BE49
:10512000DF3A7BBE25BCEABD7193FD3C40D04D3ECD
:10513000E05A66BD3C0501BD5A65ECBD579E26BDD3
:10514000B975B93D827EB03DDDABD53DE759E93B50
:10515000A0A52ABD73EC073EE4F89B3D15C3CA3DEC
:10516000C0A2723B83D848BE248748BEF71481BDD5
:1051700082B5383DA97E513D04C84C3E70CF873E74
:10518000CD495C3E6808DBBC615A81BEAE3EBEBE06
:105190005F95A6BE7A44D9BDFF0E39BE2E9B893ECF
:1051A000302D2C3CC93695BC902EF4BDDB584B3EBF
:1051B000D85A31BC247DB03EEBA4023ECF4E553EC2
:1051C0004AE8A03C5139173EE8CD453E611FFF3DFE
:1051D0007C6AF3BC3169383B4537A4BC43F6EEBD6D
:1051E0004B03BABDB1AD3E3E26942B3EA9C97C3ED1
:1051F000B149E43E35CDF93C797634BE7A391ABFEF
:10520000E862F3BEF98B0CBFCF3BE0BD014DAD3E74
:10521000FFCFDC3CDB6249BE70BE0BBE86BECC3E1F
:1052200088072D3E860C9A3E9208173E1ED09B3D65
:10523000B3D6963D4154C1BDD125C6BC8BE897BBC2
:10524000616DE7BC2548B7BD437309BE3D863D3D52
:105250009983083E77D7273EAC5B853E5198A43EA4
:10526000CD57D33ED6AB623E120473BD5E54DCBE56
:1052700004E8D6BED67CE0BE7CF8B9BE209A743E67
:105280002301A33D764916BEF09B5DBDD3D7403EBA
:10529000BF7FA93EE4765C3E09CC883D1C5C713D35
:1052A000B99516BD0C08A23D74B6BFBCBCC723BEE1
:1052B000AAB6AFBD197C1DBE5D5074BD20D03A3E6C
:1052C000FF3E773EF4F13C3E61B6613D5DF8C33E82
:1052D000F023043FE97FA23EF2F0AE3DCF97B1BE8E
:1052E0002E9AD8BEBA02813DB4F50ABF24FC03BE93
:1052F0000EAE34BE010D08BED39360BD327E5D3E5E
:10530000836B3D3E88C87F3DC96E59BC75CFB7BD24
:10531000AE83143D4EB1AA3D9AC954BEB6EB4BBE06
:1053200038D849BE451F0EBA8566D23D75076D3E19
:10533000015D653E9DCDA63D8A7A023D21B7CC3EFA
:1053400049B9D93CA79516BEF25733BEF25D89BD67
:1053500006B1F0BE61AE3C3E163F99BE991BD5BD6D
:10536000408076BD41FB96BEDADF063C521E873E8A
:10537000EEF1303ECA7A82BEE3F414BED67E36BA6F
:105380009CFB3DBC27B05ABD6A925ABE0429FBBDA6
:1053900095F5AF3CFE6FC53DC8C0453EF61CED3DE2
:1053A00082D8D23DB202DF3D219E30BD6470CA3D3D
:1053B000D97284BDDA23CFBEE3FC01BE06AB0ABEC0
:1053C0008ABDC5BE156B5ABE0530C1BEC12E95BD86
:1053D000B51FA13D39280FBEB648B4BDE1BA7CBCAB
:1053E000EC6DD23D994D1BBE819196BE4061E5BDED
:1053F000D8C877BE51DA43BE684BD5BDF32D1E3DEC
:105400006386543D4A0B733E78FB8E3EDF6FBD3D95
:105410001A59C43DD083ADBDADE8443C80B613BE3F
:10542000191B95BE62FEC0BE148380BE025295BE9B
:1054300039F142BEEA9AECBE441B693DE14F8FBE92
:1054400000D5E5BC8EB35EBEB70CD63D975B23BEE0
:10545000C0DB01BE567D98BE32B8D0BE8BC6F9BE49
:105460005FF133BE652B033D3E480C3ECE00223E2D
:10547000F8F2BE3E68EEAC3E9A35763E410DB23B48
:1054800081C479BDBEB020BE88304ABE89406ABEA4
:1054900056007EBE4A7EC3BEBC9ECEBEED96F6BE14
:1054A0001705B5BE193728BFD0F34BBEDEFC6CBE66
:1054B000BA170B3EBE7A173C0CD7943DAC8155BE53
:1054C000CA22B3BEFE56ECBE61E4A6BE5ECDD1BE1E
:1054D00068748CBD42A53A3E2B35C53D5CB393BB89
:1054E000BAE7C53DC89A633E1BFEC83D86241ABD77
:1054F0007B9578BDDF2918BD051A7F3C5EFB41BE58
:10550000922167BE9B379CBDDAA177BE49F54EBF9D
:10551000198C10BFCFEAFCBE0CF7E93DC9EB0F3E7A
:1055200096B8283D91F1383D24B4B2BEACB9DCBE8A
:10553000BBDBBCBEE96FB0BEE02C1FBE75AC50BD7E
:10554000B895C5BC75C94DBDDD6D5BBD0F070ABE05
:10555000335042BD7F54763D361E2D3DD9F56CBD8E
:105560002C2C72BDAABC72BD388703BE609756BE94
:105570004A2CB4BE7E7CB5BD9E5708BE21A7DEBEB8
:10558000544D89BE759F90BEC1AD043ED9A88B3DD8
:10559000ECBA8CBDA044DABD02313CBE5B3F3DBEDF
:1055A000239DE7BE3A6810BE2E5CEDBDBA113BBE2E
:1055B0001FA434BE18A320BE51CF1EBEA0492FBECB
:1055C00071D9F4BCC747C3BD2709823D9493AEBCD3
:1055D0004EEE323E2605193DA415D13D1FF4F0BD17
:1055E0006CCB84BE12956ABE591312BEEEB354BE84
:1055F000FD16343E0D31283EF882F83DFAC7BC3C1A
:10560000CE77493D3FDAABBDBB8C67BE1B35E5BDF0
:10561000959F5BBE8756B23D5CBC023E79F714BED7
:10562000C308573C315E783C27F11CBA5ABF87BE8D
:105630009607DFBD076799BD987FA23D0C05093D20
:1056400073B7013E680E043CC5255F3EC8D9833E52
:10565000B9D6DFBB9A56893D6A9233BD5BC4BFBCE5
:105660008492253E0F24F83D8B751E3D9C115ABD3A
:105670000E3C323D8CB0A03D01F40DBE50DFABBE00
:10568000538B28BE6784243DEFE1213E950C153EE7
:10569000E6B1D73DAF1B18BD15A327BD6CFCFFBC01
:1056A000CFC6A6BDD0C91ABE2B0FBDBD788FAC38F2
:1056B00028BF69BD6690503E76027A3E2FD5A2BDC6
:1056C000A57D56BD1FC1403CC924C43C20F4D4BCB8
:1056D0000C25D43C28D8C83DA47386BC80A984BDC1
:1056E000FC2F07BD16F11C3D0EC592BE969AFEBE5C
:1056F0005CC3C7BE671DF4BD4406893B3835C4BCD6
:105700000855C5BDF4F781BACFDEF2BD147C05BEE5
:10571000943F54BD6B4EE83CEF703EBD6F8B8DBD2A
:105720002A153FB8F7DFC83D937035BD8611D2BD4D
:10573000D1C3563DB17F673EDDE2513EEDD9B73D65
:10574000D2C95BBEB0F409BEE0B40F3E7327993DE9
:105750002A40303D8E99273DD0A26BBCB8B1BABE6D
:1057600050259EBE28A7A7BDCAAD1CBDA1E34FBE54
:10577000E9CBD2BD5AD984BDFA09CF3D0EC026BDB2
:10578000DBE426BE66D381BDFE16DDBD23A9393D0F
:10579000521BD43D87E942BB63A735BEF1CB4C3EDB
:1057A000AEEE0E3E1B0F4B3E637D783EBA48FF3D8A
:1057B000BB6EC93C788D87BDC849543C64A794BC76
:1057C000286A47BCC0F4CC3A33C3DD3CEF56B7BDC2
:1057D0002DA2BB3DEC58CFBC69504EBDB92B493D05
:1057E000BBD1863E47D5D83C2509BFBD4DE5B8BCE9
:1057F000E1529D3DC77EB83DFF58D03E1200B43DFA
:105800006A26FB3CF01A14BED3DA92BE95B78ABE64
:105810003C58DCBDC82B18BD870E8EBDA8B7EEBDA9
:10582000E83A88BEBE881ABEDDACE7BDDF2C6BBD92
:10583000FA038BBDA0B9A43C2626123D723509BDE2
:105840008B8335BD0AA838BEC085B63EA117063F7A
:10585000F749E93EF170F93E79827A3E8127BCBC76
:10586000483059BE3C5546BE016E5F3D16A1D6BDBF
:10587000A2B47FBED0DC05BD53C60B3E729771BD8E
:105880007F467EBD4AEC893E1EEE903E8EF2A43EDF
:1058900007B2673EB53508BD0DF097BDB83655BDAA
:1058A0009C51E43C34E18C3CCF6023BDD438ACBD8A
:1058B000B4978DBDDD439E3CCD9A84BC652C803D64
:1058C0003DF2AC3D425F343C576FAF3DB301703D9C
:1058D000E2943B3DDF76A63D3A87B43D91B5983CD6
:1058E000602C643D6A87433E0A2B9D3DA26E593E63
:1058F000D080923E9AD3CB3E4AB9C73E878E463E71
:10590000988098BC20F2D5BCC5F14BBD6B47943D47
:10591000896599BDD0FCA93B0EB6EDBC11B50CBD97
:1059200012C44A3D886678BD04DCDDBC80418E3AF5
:105930002882AD3CEA1C633D96212E3DCEB703BDC7
:1059400090E27F3DD2775EBD166386BD033A85BC8B
:10595000BF328F3D463210BDD06191BD775F54BDDF
:1059600038B451BC8C3EEF3C49798C3DFB95A03D51
:10597000E6AF7A3D1BD4A9BDE09F39BC28B95BBD19
:10598000EB3391BD78F093BD35CDA4BD14FABC3C8A
:1059900081D191BDFBA56D3DF5CF05BE68C4EABDC3
:1059A0000F2B55BD6656BC3D0647AA3D9843F73CB4
:1059B000B1A0393D4CB854BE753AB2BE9DBDC8BE0B
:1059C0006E0F3EBE3B3868BEF2C0A33C8B71443DB7
:1059D0009929C5BC96443C3D6D1695BCBD6E82BDF3
:1059E000A46E123D7C8DFCBC00B08BBB605F8E3B17
:1059F000DD88A63D568C403D03BC0DBD8228EDBD23
:105A0000D48E49BDB74E8E3DA355663D36C0B0BD60
:105A1000745C1F3D8EFE4B3D2AB23E3D5E8D8E3E38
:105A200016F08A3C71E030BDCE5F8E3E3C2478BCDF
:105A30005481C7BE88115DBE52877FBE806DA4BDF4
:105A40007DDF02BE90FA35BEF5FBAEBDA9E482BE95
:105A50008CCB6CBDFA94DABD006B503BB36A99BD38
:105A6000D1BF86BD83F4A1BD74946A3DB0B8EEBDCC
:105A7000AB35833D978A733EB48A9F3EF9ABC83EEF
:105A800084C8BB3BB36E12BE25D9D3BCCA136E3ECD
:105A9000CE4F63BD91670F3D852DE73E9B3DE23EB6
:105AA0006B72563EB01C163EF720B03E2CD1B43D72
:105AB000A983D93DFCB89D3E600BB43E8F424C3E5D
:105AC00041241A3E22C346BEAFF6C33C54E19E3C7D
